:200000000080202035600000333D0000333D000000000000000000000000000000000000AB
:20002000000000000000000000000000333D00000000000000000000333D0000333D000070
:20004000333D0000BD3A0000333D0000333D0000B5590000E1590000333D0000333D000031
:2000600000000000333D0000333D0000000000000000000009600000333D00000160000066
:20008000455D0000333D0000333D0000333D0000333D0000333D000000000000000000008E
:2000A000333D0000333D00000000000000000000333D000000000000333D0000333D000010
:2000C000F0B5FFB08EB0049306920646929802900025E84305908C913468204605F006FF59
:2000E00021188B9503918C4200D3C2E00020879087A908738890059889902F46049D207872
:20010000002800D1B8E0252805D0641C34600699A8477F1CF3E78B97601C306087AC20464E
:20012000314600F0C1F88CAA2046314600F0DDF8306801787A2925D0682919D06A2908D039
:200140006C290ED0742908D04C2922D1879980221BE087990122D20217E0879901225203EC
:2001600013E0427887996C2A6AD10122120205E042788799682A66D101225202114387913F
:20018000801C05E08799012212030A438792401C0178441C346087A80173732913D06E299E
:2001A0001DD1879836490840411E02464A408A423DD900282DD04142014032484143C80E9B
:2001C00031A1085C26E087A80078400619D4009587A88CAA8BAB069900F046F92BE007AD4C
:2001E00087A98CAA284600F095F9024628460699029B9847411C059D00D0C5198B95039973
:200200001BE0009587A88CAA8BAB069900F0C9F811E02020401F082809D8C0467844007987
:2002200040008744210404151C04150404008C9802C88C900F6003998B9D681C1BD052E753
:20024000401C402201E0401C2022114387919FE7F8178C9904C98C9117605060EBE78C9834
:2002600002C88C900F70E6E78C9802C88C900F80E1E72F4600E0059F38467FB00EB0F0BDDA
:20028000603F000031B57C0700011C021D0E18031E16140F191104081F1B0D1715131007C7
:2002A0001A0C12060B050A0910B50A680124E3071AD01378302B0CD0232B0ED02B2B0AD08F
:2002C0002D2B04D00024202BF1D1042306E0012304E0102302E0022300E0082304681C439C
:2002E0000460521C0A60E1E710BDFEB516460D460446086802782A2A10D13068011D31601B
:2003000000686060002805D54042606020680121014321602868471C2F6017E00021303AFE
:20032000092A08D84218531C2B60435C6F467B545278491CF3E76A460023535412784718C7
:20034000002A03D0684604F0CBFF606038782E2826D1781C286079782A2908D13068011D88
:2003600031600068A0602868401C2860FEBD00203039092908D839188A1C2A604A786B46C6
:200380001A548978401CF3E76A46002111541078002804D0684604F0A3FFA060FEBDA160FE
:2003A000FEBDF0B587B01E460C9F13681C1D14601D68002D3AD0049106908468002C04D498
:2003C000284605F083FD844203D3284605F07EFD044606984068A042039000DC2046014632
:2003E00030680191401805940399A142029630600EDD06980078C0070AD1059801990E1A39
:200400000024B44204DA20200499B847641CF8E70026049C069805998E420ADA2868010A58
:2004200018D12D1D2146B847761CF3E70020B84718E00599039A8A4214DD0078C00711D088
:200440000198451A0024AC420CDA20200499B847641CF8E70020C0430299086005F0E0FD79
:200460005821016007B0F0BDF0B585B00C4606460A9D1068011D116000680490002844D0E0
:200480000393B768002F04D4049805F02FFD874203D3049805F02AFD074602967268BA42D1
:2004A000114600DC3946039B1868009140180192BA4218600FDD02980078C0070BD1009843
:2004C000C01B039000260398864204DA20202146A847761CF7E70026BE4205DA0498805DC3
:2004E0002146A847761CF7E70198B84210DD02980078C0070CD00098C61B0027B74207DA87
:2005000020202146A8477F1CF8E700202146A84705B0F0BDF0B58BB004920D460446FF21C0
:200520000846FA30271868680590002609960691FE3120222046029205F012FC7F208000B6
:2005400021180A9103973E71287B0246613A172A08952BD8012393402546C34C23422C46CF
:2005600009D009A90AAA089D2846049B00F082F900260796B9E0712423422C46089D22D1BF
:20058000022A13D1049B1868021D1A600068C2B2534253410793069AFC32A2180A92087058
:2005A000286802218843286000269EE001464539032908D3252800D180E0412803D058288B
:2005C0000796CED092E00194049A1068C01D07218843014608311160076846682D7B2C46CB
:2005E0007B3C384631463A46334605F09BF9002800D021E10120C007314681439B48484045
:2006000038431FD0F60F002007902846413806283FD9613D062D019C00D922E1A80002A2F1
:200620001058089D8746C046A9060000EB060000EB060000EB060000E1060000D506000096
:20064000C90600000022384631460792134604F064FB1921CA436921049149216E254E239B
:2006600066274626944200D33E46039AD670019C00D32B46937000D3049951703F21C90033
:2006800061180A910028089D14D02D20107004262BE0019C089DC04678440079400087440B
:2006A000032424241F1913000AAB38462A4601F0F5FA1AE02B201070032616E00020607029
:2006C00025202070012086E00AAB38462A4601F0EBFB0AE00AAB38462A4604F0F5FB04E0EF
:2006E0000AAB38462A4602F05FFD287B012501466F39092904D801228A405D490A4201D192
:2007000058286AD1059B0595E5180A9808990978C907274609D10399091D091A089A5268CB
:200720009142274601DC691A4F1C411C0698430000263846324605F05BFA0A9007990029A7
:2007400003D0411C0A91067000E00146A94206D8481E691A491C202205F002FB2E70089DA3
:200760002878C00605D4391B2022204605F0F8FA2CE0A7422AD0391B30262046324605F0EB
:20078000EFFA09984142414105980140012905D12878400702D43846214604E03878611C39
:2007A0002070781C3E702A7B412A0CD0582A05D0612A08D0782A01D0702A07D12B781B0717
:2007C00001D4612A02D142784A704670204605F08DFB079940180BB0F0BD002E09D0012E43
:2007E000059B90D101200990089801680220084007E0099A0898016802200840002A08D0CC
:20080000059B0A994A1E0A922D220A704542454179E70028059B08D1480700D473E70A989B
:20082000411E0A91029901706DE70A98411E0A912B210170002566E71920C543612241216D
:200840006E234E20AC4200D31846039BD87000D31146039A91700A92507000200790022691
:20086000019C089D41E7C04608C190000000F07F43020000F8B514460F4605468068002844
:2008800004D4286810218843286001E00120A860287B1026582808D0782806D0702804D04F
:2008A0006F2801D1082600E00A262846194600F055F8AA68002A09D102460A4306D1287865
:2008C000000749D52B7B0020024612E02B7B642B03D16423002905D40AE0692B08D10029E1
:2008E00006D5692301223A60002240428A4100E00A4600941146324600F0CEF8A968884241
:2009000006DA401C21684A1E226030220A70F5E7287B582803D0782801D070280FD1297800
:2009200009070CD5702800D1782021684A1E226008702068411E216030210170287B6F2876
:200940000AD12878000707D520684178302903D0411E216030210170F8BDC04610B5037B2C
:20096000702B05D10868021D0A60006800227BE002683E481040421E04465440944216D9E5
:20098000002807D04242024039485043C00E39A2105C00E02020401F082808D878440079A5
:2009A000400087444C04041E38041E04040000221846643814280DD801248440354804426F
:2009C0000AD12120044205D00868021D0A600068C21749E0582B46D10868031D0B60006880
:2009E00042E018466438142807D8012282402948024206D12120024203D10020582B02460B
:200A000032D10868C21D072082431046083008601068526828E0002218466438142807D831
:200A2000012484401B48044204D121200442CBD1582B18D10868031D0B60007814E0002237
:200A400018466438142807D8012484401148044204D121200442B7D1582B04D10868031D2D
:200A60000B60008800E01046114610BD603F000031B57C0700011C021D0E18031E16140F65
:200A8000191104081F1B0D17151310071A0C12060B050A0900081200FEB501920D46064623
:200AA000582B01D0174800E015480090089802903046284305D1029A1068411E1160302198
:200AC0000170019C3046284313D030462946224600F01AF807460D46224605F077F8301A3F
:200AE0000099085C029B19684A1E1A6008703E46E8E70298006805F0F9F9401EFEBDC04626
:200B0000FE6C00000F6D000080B5102A06D0082A09D1C0084A078018C90880BD00090A07C5
:200B20008018090980BD002904D1114604F05AFC002180BD002305F093F980BDF0B58BB010
:200B4000FD4E304602F032FA28217054002800D1EFE1FA490978012949D13388F8490A884A
:200B6000934200D20B80F74A1488A34200D9138073884C88A34200D24B805488A34200D92A
:200B80005380B3888C88A34200D28B809488A34200D99380F388CC88A34200D2CB80D48857
:200BA000A34200D9D38033890C89A34200D20B811489A34200D9138173894C89A34200D219
:200BC0004B815489A34200D95381B3898C89A34200D28B819489A34200D99381F389CC8906
:200BE000A34200D2CB81D1898B4200D9D38107907D200190C0000990D1480188D14802883B
:200C000000258A4228460DD933888B42099809D99342284606D2581A099C6043511A04F050
:200C2000E1FB201AC84C308287B2EB43C74A384629461E4604F0CAFF04AA83C2A74201D89D
:200C40000A9501E001200A90BD484188BD4842888A4228460896B84C0DD963888B420998A1
:200C600009D99342284606D2581A099E7043511A04F0B8FB301A608284B2B54A2046294663
:200C8000089B04F0A3FF0E4604994018049005984641AD480594844202D90A98401C0A9053
:200CA000A7488188A74882888A4228460ED9A24883888B42099809D99342284606D2581A50
:200CC000099C6043511A04F08DFB201A9A49888287B2A04A38462946089B04F077FF0C464F
:200CE000049940180390744197480497874202D90A98401C0A909248C1889248C2888A42EE
:200D000028468D4E0DD9F3888B42099809D99342284606D2581A099F7843511A04F062FB2D
:200D2000381AF08287B28D20C24338462946089B04F04CFF0E4603994018039066418248E9
:200D40000897874202D90A98401C0A907C4801897C4802898A4228460ED9774803898B42E2
:200D6000099809D99342284606D2581A099C6043511A04F037FB201A0699059A89180291DE
:200D80006D49088387B28E22384629462B4604F01DFF0C4603994018059074416A480697DC
:200DA000874202D90A98401C0A90049802990E1863484189634842898A4228460ED95E48E8
:200DC00043898B42099809D99342284606D2581A099F7843511A04F005FB381A089971182C
:200DE00004915549488387B26B208200384629462B4604F0EBFE0E460599401808906641EB
:200E00005148874202D90A98401C0A90069804990C184B4881894B4882898A4228460FD941
:200E2000454883898B4209980AD99342284607D2581A099B5843511A04F0D4FA0999081A0A
:200E4000E4193D49888387B2434A384629462B4604F0BCFE089A80180690714108913A4895
:200E6000874202D90A98401C0A90E6193448C1893448C2898A420ED92F48C089884209D98B
:200E8000904208D2401A099C6043511A04F0AAFA251A00E0099D2848C583ADB270192A4929
:200EA0008D4202D90A99491C0A91C708002201214A2F0B46204E00D81346099229243355F9
:200EC0000A9A1346083B5C425C412A23F454534253412B243355062A00D809992C22B15405
:200EE00004F03CFE344606461C4903F085FA60624B2F1AD30198C200002128460B4604F0CF
:200F000065FE069A8018089A514104F05DF8254604461449304603F09DF90146204603F008
:200F20006BFA28620E49086002E00D480068206207980BB0F0BDC0467C082020FA092020CE
:200F40004C0920203C0920208902000018FCFFFF36FDFFFF54FEFFFFCA0200000000FA454E
:200F60009009202000007A44F0B585B006460024214603F000FF0028254600D13546A2486E
:200F80008475A2480078C043A14E317D0143C80715D1A04C2168284602F0B3FB20609E4973
:200FA00003F0FBFE00280AD003A89C4981809C49039100218171072101F062FE30750120E7
:200FC0000190002702A804F039FB002800D191E002AE307801F0C0FD304604F02FFB00285B
:200FE00000D187E002AE307801F0B6FD304604F025FB00287ED002AE307801F0ADFD304654
:2010000004F01CFB002875D002AE307801F0A4FD304604F013FB00286CD002AE307801F049
:201020009BFD304604F00AFB002863D002AE307801F092FD304604F001FB00285AD002AE0E
:20104000307801F089FD304604F0F8FA002851D002AE307801F080FD304604F0EFFA00288B
:2010600048D002AE307801F077FD304604F0E6FA00283FD002AE307801F06EFD304604F0FC
:20108000DDFA002836D002AE307801F065FD304604F0D4FA00282DD002AE307801F05CFDA1
:2010A000304604F0CBFA002824D002AE307801F053FD304604F0C2FA00281BD002AE3078BB
:2010C00001F04AFD304604F0B9FA002812D002AE307801F041FD304604F0B0FA002809D015
:2010E0000F263E4302A8007801F036FD10371F2E00D267E74B4908684B4A16884B4B1F88CC
:201100000C68A0420BD0086816881F880C68A04205D0086816881F880968884203D144496D
:201120000A6890420FD1474C2168284602F0E9FA2060454903F03AFE0024002801D032485C
:201140004475334F5AE0002A07D0821A022A04D32F4CE368D218521EE260086030B204F0DA
:2011600015FA344D294603F075F8274CA06038B204F00CFA294603F06DF805462E480178B8
:2011800000290ED02D480088301A00B204F0FEF9284903F05FF80146606802F0B2FA60603C
:2011A00001E0019901701A4F24480680787D012818D1234C2168284602F0A3FA2060124C0E
:2011C000F98A4A1C91B2FA828A087D2A0AD30646084604F0C3FC0146304603F00DF9E0600E
:2011E00000207875E168284602F086FA206001206075A075134800210160019C04F08AFE38
:201200003861204605B0F0BDCC082020030A2020E4082020780920200100404001AD0000F0
:20122000AA060101B4092020E4092020E60920207C092020CDCCCC3DFC0920206609202048
:2012400074092020D00920200BD7A33CF0B591B00F90012548000D90400D5C00670D5940B1
:201260001095EE070E40AB494D1E44198C4200D203E17C198C4200D2FFE0049610990C05DE
:20128000611E00910B400025E9430E91A449019423430C93C01B40180290401C0390D002F6
:2012A0000A90500DD9020B9247189E48C41B3846294622462B4604F089FC484229462246FB
:2012C0002B4604F083FC4900C00F4418204629463A462B4604F07AFC4A42204629462B46B4
:2012E00004F074FC4900C00F4418204629463A462B4604F06BFC4A42204629462B4604F02F
:2013000065FC4900C00F4018441E3846294622462B4604F05BFC06460F460A98294622466F
:201320002B4604F053FC70186F411099081A0A902A46BA41204629462B4604F047FCC20FA3
:2013400049008918099146000A98294622462B4604F03CFC4A00C00F8018CF0F3418099930
:201360004F41E13C0994AF410F9AD00F0D9909180691520008920E98401E0D902E46AE415D
:2013800008463040034607902046294604F01EFC0A910698C043614AD1430143521A05928A
:2013A0002C466C4109982946234604F00FFC0690099138462946089A079B04F007FC0890A6
:2013C000079138462946059A234604F0FFFB05900A9A069BD0182B466B41079F3E400D9CE6
:2013E000089A224082185E41059838186941099A80186941841969410E98401C47486841B3
:2014000081424BD2002201988142109800D310460F9B01D3039A029281401F2242406708FB
:20142000D7400F4384405E05204639460B9A0C9B04F0CCFB40428E4102994A1E3449491EF8
:201440008A423EDC012A48DB00990F401205C10F73005B1840001099214040183A430499E7
:201460000A430021651C51410B9E301A0C98984100D3254644D3114642E0002F28D0244919
:201480008F4204D0002823D0884200D0F5E62248064300253146284611B0F0BD6008CA07B3
:2014A00084184F080F980605204639460B9A0C9B04F08CFB40428E41039A1549491E8A425C
:2014C000C0DD1548049901430025284611B0F0BD00252946284611B0F0BD002A13D10E990B
:2014E0004C400E494F4027430DD1019A56403043294605D1049911430025284611B0F0BD57
:20150000284611B0F0BD2946284611B0F0BDC046FF07000002F8FFFF0000F07FFFFF1F0014
:20152000FE03000033F30475F0B585B0A34EA44AA44F0120440604900105A34D10681F23B0
:201540001B0698431060032042040020039104F0CFFB9948076042273068204200D083E066
:20156000284604F019FD306820427DD1284604F013FD3068204277D1284604F00DFD3068F3
:20158000204271D1284604F007FD306820426BD1284604F001FD3068204265D1284604F019
:2015A000FBFC306820425FD1284604F0F5FC3068204259D1284604F0EFFC3068204253D128
:2015C000284604F0E9FC306820424DD1284604F0E3FC3068204247D1284604F0DDFC306886
:2015E000204241D1284604F0D7FC306820423BD1284604F0D1FC3068204235D1284604F0AB
:20160000CBFC306820422FD1284604F0C5FC3068204229D1284604F0BFFC3068204223D1E7
:20162000284604F0B9FC306820421DD1284604F0B3FC3068204217D1284604F0ADFC306815
:20164000204211D1284604F0A7FC306820420BD1284604F0A1FC3068204205D1284604F03A
:201660009BFC163F00D077E75548806902900498020400200190039904F03AFB4E485149F0
:20168000016042273068204200D083E0284604F083FC306820427DD1284604F07DFC3068B7
:2016A000204277D1284604F077FC3068204271D1284604F071FC306820426BD1284604F008
:2016C0006BFC3068204265D1284604F065FC306820425FD1284604F05FFC3068204259D1A5
:2016E000284604F059FC3068204253D1284604F053FC306820424DD1284604F04DFC306809
:20170000204247D1284604F047FC3068204241D1284604F041FC306820423BD1284604F097
:201720003BFC3068204235D1284604F035FC306820422FD1284604F02FFC3068204229D164
:20174000284604F029FC3068204223D1284604F023FC306820421DD1284604F01DFC306898
:20176000204217D1284604F017FC3068204211D1284604F011FC306820420BD1284604F027
:201780000BFC3068204205D1284604F005FC163F00D077E70A488169173502984543284674
:2017A00003F020FE094940180F2801D301980490049805B0F0BDC0462C030B4004020B4067
:2017C00038010B400100000ED103000043F6FFFFF0B593B00F900492002A00D144E1002B03
:2017E00000D141E118980990002800D13CE10E935818129004980B460F99421818461093F4
:201800001E4604E0761C30B21299814233DD072331461193194001238B40C008C00193499C
:201820000D18D8430F9B1F4603E0DB1C1FB2BA42E8DDB1B23F2905D89CB27F2C02D8EC5D29
:201840000440EC555C1C27B2BA42DBDD3F2905D8A4B27F2C02D8EC5D0440EC559C1C27B27F
:20186000BA42CFDD3F29E0D8A1B27F29DDD8E95D0140E955D9E70E98401E1290109A500FBC
:201880001018C51011998843101AD41329190391110B082211400F18D61B0498401E032122
:2018A000029003F09FFD4B1C0022032B009300D113461298C0080190B8B21190B0B2109083
:2018C0000498C01A0E90E801E10140180F994018664C201812900A93581E0B900398C0013B
:2018E000401820180790059210460FE0069B581C0499099A521809921299803112910799EC
:201900008031079101998B4200D1ADE00146039806914218551C02980228059958D30021C7
:20192000099F03E0C91C0E9888424ED00F9840187F2814D8072A06D87C5C119B9C40129BFB
:201940005E5C26435E54072D09D87C5C109BDC40129B5E188027F35D2343F355099F431C2F
:201960007F2B17D8072A08D87B185B78119CA340129C641866781E436670072D0AD87B18DF
:201980005B78109CE340129C64188126A75D1F43A755099F801C7F28C4D8072A08D878184A
:2019A0008078119B9840129B5B189C7804439C70072DB7D878188078109BD840129B5B18F6
:2019C00082241E5D06431E55ACE7009803288DD00F984618099840180D90079840180C9049
:2019E000059C089603E0A41CA74200D17EE737197F2F16D8072A07D80D98035D1198834079
:201A00000C99085D18430855072D0AD80D98005D1099C8400C990B198026995D01439955A4
:201A2000089E0B98A04200D160E7781C7F280A9FD9D8072A09D80D980019407811998840D4
:201A40000C9909194B7803434B70072DCBD80D98001940781099C8400C9909198123CE5C68
:201A60000643CE54089EBEE713B0F0BD00002020F0B589B076480078012800D0E5E0754871
:201A8000007800286FD004F09FFA054604F0A0FA074604F0ADFA059004F0AEFA049006A8A6
:201AA00003F0CAFF04F0D2F904F028FA00906A4B0026062430463146224603F063FF2868C6
:201AC000396800900191654B08213046224603F059FF6868796800900191614B102130461B
:201AE000224603F04FFFE86803F034FE0546F86803F030FE009501905A4B1821304622461A
:201B000003F040FF049F386803F024FE0546786803F020FE00950190534B2021304622461C
:201B200003F030FF059DA85F0221695E009001914E4B28213046224603F024FF0420285E4E
:201B4000295F2A7A00AB07C3494B30213046224603F018FF0698079900900191454B3821CE
:201B60003046224657E004F03FFA044604F06EF904F0E8F90090404B002606253046314650
:201B80002A4603F0FFFE04F0CBF900903B4B082130462A4603F0F6FE04F0C8F9074604F02B
:201BA000CBF900970190364B102130462A4603F0E9FE2088618800900191324B18213046E8
:201BC0002A4603F0DFFEA088E188009001912E4B202130462A4603F0D5FE20896189009089
:201BE00001912A4B282130462A4603F0CBFEA089E18900900191264B302130462A4603F0A3
:201C0000C1FE04F07BF92921615C00900191214B382130462A4603F0B5FE1F4C2678F543E2
:201C2000F10000208022082302F068F904F0AEF907490870701C072101402170680704D146
:201C4000044A107801214140117009B0F0BDC046FD092020000A2020926D0000826D0000A0
:201C6000526D0000726D0000736B0000DC6D0000626D0000206D0000FC6D0000D16D00009C
:201C8000EC6C0000AD6D0000C56D0000B96D0000A16D0000316D0000FF092020F0B5A5B08C
:201CA000059308920D46074600260A967A4C3246234603F03BF8002800D12C46354600D108
:201CC0003D46284621463246334603F01DF846424641002807D10AAA2846214602F0E6FF44
:201CE0000A98401E0A900898007B0BAF412801D06B4800E0694809900898806801903020F5
:201D0000049038700022284621460292134603F004F80121002801D0C80744400391781C1E
:201D20000790002E0DD024AA2846214602F0BEFF249801210A1A2846214601F06FFC054631
:201D40000C462846214603F08DF90646079903F08FF80690304603F09BFE02460B462846DE
:201D6000214600F037FC04460D460198471C20D3079806994618002220462946134602F06F
:201D8000C3FF002848D1002220462946454B04F043F904460D4603F065F90999095C771C01
:201DA000317003F075FE04F0FCF804460D463E46E1E70BA806994618002F16D07F1E0022C7
:201DC00020462946374B04F027F904460D4603F049F90999095C3246761C517003F058FEAB
:201DE00004F0DFF804460D46E6E73178099C204604F049F8001B08280EDB0196741E089DC3
:201E0000029F099E2178304604F03DF8801B0E2805DD2770641EF5E7089D029F04E00999CE
:201E2000081840782070019E37700A98297B4129059C01D0702100E05021069E079F22463E
:201E400003F099F8AA68501C04D1384604F04EF8421EAA6038463146234603F07BFDA868B0
:201E60000028039A02D128680007C20F38463146234602F0F5FD287B412801D0782000E0CB
:201E8000582021684A1E226008702068411E21600499017025B0F0BD0000F0FFFE6C00008E
:201EA0000F6D000000003040F0B5A3B01E460F46044603929168002903D0002904D5062188
:201EC00000E001210398816007910AA83021089101700022204639460992134602F01DFFD6
:201EE00001210028049101D0C8074740634D20463946614A2B4602F02BFF00280BD00022EA
:201F0000204639465F4B04F083F804460F460998401C0990EBE70025204639462A462B46D1
:201F200002F0F2FE002813D1002220463946544B02F0F3FE00280BD0002220463946514B84
:201F400004F06AF804460F460998401E0990E3E702960AA8461C2046394603F083F8059690
:201F6000314602F085FF07998842019004DD481C0AA90B18085C20E0C9430E180AA90B18F2
:201F80000793581C06902046394603F06BF803F07FFD02460B462046394600F01BFB00224D
:201FA000384B04F039F804460F4603F05BF8069B303007994870761CE2D3C0B23528029E85
:201FC000039F0DD3581E0178491CCAB201703A2A03D330210170401EF5E70AA9884241D07A
:201FE000099801990C181D700220C043844202DBB868844207DD601E397B891EC9B2324697
:2020000002F0B9FF0124059803F070FF401E0499A0421ADB0028089A01D4059A125C13461B
:20202000303B5D1EAB41C9431943C90705D13978090702D40025049905E031684B1E3360ED
:202040000A7001250021401EE2E73868082202402A43501E824105982146334602F000FD82
:2020600023B0F0BD581E00210170099801990818441C0AA80590B7E70000C0FFFFFFDF415B
:202080000000F03F00002440F0B58DB007920890002201260B9149004F0D5900490D0C91C4
:2020A000694C651E09977919A142314600D31146F7070A971F460B9847400C984519A5421B
:2020C000344600D314465F4D0A980740214301290AD10C98002800D184E0A8427BD0099884
:2020E00000287FD0A84276D00096069700260125079A500DD90208180590D0020390314650
:20210000089C2246334603F061FD049007910195EF0705980743384631462246334603F081
:2021200055FD089005910B98C0434949CA4302438A1A02923446744103983146234603F0C0
:2021400045FD05460B913846049F3146029A234603F03CFD3F4A17401540079AAA1833467C
:2021600073410B9C20187141059C00197141089C121958417141099B0C9CE318CC0221D48A
:20218000354C1B19C40F490009194000D40F0019FC0F520012197D002A4C641EA342069F89
:2021A00019DC019C2405002B21DD641E21401B050B43194639436B420A9C2346934126D287
:2021C000401C2AE0244C1B195B1C1E4C3D46641EA342069FE5DD1D480743002639463046F9
:2021E0000DB0F0BD0026314630460DB0F0BD1B4D6940C043002A15DB0843002B009916D0D5
:20220000002817D0009800283146E8D117E06240154303D1019A0240801871410646304611
:202220000DB0F0BD01960843002B0099E8D101990028E7D10091009800283146CFD1274389
:20224000CBE7C046FF07000002F8FFFF0000F07FFFFF0F0000F8FFFF01FCFFFFFFFF1F003E
:20226000F0B589B0049105901178002900D1D3E01D461646002427460393029248B2002884
:2022800012D5E0200840C02824D0F0200840E0282FD0F8220A40601CF02A41D081B2715CC9
:2022A00000290446EAD1B7E007A80170002242700598381800B2062D00D19CE0082D00D041
:2022C000A3E00901574A5118574A891800910822102397E0601C07AA117080B2305C00282C
:2022E00000D199E00697A41C07A948700020887030E0601C07AA117080B2305C002800D142
:202300008AE0A11C07AA507088B2305C002800D182E00697E41C07A988700020C87019E06E
:2023200007AA117080B2305C002875D0A11C07AA507088B2305C00286ED0E11C07AA907038
:2023400088B2305C002867D00697241D07A9C87000200871314E307800282BD0002707A9D8
:20236000304602F005F8002824D0781C80B2252568432A490E18085C00281BD007A93046EB
:2023800001F0F6FF002815D0B81C80B2684323490E18085C00280DD007A9304601F0E8FFA0
:2023A000002807D0FF1CB8B245431C484619405D0028D4D1039D062D0ED0082D069F18D170
:2023C00005983818711D009100B2102204991346FFF7FEF910370CE00598069F381810490C
:2023E000BA31009100B2062208230499FFF7F0F9BF1D029E0BE006225143094B5918C039FF
:20240000009108230499FFF7E3F9641C7F19A0B2315C002900D031E709B0F0BD706A000049
:20242000306600004060000000FEFFFFF0B583B0664801250570019503F0FCFBAE2002F009
:2024400075FBD52002F072FB8020044602F06EFBA82002F06BFB3F2002F068FBD32002F0BA
:2024600065FB0026304602F061FB402002F05EFBA12002F05BFBC82002F058FBDA2002F045
:2024800055FB122002F052FB812002F04FFBCF2002F04CFBD92002F049FBF12002F046FB03
:2024A000DB2002F043FB302002F040FBA42002F03DFBA62002F03AFB8D2002F037FB142094
:2024C00002F034FBAF2002F031FB4148A902054603F04DFCB02002F029FB1027384602F0A6
:2024E00025FB304602F022FB2846214600F0DAFEB12002F01BFB384602F018FB304602F0D6
:2025000015FB803528462146254600F0CBFEB22002F00CFB384602F009FB304602F006FB55
:20252000019C20022A490818294600F0BBFEB32002F0FCFA384602F0F9FA304602F0F6FABB
:2025400003200290C00122490818294600F0AAFEB42002F0EBFA384602F0E8FA304602F00E
:20256000E5FA60021A4C2018294600F09BFEB52002F0DCFA384602F0D9FA304602F0D6FA6C
:202580000520C0012018294600F08CFEB62002F0CDFA384602F0CAFA304602F0C7FA0298AE
:2025A00000022018294600F07DFEB72002F0BEFA384602F0BBFA304602F0B8FA0720C0015F
:2025C0002018294600F06EFE03B0F0BDFE09202000002020FCB40124E407634002E0FCB41C
:2025E0000124E40708B41D03ED08D60D354356025F007F0D06D12C00344300D0AEE001B0D3
:20260000FCBC7047A408254307242402FF34A74205D10020190D090501B0FCBC7047002B55
:2026200003D50024A61BAC4125000B03DB08C20D134342024800400D07D11C00144300D0C1
:202640008CE00EBC1000F0BC704701246407234307242402FF34A04205D10020090D09055B
:2026600001B0FCBC7047002903D50024A21A9C412300C11B08D51C002B00250014003200EE
:2026800026000024611A3800362925D502B4393949420C00203C03D22F008F40374301E09B
:2026A0003700A740002F01D040210E4302BC20290BD500290ED04C42203420B4A5402C0095
:2026C00020BC0D41CE40361904E000292E000D4120390E4192196B411C0014433ED0002446
:2026E000002B04D5012400218A1A99410B00401E52005B41FBD50121890215000D400CD000
:20270000521800277B4101D3401C0BE00721C90115000D4001D189008A43072109028A43D5
:2027200052005B41801C19DD07210902FF31884209D30EBC0020C90F0902FF31C900C91D64
:202740000905F0BC7047190B00050143E40721431805120B104301B0FCBC7047002100205E
:2027600001B0FCBC7047F0B589B017460D460446002607931846314602F006FB002810D1D0
:202780002846394600F0B8FF3021615C0129089009D1216900F0B0FF079901F02DFE0646CA
:2027A00005E0A76987E02246303201211170E56A67697F20C005294600F09EFF0146304614
:2027C00001F048FD06462846394601F043FD314600F097FF05906061E5680898079901F088
:2027E00039FD0495294600F08CFF0646656AA16A069102F0DBFA07463046294602F0BBFAC3
:20280000002800D13546002F00D10695266860680290069901F01EFD054603963046089E16
:20282000314601F017FD294600F06BFF0546A0680190059901F00EFD294600F062FF0546CA
:20284000276A394602F0A0FA002806D0E1692846079102F0A2FA002819D10021304602F065
:202860008AFAE1690791002805D02846394602F09DFA00280BD10021304602F097FA002839
:202880001CD02846079902F076FA002816D00698E0602846394602F089FA06462846079934
:2028A00002F069FA002800D10795002E00D1079FA76108982061384609B0F0BD0298049945
:2028C00001F0C8FC05460398314601F0C3FC294600F017FF05460198059901F0BBFC294628
:2028E00000F00FFF0546D4E7F0B585B000280DD0424A8B185B1E934208D3414F414B3A88BF
:202900001B88D21A404B9343994206D943480168491C0160002005B0F0BD03903B4A3C4B32
:202920001868104018603E8804914C1E0321204602F058FD4A1C0021032A104600D1084690
:20294000022C02D2039B304A21E0029204990190091A04910021039B2B4A5F185D5CB4B218
:2029600018462C4B1D55741C14407D781D55B41C1440BD781D550346F61C1640C91C049CC4
:202980008C42EAD1029C032C1D4F019811D05918204D0B78B4B22B55731C1340012807D0D2
:2029A0004C78EC54B61C1640891C801EF1D100E01E463E80134C20883988884210D0154617
:2029C00015481449026812060AD422888A5C82612288521C2A40228022883B889A42F1D13B
:2029E00022883B880A4C2168084801400120D21A00D0C2021143216005B0F0BD01FEFFFF25
:202A0000F2092020F6092020FF010000FFF7FFFF281010400004202008111040D8092020F2
:202A2000F0B585B01D46164630210290009101700024104619462246234602F06EF90028ED
:202A400002D00120C00745400B9801900A9804903E4F304629463C4A3B4602F079F90028C8
:202A600009D00022304629463A4B03F0D1FA06460D46641CEDE70027304629463A463B4633
:202A800002F042F9002811D1002230462946304B02F043F9002809D00022304629462D4BCF
:202AA00003F0BAFA06460D46641EE5E70298401C03900498001904903046294602F0D2FA0D
:202AC000039902F0D5F9039909180019019A10600498441C012C1ADB04913046294602F02F
:202AE000C1FA02F0D5FF02460B4630462946FFF771FD0022174B03F08FFA06460D4602F0E2
:202B0000B1FA3030049A511C1070641EE4D1481E0278352A0DD3891E009C0A78521CD3B211
:202B20000A703A2B02D30C70491EF6E7029A914203D00770039805B0F0BD077001990868EA
:202B4000401C08600298F6E70000C0FFFFFFDF410000F03F00002440F0B581B00146424A21
:202B6000507A02280FD0012806D0002820D100200A2917D001B0F0BD03290BD102205072E6
:202B8000032050701AE0042904D1032050720420907013E0354883685B1C836000200A2945
:202BA000014602D10A2111700121517201B0F0BD431C53721154507A092802D2002001B0E3
:202BC000F0BD002050721178FF2359404C0028490C5B5578260A6540AB435B00CB5A5E4050
:202BE00094781D0A7440E3B25B00CC5A6540D378260A00935D40ECB264000D5B6E401479E3
:202C00002F0A6640F5B26D004E5B77405579330A6F40FEB276008F5B7B4096793F0A7340D1
:202C2000DBB25B00C95A7940D379127A1202D2188A4213D10098000200190E49088028028E
:202C400080190D4908800D480168491C016007480168491C0160012001B0F0BD03494A687E
:202C6000521C4A6001B0F0BD5C092020E408202070680000E4092020E6092020B4092020DC
:202C8000F0B585B002460020002A78D00B46203B1E24E443A34272D33A4B1E883A4B1B88EE
:202CA000F31A1F252C469C43A14268D80392374A374F38681040386004914C1E03212046A2
:202CC00002F090FB4B1C0021032B184600D10846022C039A1FD3029304990190091A04910C
:202CE00000215718545CB3B210462A4AD454731C2B407C78D454B31C2B40BC78D454024649
:202D0000F61C2E40C91C049B8B42EAD1029B032B1F4F019811D051181E4A0B78B4B2135552
:202D2000731C2B40012807D04C78D454B61C2E40891C801EF1D100E01E46124C2680124EC0
:202D40003088218888420FD013481249026812060AD432888A5C82613288521C2A4032808C
:202D6000328823889A42F1D1328823883968074801400120D21A00D0C2021143396005B077
:202D8000F0BDC046F0092020F4092020FFF7FFFF28901040AC08202008911040F0B536490D
:202DA00008390968CAB2122A64D801210B469340324C23421DD0324832490A68521C0A6018
:202DC0000168490756D43049304A324B304C05E00F88E5550E8005686D074BD4C5690E881C
:202DE000761CF6B21788BE42F2D11D686D1C1D60F1E70B2A24D00C2A3CD1274A1488274BE9
:202E00001D88AC4210D01E4C254D264E27683F060AD41788EF5DA76117887F1C3740178002
:202E2000178818888742F1D110881B88124C2268C9028A43C31A00D119460A432260F0BD84
:202E40000F480168490715D40F49104A114B104C05E00F88E5550E8005686D070AD4C569DE
:202E60000E88761CF6B21788BE42F2D11D686D1C1D60F1E7F0BDC046281010402C00040052
:202E80000811104084092020EA092020EE09202000062020CC092020F6092020F2092020BD
:202EA00000042020FF010000F0B5394A8218394BC0183A4D4C790B79002C22D0466F202BC2
:202EC00002D00524E70100E0354F2E40002B00D188273E434667846F2C403C438467446BEC
:202EE0002D4E34404463846B3440846300244465846554688F26F6433440546094683440FA
:202F000094600C688979202B09D006467036002B15D1641E4460C46E2C40882715E0641E36
:202F20004460C46E2C401E4E3443C466046F2C40344304671B4D01246707064607E0052727
:202F4000FF0164084460C46E2C403C43C46634682C403C433460C46A0F4D2C40C462046B74
:202F60002C4004630024C4640465C46F8F25ED432C40C46714682C401460194302680A4BA4
:202F80001340BD220A40D118891C0160F0BDC04684180000041800008888FDFF24493E00A4
:202FA00001040000FFFFFFCF4000FFCFF0B5002861D005463149324B324A107800240128A1
:202FC00020463ED130480078012821D12F48007800281DD00120304E37682F8077686F80B2
:202FE000B668AE802D4E3768EF8077682F81B7686F81F768AF813669EE81294D2E68761C23
:203000002E601D6805431D600D6805430D6018E01F4805686D1C0560052D2CD3186801251D
:20302000EE4330401860086830400860186828431860086828430860164805686D1C0560D0
:203040000020114D2C70114D2C70114D2C60154D2E680124A70237432F60134D2E68270383
:2030600037432F605D68260235435D604B6833434B601470F0BD0020F0BDC04600310040DC
:2030800000110040FB092020F8092020F9092020E0092020B80920208062554080825540E0
:2030A000800920204810004048300040B0B53A4A80184A6842600A78222A56D8930001A4EE
:2030C000E3589F46613100006B310000613100006B3100006B3100006B3100006B310000A0
:2030E0006B3100006B3100006B3100006B3100006B3100006B3100006B3100006B310000F0
:203100006B310000513100006B310000513100006B3100006B3100006B3100006B31000003
:203120006B3100006B3100006B3100006B3100006B3100006B3100006B3100006B310000AF
:203140006B310000513100006B31000051310000036803242407A343012464071B1903E0E9
:20316000036803242407A34303600B69C360CB68C46A0A4D25400A4C1C402B19C36203680F
:20318000084C1C400460097A114302683F239A43194051180160B0BD041800008888FDFFE3
:2031A000777702007F00FFFFF0B59FB003930E46054604929168002902D506210498816046
:2031C00002910024344F2846314622463B4601F0ADFD002800D13746264600D12E463046AF
:2031E00039462246234601F08FFD002820D100242A4D02F0E3FE01F090FD002809D00022DA
:2032000030463946264B02F007FF06460F46641EEFE7234D02F0D2FE01F091FD002807D0A7
:2032200002F0CCFE02F0F4FE06460F46641CF1E7029905A80091019006A832463B46FFF7EE
:20324000EFFB0646059F022F049D08D1641C304602F04CFE3018401E002101700127297BB3
:203260002046039C224601F086FEAA6830463946234602F06FFB304602F038FE874203D165
:2032800028680007C20F00E0012230463946234601F0E6FB1FB0F0BD0000F0FF0000F03FF9
:2032A00000002440F0B585B00F4605460124204602F07AFC0394204602F064FC0026304652
:2032C00002F072FC304602F05DFC782000F0E8FA2B4C217801402170402000F0E1FA2178BD
:2032E00001402170002F3ED00497781E032102F079F8491C03290F4600D13746049803280C
:203300001FD301910297C01B04900026AF19A85D00F0C6FA217801402170787800F0C0FA79
:20332000217801402170B87800F0BAFA217801402170F61C0498B042E8D101980328029F25
:2033400011D0AD19287800F0ABFA217801402170012F08D0687800F0A3FA21780140217046
:20336000AD1CBF1EEED1002002F01EFC039C204602F008FC204602F017FC05B0F0BDC046EE
:20338000FE09202070B52C4984204861012253032A4803600B464C3B85241C60D407284B66
:2033A0001C60284CE51C0E46083E35600E1F35600D46103D82262E600D460C3D2C600D46DA
:2033C000203D2E600D461C3D2C600C46343C812525600C46303C25600D611B4C65630E46A9
:2033E000583E3560194D4D622560194C0C600D680D604C604C684C601946303912070A60FE
:203400001A46403A03210C031460124A1A600246303A114B13600360104802680F231B045E
:20342000134303600E48026A09020A43026202680A43026070BDC04664804240D0320A4057
:20344000D0120A40820004008C8042408100000281000C00003000100310100090330A40AC
:2034600028300A40F0B5BDB002F0BEFD074602F0ABFD064602F0ACFD0F9002F0B9FD05468B
:2034800002F0AAFD044602F0ABFD139002F05AFD149002F033FD1290386A264900F0DAFE82
:2034A00002F058F91190F06802F054F910900F98C06802F04FF90F900420285E0E900620DB
:2034C000285E0D9029203E5C607D0C9060681A4D294600F0BFFE02F03DF9074620682946B6
:2034E00000F0B8FE02F036F913994968089709900A911298009011980190109802900F9880
:2035000003900E9804900D98059006960C9807900A4A15A8A021149B01F036FE012806DB1D
:2035200001469F2800D39F2115A8FFF7DDF93DB0F0BDC04600007A4400002041816C0000B5
:20354000F0B584B03049314A0125AC0316682B0203939E4316600E68264205D10E6826429F
:2035600002D10E682642F6D06C02467E9769AF432E40BD1995612025455DD6690327BE4325
:203580003D407519D561224D2E680727374005262E60466A33681362736853622F60C3697C
:2035A0005B065B0CD5697F263602B543EB18D361E8C8009707680197476802971B071B0B1B
:2035C0002D03ADB2ED1833071B0D007A009E35431D43019B1D43029B1D43054390690D4B73
:2035E00003400D482840C01890611068039B184310600868204205D10868204202D1086864
:203600002042F6D004B0F0BD04020B4008010B40001340408D00F0FF72FF0F00F8B51546E5
:203620000C462B4E0A0D771C3A402A4B9A4213D0002A1AD10122D2079143014345D0002207
:20364000254B214602F0E8FC0C4624498D4209DC234A244B214635E0214602462346FEF7E5
:20366000BEFF31E0220D3A40363A5119B1420ADD02F0D6FC222101600120C00704401D4826
:203680002418002021E0012904DB174A1440090564181AE03522D24391420ADC02F0C0FCB8
:2036A0002221016012488542E6DA0120C0070440E7E70D4A144009051B2252058918214339
:2036C00000220A4B02F0A8FC0C462146F8BDC046FE070000FF07000000005043AF3CFFFFE2
:2036E00059F3F8C21F6EA501FFFF0F800000903C51C300000000F07FFCB40127FF0779401E
:2037000002E0FCB40127FF070C024D002D0E03D1002C52D1FCBC70473C43FF2D50D0A4084A
:20372000002900D56442020243001B0E04D1002A43D10800FCBC70473A43FF2B41D0920899
:20374000002800D552425E1B04D5170022003C0076422B00192E06D527003741D2191C273F
:20376000F71B7F42BC40002A27D002D55242012700E00027013B5200FCD515008026354030
:203780000FD01500202635402C43803208D21500402635402C4304D101263602B24300E017
:2037A0005B1C5200023308DDFF2B0BD2500ADB051843FF073843FCBC70470020FCBC70470B
:2037C0000800C70FFF07FF20C0053843FCBC7047F0B52948014608390968CAB2122A09D88F
:2037E00001210B469340254C234204D024480168491C0160F0BD0B2A23D00C2AFAD1214AFD
:203800001488214B1D88AC4210D0204C204D266836060BD41688AE5DA6611688761C1F2785
:203820003740178016881F88BE42F0D114881B880268C9028A43E31A00D119460A43026057
:20384000F0BD124801684907D4D41249124A0C4B124C05E00F88E5550E8005686D07C9D4D2
:20386000C5690E88771C3F263E401788BE42F1D11D686D1C1D60F0E7289010402C00040013
:20388000C8092020F4092020F009202008911040AC082020E8092020EC092020A007202077
:2038A00070B50646C00902F07FF90124204602F069F90025284602F065F940203040800949
:2038C00002F072F9204602F05DF9284602F05AF920203040400902F067F9204602F052F93C
:2038E000284602F04FF910203040000902F05CF9204602F047F9284602F044F90820304063
:20390000C00802F051F9204602F03CF9284602F039F904203040800802F046F9204602F0DF
:2039200031F9284602F02EF902203040400802F03BF9204602F026F9284602F023F926407D
:20394000304602F031F9204602F01CF9284602F019F9204602F028F9204602F013F902F027
:203960006BFA06466640284602F00CF9304670BDF0B581B0234B244E01277C022348002100
:203980000160321F10680F21090288430019009210603046083801680322D2430A400260D7
:2039A0003068B84330603068184030601848FFF7C7FDFDF7B9FD00280BD0009A106810215A
:2039C0000143202081431160002001F045FC01B0F0BD104D03E0FDF7A7FD0028EDD1306828
:2039E000084908403060306839020143316028682042F0D128682042EDD128682042F6D0DB
:203A0000E9E7C046FFFEFFFF08010B4008030B40B06C000004020B40F0B58B4200D18242B7
:203A200004D90B0002000021002040E0002B00D1002A0CD10B00020000210020002B00D1EE
:203A4000002A01D0C943C04300F00FFE2FE01C0015000B0002000CB4002126002F00FF19C4
:203A6000764102D2491C4029F9D100201E001700FF19764102D2401C4028F9D10E1A210054
:203A80002800320002F016F90C0005000CBC00200021A34200D1AA4201D3521BA341404169
:203AA00049416D08E7073D436408761EF1D5059F002F01D03A607B60F0BD704770B51E48CB
:203AC0000068022836D11D4A1046103801680320000208402ED0136803431360184A126864
:203AE000D30902241C409205D20FA218154B1C78A4001419E5B2144C64571E78B24208D05D
:203B00000126AE40114D354003D0114D2E68761C2E60104D2E6834192C601A70C90503D5DA
:203B20000D490A68521C0A60400A03D00A480168491C016070BDC0463011404048300A4091
:203B400080330A40010A2020426D000069960000C4092020BC092020C0092020F0B583B07C
:203B600004462920085C01282AD1134601940A6A1B4802600120C40762401D4800270E4695
:203B80003946FEF7F0FD0546366A3046394601F0F2F80028029400D066401649304600F010
:203BA00059FB1549FFF7ADFD0746104E314601F0E2F80028019C00D13E46029845400AE0A3
:203BC00007480068002101F0E8F8002801D1064D00E0044D054E2660656003B0F0BDC046BA
:203BE0008C092020000052C3000052430000C842140820200000F0C200007A43F0B583B099
:203C0000029314460D46064608461146FFF779FD0746306028462146FFF76EFD0546019610
:203C200070603E4600243846214601F0A4F80121CF070028009600D07E402846214601F090
:203C40009AF8002801D12F4600E06F40029C3846314601F0ABF8002800D137463846214652
:203C600001F0A4F8002815D00021384601F09EF800280FD02046394600F0BEFB044600980D
:203C8000214600F0E7FA019E30602846214600F0E1FA706003B0F0BD002A49D084468B074E
:203CA0001CD1830722D1102A08D370B4103A78C978C0103AFBD270BC103238D0042A2CD3E4
:203CC000082A05D30C2A01D308C908C008C908C008C908C092072AD0920F22E00B780370D9
:203CE000491C401C521E22D08B07F7D1C30714D18307D8D0121F12D308C903801B0C438012
:203D0000001D121FF8D20AE008C903701B0A43701B0A83701B0AC370001D121FF4D2121DD2
:203D200005D00B780370491C401C521EF9D160467047FEE770B519480168194A1368012489
:203D4000A3431360151F00232B60164D2B80164D2B60156825431560144C02222260BFF31A
:203D60004F8FBFF36F8F124C2568032636022E432660104C2360104C2360104C2360104B7A
:203D80001B68DC0914409B05DB0FE3180D4C23700D4B1A60890700D5026070BD00E100E06F
:203DA00004180940720920209409202080E100E048300A40BC092020C0092020C4092020E8
:203DC00080330A40010A202080E200E0F0B5184A00211170174B197017480170174C216011
:203DE000174D2960174D2960174D2960174D10262E6020272F60164D2E602F601170197074
:203E00002160144A136801218C021C431460124A13680C031C431460104A13680C022343C3
:203E200013600F4A1368234313600170F0BDC046F8092020F9092020FB092020E00920204E
:203E400080092020B8092020DC09202080E200E000E100E0481000404830004004110040CB
:203E60000431004080B51849002008700872C871887148710871C8708870487048721349C3
:203E8000086048608860C860086148611049086048608860C860086148610E4908800E492F
:203EA00008800E4908600E4908600E4908800E4908700E4908600E4908600E49086000F021
:203EC000C7FE0D49087080BD5C092020CC082020E4082020E4092020E6092020B4092020D4
:203EE0007C09202066092020FC092020D00920207809202074092020030A2020F0B583B04D
:203F0000002A41D0002B3FD01218C417A043802A00DB8022824237DDCC13072525404D196F
:203F20002DB2ED10CB185B1E5E0F9B19DF102E19002900DB7F1CB74226DD14490918029146
:203F4000C1B20909103101910F250540101AC0B20090344603E0761C34B2A74214DDB0B253
:203F60000728F8D8B0203043C0B200F0DFFD019800F0DCFD284600F0D9FDE001029908188F
:203F80000099FFF78FF9E6E703B0F0BD00002020174802210160BFF34F8FBFF36F8F15481D
:203FA000026803231B0213430360134A00201060124A1060124A1060124A1268D3090B4019
:203FC0009205D20F9A18104B1A70104A1160104A116010490A6801239A430A600A1F10606D
:203FE0000D4A10800D4A1060086818430860704780E100E048300A40BC092020C009202018
:20400000C409202080330A40010A202080E200E000E100E00418094072092020940920204B
:20402000F0B581B01C491D4C204601F07DFE1C492046FEF739FF1B4801681B4A0A40026035
:2040400000250095204629462A462B4601F0AEFE204629462A4601F059FE7D20460120467C
:2040600031462A4601F022FF01270097204629462A462B4601F09AFE204629463A4601F003
:2040800045FE204631463A4601F010FF074887600321016001B0F0BD6D68000000008740CB
:2040A000186E0000041887407F00FFFF0011874010B51C491C4C204601F0DCFE1B492046B5
:2040C00000F0F6FF1A4801680322D203914301600169184A0A401532026141692D220A43FB
:2040E00012218A434261426801210A4043688B439A184260104A13688C021C43146002689A
:204100004B0413430360C26870231343C360C2680223134305229343C36002680A43026083
:2041200010BDC046AE6C000000001040E86D0000001110400000FFFF2810104010B51C49DC
:204140001C4C204601F096FE1B49204600F0B0FF1A4801680322D203914301600169184ADD
:204160000A401532026141692D220A4312218A434261426801210A4043688B439A1842607F
:20418000104A13688C021C43146002684B0413430360C26870231343C360C268022313439C
:2041A00005229343C36002680A43026010BDC046206E000000801040F26D00000091104055
:2041C0000000FFFF2890104040B542004B005E08164301D006004E4000D4D01A04D201207E
:2041E000C90F06D1404204E003D90120C90F00D04042FF263606B24200D8B34200D9012067
:2042000040BD40B542004B005E08164301D006004E4000D4D01A04D20120C90F06D1404215
:2042200004E003D90120C90F00D04042FF263606B24200D8B34201D90120404240BD420095
:204240004B000020FF2109068A4200D88B4200D901207047FCB40127FF0706004E4001D45B
:20426000002600E03E00020243001B0E30D03A43FF2B30D00C024D002D0E29D03C43FF2DA9
:2042800029D05B194240504042404C4061404C4000B501F099F920BCAE46424050404240C8
:2042A0004C4061404C4025001400002C01D46400013B803401D3013364087E3B08DDFF2B7B
:2042C00009D2BC43200ADB0518433043FCBC70470020FCBC7047FF20C0053043FCBC704768
:2042E00080B582B001A801F0E1F9002800D13AE001A8007843383528F4D8C04678440079D0
:20430000400087441E1D271D211D241D1D1D1D1D1D1D1D1A2A1D1D1D1D2D1D1D1D1D1D1D36
:204320001D1D1D1D1E1D271D211D241D1D1D1D1D1D1D1D1A2A1D1D1D1D2D00F049FFD1E76B
:20434000D0E701F027FDCDE701F002FECAE701F039FDC7E701F066FDC4E701F05BFCC1E777
:2043600001F00CFDBEE702B080BD01F061FEFEE7024670B50A4392072AD11E4DEE0104C806
:2043800008C9541B9443344017D0D0B2D9B2401A2106014310D190B299B2401A21040143A8
:2043A0000AD110021902000A090A401A2102014302D1100E190E401A70BD9A42DFD010BA23
:2043C00019BA884201D9012070BD0020C04370BD02780B7801300131002A09D09A4207D1B1
:2043E00002780B7801300131002A01D09A42EFD0D01A70BD01010101FCB40127FF070600C8
:204400004E40F60FF607020243001B0E2DD03A43FF2B2DD00C024D002D0E26D03C43FF2DC4
:2044200026D05B1B0020202164085208A2424041A24200D3121B013904D0002A01D0520045
:20444000F4D18840384201D14000013B803001D3013300E040007F3307DDFF2B08D2400A4B
:20446000DB0518433043FCBC70470020FCBC7047FF20C0053043FCBC7047704710B51749EE
:20448000174800F04FFF17484168174B0B4001210A049B1843608368144C1C408B06E31811
:2044A0008360134B00241C6002245C6004249C600524DC6006241C61036813430360C822FB
:2044C00042610C4A136A0C032343136213682343136002680A43026010BDC046106E0000BE
:2044E0000020004000310040FEFFECFFF8FFE0E08031004028300040F0B581B01248134A36
:2045000042601348426013484260134C6260134D6A60134E7260134F7A6013494A601348E4
:204520004260134A084B1A60094B1A60094B1A6022602A6032603A600A600260102001F0EE
:204540002BFD01B0F0BDC04600080A40030000B100280A40000887400008094000480840A7
:204560000088104000081040000800400028004001000026F8B5451C00780023082B32D056
:204580002F78C2070CD16A780F241440E41C122C0BD102242E57F4B2002E08D4EE1C0EE0F8
:2045A0006D1C4A1C0F7011461AE0AE1C08E02E1DED7800957F252C40009DED012C1912341F
:2045C0003D0112095219094DAA420ED0D243002C05D08D5C4F1C0D70641E3946F7E73546B6
:2045E00040085B1CCAE72846C5E7F8BDFF0F0000B0B50D460446401E844101290EDB012114
:204600000022204600F02CFF7D20C000854200D305462046294601F02DF8B0BD002D09D453
:20462000012A17D1012120460A4600F019FF7D20C1000BE000210122204600F011FF6842EA
:2046400081B27D20C000814200D30146204601F011F8B0BD00252046294601F00BF82046CC
:2046600029462A4600F0FCFEB0BD704710B501F069FC0446FFF734FE15480168611A03D4A8
:20468000611C016001F01EF912480168611A03D4611D016000F018FA0F480168611A04D42B
:2046A00021460A31016000F0ADFF0C480168611A04D4214614310160FEF7D4FE08480168BE
:2046C000611A03D464340460FDF7D2F910BDC046A409202098092020A80920209C09202056
:2046E000A0092020F0B581B01A4C207A01282BD1607AC00728D10020215E0422A35ECD1A8F
:204700002721C9438D4200DC0D462822282D00DB15465B19A3800225675F0625665FBF1B24
:204720008F4200DC0F46282F00DB1746F119E180094E327819B2FFF75BFF615F32780120D6
:20474000FFF756FF01B0F0BD0348007800F051FA01B0F0BD680920200C0A202070B50446DE
:20476000049D10680E1A11605E43666020688019206000F00BFF1349FFF76CFD2061002128
:20478000284600F013FB00281AD0304600F0FEFE0C49FFF75FFD2946FFF72EFEE568294645
:2047A000FEF7AAFF0849FFF755FD2946FEF7A9FFE0600649FFF74EFD0549FFF71DFEA06087
:2047C00070BDC046920A063E3333B33E000070421A344C43FEB502930F46194D0024E14395
:2047E000184E00973740019043422B46BB4101D20C4623E0084602990E405342B54101D205
:2048000004461BE0134601990B433E431E43029D009E13D02B46334004D401998B1A33469C
:20482000AB4103E00199531A2B46B341044605DB51406E400E43701E864134462046FEBD93
:204840000000F07FFFFFFF7F10B515490124A00700F068FD13484168134A0A4021045218EF
:2048600042608268114B134062069A188260104A02231360032353600723936002680A4362
:204880000260C82141610B490A6AA3021A430A620A681A430A6001682143016010BDC046BB
:2048A000086E000000110040FEFFECFFF8FFE0E080110040281000400F48002101800F48F9
:2048C00001800F4801800F4801800F4801600F4801600F4801600F4801680122D3029943EB
:2048E000016001680C4B0B43036050030B4908600B4908607047C046EA092020EE092020F4
:20490000F2092020F6092020CC09202084092020D8092020281010401604020080E200E034
:2049200000E100E0F0B583B0144F0197144D009514487F21CE05002431462246234601F0C1
:20494000D1F800950197104F384631462246234601F0C8F80B4801F0B1FA384601F0AEFA85
:204960000A48046044608460C460046144612046214600F0B1FD03B0F0BDC04600806D44C9
:2049800000806DC4E007202048082020FC082020F0B581B0134E30680124A04330602007DD
:2049A0001149086011480460022101607D2149010A4660320260220502607068002800D06F
:2049C00001460B4F39600B4D0022284601F06EFA39682846224601F069FA30682043306006
:2049E00001B0F0BD04188740A0120A40A0320A40080A202000008740F8B50446164F174D85
:204A00000E462E400120009464423C46B4411AD31D405442AF4116D31046009C204335437C
:204A2000054311D00020C0431C460C400ED4009CA41A0C469C4106DB00985040594001432B
:204A4000481E81410846F8BD0020F8BD009C141B1C468C41F0DAF6E70000F07FFFFFFF7FCA
:204A6000F8B51C4617460E46054601F03FFA0021012E03DB864201DCA919491E002F04D002
:204A80002268531E23602E2313703246824206DD23685F1E276030271F70521EF6E7B042F1
:204AA00000DB3046012808DBA9420BD308782268531E23601070491EF6E72068411E2160A6
:204AC00030210170F8BD000070B584B0144C204600F048FC01F078FA054601F079FA0646AE
:204AE00010480078022814D101F07EFA014602A82246FFF733F8039A029902A80A4BFFF7C7
:204B00007DF803990298F368EA68009400F084F901E000F08BFEFFF7E5FD04B070BDC04623
:204B20000AD7A33B020A202000001644F0B581B005460124204601F037F8204601F022F8D3
:204B40000026304601F030F8304601F01BF87820FEF7A6FE0D4F3978014039703046FEF793
:204B60009FFE3978014039702846FEF799FE397801403970304601F017F8204601F002F8A1
:204B8000204601F011F801B0F0BDC046FE0920208446830706D0002A29D001700130013AE0
:204BA0008307F8D1042A1CD30906090E0B0219430B041943082A10D30B00102A09D370B431
:204BC0000F24161B22400C000D003AC0103EFCD870BC082A01D30AC0083A042A01D302C0D8
:204BE000043A002A03D0013A8154013AFCD26046704770B5012816D10025012428462146B0
:204C0000224600F02DFC7D20C6002846314600F031FD20462146224600F022FC204631468D
:204C200000F028FD70BD00242046214600F022FD20462146224600F013FC01252846214603
:204C400000F018FD28462146224600F009FC70BD0D48002101800D4801800D4801800D48F8
:204C600001800D4801600D490A680120C3029A430A600A680A4B13430B60C103094A1160F8
:204C8000094A11607047C046E8092020EC092020F0092020F4092020C8092020289010409E
:204CA0001604020080E200E000E100E070B514460F4D0B462B40002222600E4EB34215D85C
:204CC0001E46064312D01E0D07D100220A4B01F0A3F90D403522D2432B461B0D9A18074BE8
:204CE000D2182260064A0A400649511870BDC046FFFFFF7FFFFFEF7F0000504302FCFFFF4C
:204D0000FFFF0F800000E03F10B5FFF775FE002801D0002010BD012010BD10B5FFF76CFEC0
:204D2000002801DB002010BD012010BD10B5FFF763FE002801DD002010BD012010BD10B5D2
:204D4000FFF748FD002801DA002010BD012010BD10B5FFF73FFD002801DC002010BD012030
:204D600010BD000010B5FFF72FFA002801D0002010BD012010BD10B5FFF726FA002801DBCF
:204D8000002010BD012010BD10B5FFF71DFA002801DD002010BD012010BD10B5FFF731FA9F
:204DA000002801DA002010BD012010BD10B5FFF728FA002801DC002010BD012010BD000058
:204DC000B0B582B00C4801900C4800900C4D0D4900240D4B2846224600F084FE7F20C2059A
:204DE0000A49284600F0D2FC0949284600F004FD0848046002B0B0BD00009643000096C37E
:204E000014082020000082430000C040000080BF9A99593F8C092020F0B581B01C460D4607
:204E20000146069E0F4F21C73A607B600E483346083FFDF798FC38610C48294622463346F1
:204E4000FDF791FC04467861386900F083FC0546204600F07FFC0146284600F03DFB01B0F4
:204E6000F0BDC046FC082020E007202048082020F0B587B00191064602AD0020E874123558
:204E800037460A243846214600F04AF84443391BCA175140891A3031297009376D1E122F5A
:204EA0000746EED8002E01D46D1C01E02D20287002A8441B224614320198294601F0B4F831
:204EC0001334204607B0F0BDF0B5FFB086B01C4615460246A868002801D50620A86023686B
:204EE000039304AB0090019305A80B46FDF798FD0646049FAA683946234600F02BFD206839
:204F00000399814201D0012202E028680007C20F304639462346FFF7A3FD7FB006B0F0BD6E
:204F20001CB5002922D04C08002900D5494242105440002800D5404200230A00904201D96A
:204F40005200FBE790425B41904200D3801A914201D25208F6E71900002C00D54042640093
:204F600000D549420200080011001CBD01000020FFF783FA1CBD7CB515460C460646C0176F
:204F800031464140081A009200210A226423FBF783FD30460930122808D8DF20204050287F
:204FA00004D02868411E296030210170002E01D42B2000E02D2029684A1E2A6008702868DD
:204FC000411E296004707CBD0CB5030008001900BE228646002803D407D1002905D10CBD0C
:204FE000002349428341180006D4013A4000CB0F184349000028F8D5803001D3013200E0C8
:205000004000400AD20510437346002B02D50122D20710430CBD000080B50A490A4800F03F
:2050200083FE0A480A49C1620022C267094B0360016309490A60036008494160084801213E
:20504000016080BD6A6800000000094004180940010002001292001084180940FFFF000098
:20506000081109400CB54A00520D03231B02FF33D21A13D31F239A1A12D98E46C902012379
:20508000DB071943D1400B2A02D21532D04001437346002B00D5494208000CBD00200CBD1F
:2050A0000B000120C007002B00D401380CBD000070B511221302C218C4580125AC43C45070
:2050C0000C888D7825438C882C43C558084E2E40084D25407419C4508879CB790343087A03
:2050E000184351687E23994318400818506070BDE798FDFF1867000080B5FEF749FFFEF769
:2051000019FE0B480021016041608160C16001610848016041608160C160016100F0CEFC2E
:205120000549086000F0F0FE0449086080BDC0461409202028092020AC092020B009202027
:2051400080B5FEF743FE0A48302100F010FE0948002101700848016008480160416081607C
:20516000C16007480749016041608160C16080BD7C082020FA092020900920204C092020B9
:205180003C092020FF0FFF0F81B0B0B587B00C460B930592491E22468A41A11A039100250C
:2051A000049502900BA9069107480090074B05A802AAFAF785FF002C01D002990D7007B0AE
:2051C000B0BC02BC01B0084761580000F55D000010B50E4C2078052817D000F0C5FE0028F4
:2051E00013D100F05BF800F0F9FD00F01FFB00F0C1FE002000F0C4FE012000F07BFB00F0A0
:20520000A1FE034908600220207010BD020A20208809202010B500F095FE044600F0F6FB2C
:20522000601C08490860601D0749086020460A300649086020461430054908606434054868
:20524000046010BDA409202098092020A80920209C092020A009202010B50E490E4A0123F8
:205260005C0590600868204205D10868204202D108682042F6D010681B0403431360086838
:20528000C00605D40868C00602D40868C006F6D510BDC04604020B4004010B4080B5FEF7C4
:2052A00049FD0B480021016041608160C16001610848016041608160C160016100F0FEFB2F
:2052C0000549086000F020FE0449086080BDC0461409202028092020AC092020B009202056
:2052E00010B50F4A017853185B78401CDB06F9D42D2901D02B2901D1027801E0401E0A4679
:20530000431C0020303A092A05D80A24444310191A785B1CF6E72D2900D1404210BDC04654
:20532000806B0000F0B511221302C2180C780B4D46590B4F374003262640BC19A926360600
:20534000A41944514C68C55807263606B54334402C19C45048781061F0BDC0460808000008
:20536000FCFFFF0010B582B0044600F0A7FB014600940848084A0023DB43FFF7EFF900F0D4
:20538000C3FD014600940548054A0123FFF7E6F902B010BD14092020AC092020280920209B
:2053A000B009202070B586B01D460C460592491E22468A41A11A03910026049602900748C3
:2053C0000090074B05A802AA2946FAF779FE002C01D002990E7006B070BDC04693580000D1
:2053E0000D5E00001CB50A0017D000230124E407A04200D20400944201D95200FBE79042DF
:205400005B41904200D3801A914201D25208F6E719000200080011001CBD01000020FFF7B0
:205420002CF81CBD80B500F039F8FEF746FB00F021FCFFF761FEFFF783FEFEF713FDFFF70F
:20544000BFFCFFF76FFA00F07DFD0349086003480021017080BDC04688092020020A2020D7
:2054600070B5002805D0012812D1012318051B0301E002200123074C2546103500292646E0
:2054800000D12E4604497350002A00D12C46605070BDC0469012000000200A4009480021E9
:2054A00001600948016801229143016007490A601104074B1960074B1960016811430160F6
:2054C0007047C046D4092020045808404850084080E200E000E100E010B50B4A904200DCA3
:2054E00010460A4B984200DB1846094C2080914203DD994204DA618010BD11469942FADBD8
:205500001946618010BDC0464AFCFFFFB60300006809202080B5FEF7EFFFFDF733FFFEF797
:2055200027FAFEF77DFDFFF777FD00F0DBF8FEF705FEFEF7BDFDFFF787F9FEF79FFF00F00E
:20554000E5FA02489C210022425480BD0007202070B50A480A4C84420CD00A4D0A4EB54214
:2055600008D02A686968501C12789200A25890470835F4E700BF00BF70BDC0463C6E000024
:20558000306E0000506E0000606E000006B49E22002802D404D106BC7047414204D400E0E0
:2055A0000100013A4900FCD5803101D3013200E04900490AD2051143002802D50122D2073B
:2055C0001143080006BC7047FCB4020C0B0CFF242402FF34204021400C00444315005D439C
:2055E00006005E430F005743320C3B0CA818C01832043B040025A1186841C9186841FCBC00
:205600007047000010B50B4C2078022811D100F099FC09490968401A80087D2809D3012047
:2056200000F0AEFC002000F065F900F0FFF80320207010BD020A20208809202010B50146D2
:20564000002000290FD0084A1388084C2488A34209D01088064B185C08701088401C3F214E
:2056600001401180012010BDEC092020E8092020A0072020B0B5012812D80446094805689D
:205680007D20C200914200D311466943800008181146FFF7A7FE291A0348224600F006FC88
:2056A000B0BDC046080A20200000874010B50146002000290ED0084A1388084C2488A34259
:2056C00008D01088064B185C08701088401CC0B21080012010BDC046EE092020EA092020C9
:2056E0000006202010B50849084C204600F01CFB07492046FDF7DAFC0648016801221143DF
:2057000001600548026010BD056E000000400840D86C0000285008400851084070B50028BF
:2057200015D10024064620462146FFF7A3FF204621462246FFF794FE012528462146FFF700
:2057400099FF284621462246FFF78AFE304600F0C1FA70BD06B54100090E7F390DD41F22BB
:20576000511A0CD9864600020122D2071043C8407246002A00D5404206BD002006BD0200D3
:205780000120C007002A00D4401E06BDF0B581B014460E46054641628262C76838461146A8
:2057A000FFF704FB009038463146FFF7E4FA002800D13E460098002800D13446EC6001B016
:2057C000F0BDB0B5FFF7E4F8002420462146FFF751FF012528462146FFF74CFF20462146A5
:2057E0002246FFF73DFE284621462246FFF738FE204600F06FFAB0BDF0B581B00E460090C1
:205800007F20C50508462946FFF7D0FA0446002730463946FFF7AFFA002800D13746002CFB
:2058200000D13D460098C56201B0F0BD80B5094800F044FB084800F041FB084900200860ED
:2058400048608860C860086148610146FFF744FE80BDC046E007202048082020FC082020C1
:2058600070B514460D4601466A68A86882420CD9101A8442264600D306462868324600F011
:20588000D3FB286880192860A8680019A860204670BD70B514460D4601466A68A868824206
:2058A0000CD9101A8442264600D306462868324600F0BAFB286880192860A8680019A860F9
:2058C000204670BD80B50948FBF74EFBFBF736F9002809D000F088FB2921405C012803D1FC
:2058E00000F030FB0249086080BDC0466F12833A88092020B0B5094D697A01244C400440F5
:2059000006D100202860686005480078FFF771F92C722046FFF702FFB0BDC04668092020FC
:205920000C0A202070B5094C21402340002501244042074E30468841204600D32846514239
:205940009E4100D32C46204370BDC046FFFFFF7F0000F07FF8B51C4615460646571800F08D
:20596000C5FA711E012D0CDB3022012F02DB874200DCCA5D23685E1E26601A707F1E6D1E5A
:20598000F0E7F8BDF0B5C3B01F4601920D46064648AB02930120010203AC20463A46FFF795
:2059A00001FD304629462246019BFCF759FC43B0F0BD000007480068C0B2002809D00B28BB
:2059C00003D1054801210170704704480168491C0160704720100040F8092020DC09202054
:2059E00007480068C0B2002809D00D2803D1054801210170704704480168491C01607047AB
:205A000020300040F9092020DC09202080B5FEF753FF06480021017005480170FCF706FD7F
:205A200000F0B4FA0349087080BDC046FF092020000A2020FD092020F0B500280AD00649F3
:205A4000064A074D0B6814682E780F68BB42F9D1067218C0F0BDC046C0092020C4092020B6
:205A6000010A202007480021CA43026042608260C2600548016041608160C1600348012198
:205A8000017070474C0920203C092020FA09202004B40422002802D1002104BC704701D53A
:205AA0000832404212021F320100521E4900FCD30805090B1205114304BC704710B5064826
:205AC0000168064A1088081A00B2054B1C6820181860118010BDC04600180940720920209D
:205AE0009409202070B5059C049D074E046245628462C6623024002606554EC00660466003
:205B00008660C56070BDC046CDCC4C3F074808490268D2430A4207D00268D2430A4203D043
:205B20000268D2430A42F3D17047C04604020B40000A2000084880F3088800BF00BF00F0DD
:205B40007BFA002801D0FFF703FD002000F0A2F80120FEF70AFCC0460080202002B49E21E0
:205B6000002805D401D102BC704701394000FCD5803001D3013100E04000400AC905084359
:205B800002BC704780B5074901221203002801D0403101E00A6030310A60642000F0FCF9EA
:205BA00080BDC046A0120A4080B5074901225203002801D0403101E00A6030310A606420A5
:205BC00000F0EAF980BDC046A0120A4030B514004C4325001C0044436419050010002900A8
:205BE000FFF7F2FC001904000D002100280030BDB0B504460020002B08D0D2B20D782570F1
:205C0000954204D0641C491C5B1EF7D1B0BD601CB0BD000080B5012000F0B2F90020FFF756
:205C200069FEFFF703FE02480421017080BDC046020A202080B501200103054A1164400336
:205C4000106411601060642000F0A6F980BDC046A0120A4010B5064900240C604C6001202C
:205C600002020A81FEF7C5FF2046FFF757FD10BD6809202080B50548002101810160416087
:205C800003480170FFF79DFD80BDC046680920200C0A2020FFF73EFCFFF7C4FBFFF7BAFADF
:205CA000FFF796FAFEF7E2FCFEF7E0FCFEF7DEFCF8E7000018B520239B1A04D8010000204A
:205CC0005B42994004E004009140DC402143904018BD00000449002800D1103101200007C1
:205CE000024A88507047C0469012000000000A400843104304490A683F231B049A431840C4
:205D0000101808607047C04638010B4010B592008018044A83580724A404A343214059180F
:205D2000815010BD3018000010B50122120383180C789C604B7883508978014A815010BDE5
:205D40000C11000004480068C0B2012803D103480168491C0160704720500840D4092020FD
:205D60000B4611461A4680B5FEF712FF80BD0A46002180B5FEF70CFF80BD000080B5FFF795
:205D800069FFFFF753FD02480521017080BDC046020A202080B50020FFF7ACFDFFF762FE9B
:205DA00001480121017080BD020A202010B5029CA400001911431943014A815010BDC046BF
:205DC000501800000348002101600348C18201214175704774092020E408202080B5034808
:205DE00000F06CF802480021016080BD140820208C0920204B688A689A4204D20A68531CDD
:205E00000B6010708A68521C8A6070474B688A689A4204D20A68531C0B6010708A68521C13
:205E20008A60704780B500F099F802480021017080BDC046020A202003480068012149037F
:205E40000140480B7047C04680130A4080B5034801218902FFF78BFF80BDC04600002020E4
:205E600040B584B002AE0096FDF7D6FD029A039B04B040BD10B50122120383180C789C60E9
:205E80004978815010BD0278914204D0002A01D0401CF8E70020704780B50B460321425831
:205EA000C11D184600F0C0F880BD000092008018014A81507047C046101800003021002223
:205EC0004254C260026142618261704700214258091D002AFBD1081F8010704780B50A46A0
:205EE000032141581046FFF742FF80BD0021425C491C002AFBD1481E704700000148007823
:205F00007047C046020A2020014800687047C046BC092020014800687047C046C809202086
:205F2000014800687047C04680092020014800687047C046B8092020014800687047C0464D
:205F4000DC092020014800687047C046D40920200148002141607047CC0820200148002151
:205F600001707047FA092020014800787047C046FA09202001480021417270476809202070
:205F8000014908707047C0460C0A2020014800787047C046FE092020811E091F00BFFCD213
:205FA000704702460B4620462946FFE782B00094014C019410BD00BFD52500000022304610
:205FC00039462B46704700000048704714092020004870472809202000487047CC0820203B
:205FE00000487047E4082020004870477C082020004870476809202000487047FC082020C0
:2060000080B5FDF7E5FB80BD80B5FCF7C7FE80BD80B5FBF71BF980BD80B5FCF735F880BD06
:2060200000487047040A202080B5FDF735FE80BD00BF70477EE57047012070470000000012
:2060400000000000000000000000000000000000000000F8000000000000003330000000E5
:2060600000160E00160E0000000000000000000040C07840C0784000043F04043F04040016
:20608000007088FC08300000001820FF211E0000F008F000E018000000211C031E211E00E1
:2060A00000F00888700000001E21232419272110000000160E0000000000000000000000D5
:2060C000000000E018040200000000071820400000020418E00000000040201807000000C6
:2060E000404080F0804040000202010F01020200000000F0000000000101011F0101010082
:20610000000000000000000000B07000000000000000000000000000000101010101010158
:20612000000000000000000000303000000000000000000080601804006018060100000084
:2061400000E010080810E000000F102020100F00001010F8000000000020203F20200000FA
:206160000070080808887000003028242221300000300888884830000018202020110E0059
:206180000000C02010F8000000070424243F240000F80888880808000019212020110E00A8
:2061A00000E0108888180000000F112020110E0000380808C83808000000003F00000000B9
:2061C0000070880808887000001C222121221C0000E010080810E0000000312222110F007C
:2061E000000000C0C00000000000003030000000000000C0C0000000000080B0700000009F
:2062000000008040201008000001020408102000404040404040400004040404040404006B
:2062200000081020408000000020100804020100007048080808F000000000303601000000
:20624000C030C828E810E0000718272423140B000000C038E0000000203C23020227382000
:2062600008F8888888700000203F202020110E00C030080808083800071820202010080059
:2062800008F808080810E000203F202020100F0008F88888E8081000203F2020232018000E
:2062A00008F88888E8081000203F200003000000C03008080838000007182020221E02006B
:2062C00008F808000008F808203F210101213F20000808F8080800000020203F20200000D5
:2062E00000000808F8080800C08080807F00000008F888C028180800203F20012638200039
:2063000008F8080000000000203F20202020300008F8F800F8F80800203F003F003F200079
:2063200008F830C00008F808203F200007183F00E01008080810E0000F10202020100F00F2
:2063400008F808080808F000203F210101010000E01008080810E0000F18242438504F006C
:2063600008F8888888887000203F2000030C302000708808080838000038202121221C008F
:20638000180808F8080818000000203F2000000008F808000008F808001F202020201F0068
:2063A0000878880000C83808000007380E010000F80800F80008F800033C0700073C0300FB
:2063C000081868808068180820302C03032C30200838C800C83808000000203F2000000020
:2063E00010080808C83808002038262120201800000000FE020202000000007F4040400033
:20640000000C30C000000000000000010638C00000020202FE000000004040407F0000003E
:206420000020100804081020000000000000000000000000000000008080808080808080E8
:206440000002040800000000000000000000000000008080808000000019242222223F202C
:2064600008F8008080000000003F112020110E000000008080800000000E1120202011005D
:20648000000000808088F800000E112020103F200000808080800000001F222222221300F4
:2064A000008080F0888888180020203F202000000000808080808000006B949494936000E3
:2064C00008F8008080800000203F210000203F2000809898000000000020203F20200000CE
:2064E000000000809898000000C08080807F000008F8000080808000203F24022D302000AB
:20650000000808F8000000000020203F202000008080808080808000203F20003F20003F17
:20652000008080008080000000203F2100203F200000808080800000001F202020201F009E
:20654000808000808000000080FFA12020110E000000008080808000000E112020A0FF803E
:20656000808080008080800020203F212000010000008080808080000033242424241900FE
:20658000008080E0808000000000001F202000008080000000808000001F202020103F20CE
:2065A000808080000080808000010E300806010080800080008080800F300C030C300F00F4
:2065C00000808000808080000020312E0E312000808080000080808080818E70180601003F
:2065E00000808080808080000021302C2221300000000000807C020200000000003F4040EC
:2066000000000000FF00000000000000FF0000000002027C800000000040403F00000000BD
:20662000008040408000008000000000000101000000000000000000002F00000000070022
:20664000070000147F147F1400242A7F2A120023130864620036495522500000000700009F
:2066600000001C224100000041221C000014083E08140008083E0808000000A06000000840
:2066800008080808000060600000002010080402003E5149453E0000427F4000004261518C
:2066A0004946002141454B31001814127F10002745454539003C4A49493000017109050361
:2066C00000364949493600064949291E000036360000000056360000000814224100001409
:2066E00014141414000041221408000201510906003E4955592E007C1211127C007F4949C7
:206700004936003E41414122007F4141221C007F49494941007F09090901003E4149497AD7
:20672000007F0808087F0000417F4100002040413F01007F08142241007F40404040007F65
:20674000020C027F007F0408107F003E4141413E007F09090906003E4151215E007F0919C1
:2067600029460046494949310001017F0101003F4040403F001F2040201F003F4038403FA3
:2067800000631408146300070870080700615149454300007F4141000002040810200000B3
:2067A00041417F00000402010204004040404040000001020400002054545478007F4844E5
:2067C000443800384444442000384444487F00385454541800087E0901020018A4A4A47C34
:2067E000007F080404780000447D4000004080847D00007F102844000000417F4000007C59
:2068000004180478007C0804047800384444443800FC242424180018242418FC007C080424
:20682000040800485454542000043F444020003C4040207C001C2040201C003C4030403CC9
:20684000004428102844001CA0A0A07C004464544C440000087F41000000007F0000000005
:20686000417F08000008040810080800000800000000C1C081C1400101C3C003800241C204
:2068800001C6C006800741C70005C1C581C4400401CCC00C800D41CD000FC1CF81CE400E58
:2068A000000AC1CA81CB400B01C9C009800841C801D8C018801941D9001BC1DB81DA401AB8
:2068C000001EC1DE81DF401F01DDC01D801C41DC0014C1D481D5401501D7C017801641D618
:2068E00001D2C012801341D30011C1D181D0401001F0C030803141F10033C1F381F2403278
:206900000036C1F681F7403701F5C035803441F4003CC1FC81FD403D01FFC03F803E41FED7
:2069200001FAC03A803B41FB0039C1F981F840380028C1E881E9402901EBC02B802A41EA37
