:20000000008020201B77000043520000435200000000000000000000000000000000000064
:20002000000000000000000000000000435200000000000000000000435200004352000001
:20004000435200006D500000435200004352000025700000517000004352000043520000A4
:200060000000000043520000435200000000000000000000E576000043520000DD76000013
:200080001574000043520000435200004352000043520000435200000000000000000000EE
:2000A000435200004352000000000000000000004352000000000000435200004352000057
:2000C000F0B585B00246FB4C2078002811D00120F94B19605D2A1CD05B2A24D1F749CA68D9
:2000E000521CCA60F64900220A70F6490A8005B0F0BD5B2A0AD101202070F14A0023137070
:20010000F04A1380EC4A116005B0F0BD002005B0F0BDEB4D2978012913D1E8490A69521C8E
:200120000A6100F002FCE6490B78002B20D1E54C23885E2B1BD8591C2180ED49CA5405B021
:20014000F0BDE0490A88EA4900268E540A78002A16D02C2A11D04A78002A11D02C2A09D037
:200160008A78002A0CD02C2A06D0C91CEEE7087005B0F0BD491C00E0891C00220A704E1CC7
:20018000DB4F00E07F1C39780929FBD02029F9D00029029001D13B462EE07C1C204607F0E9
:2001A00092F8421C2118824202D20B46029823E03A18029803E0C91ED21EBC4215D913787B
:2001C000202B01D0092B10D1BA4210D9531E1C78202C01D0092C0ED1BB420AD9941E2578A4
:2001E000202DE8D0092DE6D006E0531C04E0134602E08B1E00E04B1E00241C70002E25465F
:2002000000D1B1E0314600250A78002A13D02C2A0ED04A78002A0ED02C2A06D08A78002AFB
:2002200009D02C2A03D0C91CEEE7491C00E0891C00220A704D1C344600E0641C217809296E
:20024000FBD02029F9D00029039401D1234630E0661C304607F037F8421C3118824202D259
:200260000B46029825E02218029804E0C91ED21E039CA64216D91378202B01D0092B11D1CC
:20028000A24211D9531E1E78202E01D0092E0FD1A3420BD9961E3478202CE7D0092CE5D03D
:2002A000039C06E0531C04E0134602E08B1E00E04B1E00211970002D11D029460A78002A66
:2002C00016D02C2A10D04A78002A11D02C2A08D08A78002A0CD02C2A05D0C91CEEE70D46C7
:2002E00042E0491C00E0891C00220A7000E06D1C29780929FBD02029F9D0002901D12B46D1
:2003000030E06E1C304606F0DEFF421C3118824202D20B46029825E02A18029804E0C91E24
:20032000D21EAE42039C15D91378202B01D0092B10D1AA4210D9531E1C78202C01D0092C68
:200340000ED1AB420AD9961E3478202CE7D0092CE5D006E0531C05E0134603E08B1E00E0A2
:200360004B1E039C00211970544E3168491C31603978002900D1D3E20A46413A20231A2AE8
:2003800000D219436B2901934FD0732900D009E27A785849002A67D00394114641390091A4
:2003A000CCB2134601990B431A2C1C4600D314466C2C5DD1BE785049002E5BD03446413CC4
:2003C0001A2C01D2019C2643692E00D069E1FE78002E00D1D0E03446413C1A2C01D2019C7B
:2003E0002643642E00D05CE13E79002E00D14DE13446413C1A2C01D2019C2643652E00D098
:200400004FE17E79002E00D144E1304641381A2801D201980643722E029800D041E1BC794A
:20042000002C00D03DE18E1D35E17A783349002A1CD01346413B1A2B01D2019B1A43652AE8
:2004400000D0AFE1BA78002A16D01346413B1A2B01D2019B1A43792A00D0A3E1FA78002A81
:2004600000D09FE1C91C08E0491C98E1491C04E0039C4EE18E1C0EE1891C0978002900D0B2
:2004800090E1002C00D14BE2002D00D148E22978002900D16EE00A46413A1A2A01D2019A33
:2004A00011436339122900D93AE207A24900515A49008F44390B2020BC0A2020740920201C
:2004C000320B2020200B20202500A500350235023502350235023502350235023502350244
:2004E000350263003502350235023502D600C046A0072020B6860000A886000009870000C9
:200500006A78D949002A00D1BEE01346413B1A2B01D2019B1A436C2A00D001E23346A87876
:20052000002800D1B4E00246413A1A2A01D2019A1043692802981E4600D0F1E1E8780028AD
:2005400000D1E7E10246413A1A2A01D2019A1043632802981E4600D0E2E12879002801D183
:2005600000F0BEFC0246413A1A2A01D2019A10436B283BE0F649D0E1CE1C8CE06A78F449F6
:20058000002A00D180E01346413B1A2B01D2019B1A43722A00D0C3E13346A878002877D002
:2005A0000246413A1A2A01D2019A1043652802981E4600D0B4E1E878002800D1AAE1024657
:2005C000413A1A2A01D2019A1043732802981E4600D0A5E12879002801D100F081FC02465C
:2005E000413A1A2A01D2019A1043732802981E4600D095E16A79002A00D091E1491D8CE17A
:200600006A78D449002A3FD01346413B1A2B01D2019B1A436F2A00D082E13346A87800282F
:2006200036D00246413A1A2A01D2019A1043772802981E4600D073E1E878002800D169E188
:200640000246413A1A2A01D2019A10436E2802981E4600D064E12A79002A00D060E1091D25
:200660005BE16A78F949002A0ED01346413B1A2B01D2019B1A43702A00D051E1AA78002A44
:2006800000D04DE1891C48E1491C46E10E1D02E0891C40E14E1D3478002C039CEC4E00D142
:2006A00084E0BE78EB49002E27D03446413C1A2C01D2019C2643692E039C1CD1FE78002E6A
:2006C0001DD03446413C1A2C01D2019C2643039C642E10D13E79002E13D03446413C1A2C00
:2006E00001D2019C2643652E02D17C79002C0AD0039CD74E0DE0D64E0BE08E1C04E0CE1C88
:2007000002E00E1D00E04E1D3478002C039CD04E4CD00099C9B21A2900D313466C2B41D1A4
:20072000B978002930D00A46413A1A2A01D2019A1143692936D1F978002928D00A46413A98
:200740001A2A01D2019A114364292BD13979002920D00A46413A1A2A01D2019A11436529E0
:2007600020D17979002918D0084641381A2801D20198014373290298039C13D1B9790029B8
:2007800010D1DA49891D0AE0D849891C07E0D749C91C04E0D549091D01E0D449491D097806
:2007A000002903D0B169491CB161BCE0002C13D0002D11D020780028019B11D001464139F5
:2007C0001A2900D21843742850D061280AD0342800D0B7E26078B3E2F169491CF161A2E0C5
:2007E000C348ACE26178C348002900D18CE00A46413A1A2A00D219436E2900D0A2E2A178D5
:20080000002900D182E0374623460A46413A1A2A01D2019A114367291C463E4600D091E20C
:20082000E178002974D00A46413A1A2A01D2019A11436C291C463E4600D083E221790029AE
:2008400000D179E20A46413A1A2A01D2019A114365291C463E4600D074E26179002900D02E
:2008600070E2401D6BE2C046D68600006178A048002949D00A46413A1A2A00D21943612950
:2008800000D05FE2A178002940D0374623460A46413A1A2A01D2019A114372291C463E46BD
:2008A00000D04FE2E178002932D00A46413A1A2A01D2019A114367291C463E4600D041E279
:2008C0002179002900D137E20A46413A1A2A01D2019A114365291C463E4600D032E2617968
:2008E000002900D112E30A46413A1A2A01D2019A114374291C463E4600D023E2A17900299D
:2009000000D01FE2801D1AE2401C18E2801C16E2C01C12E2C91C02981E46097800290BD04B
:20092000F168491CF160744C744D002121702970734A118005B0F0BD7168491C7160257880
:20094000002D09D0294641391A2974D3294675E0D0860000E78600006A490978002900D169
:20096000DDE06949204605F0D9FF002802D004210298E7E22346002D00D1D2E02846413853
:200980001A2801D201980543362D00D1BBE1702D00D187E1732D1C4600D0DFE261785B48AC
:2009A000002900D178E20A46413A1A2A01D2019A114374291C4600D0D0E2A178002900D17E
:2009C0009EE20A46413A1A2A01D2019A114361291C4600D0C2E2E178002900D19CE20A4645
:2009E000413A1A2A01D2019A114374291C4600D0B4E22179002900D1A9E20A46413A1A2AE3
:200A000001D2019A114375291C4600D0A6E26179002900D19DE20A46413A1A2A01D2019AEC
:200A2000114373291C4600D098E2A179002900D094E2801D8EE22946019A1143313948294B
:200A40008FD805A24900515A49008F4417870000740920205A7F00006200B6001B011F01F0
:200A60002601610061006100610061006100610061006100610061006100610061006100A0
:200A8000610061006100610061006100610061006100610061006100610061006100610046
:200AA000610061006100610061006100610061006100610061006100710061006100610016
:200AC0006100610061006100610061006100BB0061006100610061006100610061006100AC
:200AE0006100610061006100F500C046B6860000BD860000C4860000390B2020320B2020AD
:200B0000200B202028870000DC860000AF86000027E76178002900D023E7002112E2042100
:200B200010E29548007800281C4600D016E2EFE03746234661789148002900D1EEE00A469D
:200B4000413A1A2A01D2019A11436E291C463E4600D006E7A178002900D1C3E10A46413A58
:200B60001A2A01D2019A114367291C463E4600D0F7E6E178002900D1CAE10A46413A1A2A3F
:200B800001D2019A11436C291C463E4600D0E8E62179002900D1CCE10A46413A1A2A01D257
:200BA000019A114365291C463E4600D0D9E66179002900D0D5E6401DBCE16178002900D0E9
:200BC000CFE699E13746234661786D48002900D1A6E00A46413A1A2A01D2019A1143652993
:200BE00000D15BE169291C463E4600D0B9E6A1786448002900D185E10A46413A1A2A01D2FA
:200C0000019A11436E291C463E4600D0A9E6E178002900D182E10A46413A1A2A01D2019AD6
:200C2000114365291C463E4600D09AE62179002900D096E6001D72E1374623466178F44822
:200C4000002977D00A46413A1A2A01D2019A114361291C463E4600D083E6A178002900D197
:200C600042E10A46413A1A2A01D2019A114377291C463E4600D074E6E178002900D070E628
:200C8000C01C32E16178002952D06AE66178002900D066E6DD49491C5FE66178002900D031
:200CA0005FE64EE15978DB48002900D1F2E00A46413A1A2A01D2019A11436C291C4600D068
:200CC0004CE1A178002900D118E10A46413A1A2A01D2019A11436F291C4600D03EE1E178C8
:200CE000002900D116E10A46413A1A2A01D2019A114374291C4600D030E12179002900D0BF
:200D00002CE1001D0EE71C465878002800D025E12921725C02984240725415E1401C09E14E
:200D2000401C0078002802981C463E4600D018E6032107E1401CD8E0001D1C463E460078CE
:200D4000002824D00021A84A04AB284603F040FA002830D03146264628200F46085C0428E2
:200D60009F4CA04D10D8C04678440079400087440B302A2D2700C046F1860000C4860000ED
:200D8000F68600000087000006F084FC23E09D499D4A04AB284603F01BFA00280BD0049846
:200DA00005F03CFE002806D0282002213154B068401CB060E2E0F069401CF0610298B2E599
:200DC00006F084FC07E006F049FC04E006F07AFC01E006F067FC31780029019B0AD00A4659
:200DE000413A1A2A00D219436B292AD0312905D1717801E07D490978002916D005467C4918
:200E00003446304605F08AFD002805D17949204605F084FD002825D02846AB682968049AFD
:200E200006F079FC6E4C6F4D04E042688368049906F071FCB868401CB860714902980870F8
:200E400073E572786949002A1DD01346413B1A2B01D2019B1A43702AD0D1B278002ACDD174
:200E6000891CC8E76449204605F058FD002805D16249204605F052FD002806D0284606CD2F
:200E8000049B083DCCE7491CB5E7B869401CB861029848E5401C45E6401C5BE09978002905
:200EA00032D00A46413A1A2A01D2019A114366291C463E4600D054E5E178002937D00A4608
:200EC000413A1A2A01D2019A114374291C463E4600D046E52179002900D042E5001D20E735
:200EE000091D18E5801C25E0801C0078002802981C463E4600D034E5012123E0801C11E6D1
:200F0000801C27E0801C0AE0801C0AE7401D14E7C01C0FE0C01C05E6C01C1BE0C01C007806
:200F2000002802981C463E4600D01AE5F5E5C01CF7E6001D0078002802981C463E4600D09A
:200F40000FE502212822B1542D490870EBE4001D00E0401D007800281C460FD02E49204656
:200F600005F0DCFC002805D12C49204605F0D6FC002807D005F006FE06F0E4FA2049029835
:200F80000870D0E426492546204605F0C7FC002805D12449284605F0C1FC002807D006F0AD
:200FA000AFF80146224805F0C7F90298BBE41E49284605F0B3FC002805D11C49284605F0AC
:200FC000ADFC002807D006F00DFB06F011F9282002213154D2E7B069401CB0610298A2E41C
:200FE000390B2020320B202000401C461D8700002E870000148700002A8700001A87000008
:20100000330B2020000034C300003443288700000D870000F186000024870000CA8600002F
:201020002C870000E286000026870000EC86000084840000F0B5FFB08EB004930692064661
:20104000929802900025E84305908C913468204606F090FA21188B9503918C4200D3C2E020
:201060000020879087A908738890059889902F46049D2078002800D1B8E0252805D0641CDF
:2010800034600699A8477F1CF3E78B97601C306087AC2046314600F0C1F88CAA20463146BF
:2010A00000F0DDF8306801787A2925D0682919D06A2908D06C290ED0742908D04C2922D18D
:2010C000879980221BE087990122D20217E087990122520313E0427887996C2A6AD10122EC
:2010E000120205E042788799682A66D10122520211438791801C05E08799012212030A434B
:201100008792401C0178441C346087A80173732913D06E291DD1879836490840411E0246B9
:201120004A408A423DD900282DD04142014032484143C80E31A1085C26E087A8007840065D
:2011400019D4009587A88CAA8BAB069900F046F92BE007AD87A98CAA284600F095F902464B
:2011600028460699029B9847411C059D00D0C5198B9503991BE0009587A88CAA8BAB0699B3
:2011800000F0C9F811E02020401F082809D8C0467844007940008744210404151C04150440
:2011A00004008C9802C88C900F6003998B9D681C1BD052E7401C402201E0401C20221143B5
:2011C00087919FE7F8178C9904C98C9117605060EBE78C9802C88C900F70E6E78C9802C816
:2011E0008C900F80E1E72F4600E0059F38467FB00EB0F0BD603F000031B57C0700011C0244
:201200001D0E18031E16140F191104081F1B0D17151310071A0C12060B050A0910B50A68C6
:201220000124E3071AD01378302B0CD0232B0ED02B2B0AD02D2B04D00024202BF1D1042313
:2012400006E0012304E0102302E0022300E0082304681C430460521C0A60E1E710BDFEB50C
:2012600016460D460446086802782A2A10D13068011D316000686060002805D540426060A3
:2012800020680121014321602868471C2F6017E00021303A092A08D84218531C2B60435CD5
:2012A0006F467B545278491CF3E76A460023535412784718002A03D0684605F0ADFA606037
:2012C00038782E2826D1781C286079782A2908D13068011D31600068A0602868401C2860B5
:2012E000FEBD00203039092908D839188A1C2A604A786B461A548978401CF3E76A4600212E
:2013000011541078002804D0684605F085FAA060FEBDA160FEBDF0B587B01E460C9F1368E5
:201320001C1D14601D68002D3AD0049106908468002C04D4284606F00DF9844203D32846B5
:2013400006F008F9044606984068A042039000DC2046014630680191401805940399A1426E
:20136000029630600EDD06980078C0070AD1059801990E1A0024B44204DA20200499B8476F
:20138000641CF8E70026049C069805998E420ADA2868010A18D12D1D2146B847761CF3E798
:2013A0000020B84718E00599039A8A4214DD0078C00711D00198451A0024AC420CDA2020CE
:2013C0000499B847641CF8E70020C0430299086006F094F95821016007B0F0BDF0B585B051
:2013E0000C4606460A9D1068011D116000680490002844D00393B768002F04D4049806F01B
:20140000B9F8874203D3049806F0B4F8074602967268BA42114600DC3946039B1868009122
:2014200040180192BA4218600FDD02980078C0070BD10098C01B039000260398864204DA3F
:2014400020202146A847761CF7E70026BE4205DA0498805D2146A847761CF7E70198B842AF
:2014600010DD02980078C0070CD00098C61B0027B74207DA20202146A8477F1CF8E7002020
:201480002146A84705B0F0BDF0B58BB004920D460446FF210846FA3027186868059000261F
:2014A00009960691FE3120222046029205F0C0FF7F20800021180A9103973E71287B0246B0
:2014C000613A172A08952BD8012393402546C34C23422C4609D009A90AAA089D2846049B57
:2014E00000F082F900260796B9E0712423422C46089D22D1022A13D1049B1868021D1A6059
:201500000068C2B2534253410793069AFC32A2180A920870286802218843286000269EE0E6
:2015200001464539032908D3252800D180E0412803D058280796CED092E00194049A10684D
:20154000C01D07218843014608311160076846682D7B2C467B3C384631463A46334605F0F9
:2015600019FD002800D021E10120C007314681439B48484038431FD0F60F00200790284639
:20158000413806283FD9613D062D019C00D922E1A80002A21058089D8746C0461D160000E3
:2015A0005F1600005F1600005F16000055160000491600003D1600000022384631460792FF
:2015C000134604F03AFE1921CA436921049149216E254E2366274626944200D33E46039AEF
:2015E000D670019C00D32B46937000D3049951703F21C90061180A910028089D14D02D2055
:20160000107004262BE0019C089DC0467844007940008744032424241F1913000AAB3846A0
:201620002A4601F0ABFC1AE02B201070032616E00020607025202070012086E00AAB38463F
:201640002A4601F0A1FD0AE00AAB38462A4604F0F7FE04E00AAB38462A4603F047F8287BB9
:20166000012501466F39092904D801228A405D490A4201D158286AD1059B0595E5180A9802
:2016800008990978C907274609D10399091D091A089A52689142274601DC691A4F1C411C68
:2016A0000698430000263846324605F0FBFD0A900799002903D0411C0A91067000E0014675
:2016C000A94206D8481E691A491C202205F0B0FE2E70089D2878C00605D4391B2022204690
:2016E00005F0A6FE2CE0A7422AD0391B30262046324605F09DFE09984142414105980140C6
:20170000012905D12878400702D43846214604E03878611C2070781C3E702A7B412A0CD058
:20172000582A05D0612A08D0782A01D0702A07D12B781B0701D4612A02D142784A704670E8
:20174000204605F017FF079940180BB0F0BD002E09D0012E059B90D10120099008980168BE
:201760000220084007E0099A0898016802200840002A08D0059B0A994A1E0A922D220A70F0
:201780004542454179E70028059B08D1480700D473E70A98411E0A91029901706DE70A9820
:2017A000411E0A912B210170002566E71920C543612241216E234E20AC4200D31846039B1E
:2017C000D87000D31146039A91700A925070002007900226019C089D41E7C04608C19000F5
:2017E0000000F07F43020000F8B514460F4605468068002804D4286810218843286001E0B1
:201800000120A860287B1026582808D0782806D0702804D06F2801D1082600E00A26284677
:20182000194600F055F8AA68002A09D102460A4306D12878000749D52B7B0020024612E0C5
:201840002B7B642B03D16423002905D40AE0692B08D1002906D5692301223A6000224042AE
:201860008A4100E00A4600941146324600F0CEF8A968884206DA401C21684A1E2260302278
:201880000A70F5E7287B582803D0782801D070280FD1297809070CD5702800D178202168F7
:2018A0004A1E226008702068411E216030210170287B6F280AD12878000707D520684178C3
:2018C000302903D0411E216030210170F8BDC04610B5037B702B05D10868021D0A6000686A
:2018E00000227BE002683E481040421E04465440944216D9002807D042420240394850434F
:20190000C00E39A2105C00E02020401F082808D878440079400087444C04041E38041E0413
:20192000040000221846643814280DD801248440354804420AD12120044205D00868021DF4
:201940000A600068C21749E0582B46D10868031D0B60006842E018466438142807D801225C
:2019600082402948024206D12120024203D10020582B024632D10868C21D07208243104641
:20198000083008601068526828E0002218466438142807D8012484401B48044204D121208E
:2019A0000442CBD1582B18D10868031D0B60007814E0002218466438142807D80124844052
:2019C0001148044204D121200442B7D1582B04D10868031D0B60008800E01046114610BD4F
:2019E000603F000031B57C0700011C021D0E18031E16140F191104081F1B0D171513100750
:201A00001A0C12060B050A0900081200FEB501920D460646582B01D0174800E015480090E6
:201A2000089802903046284305D1029A1068411E116030210170019C3046284313D0304640
:201A40002946224600F01AF807460D46224605F017FC301A0099085C029B19684A1E1A6056
:201A600008703E46E8E70298006805F083FD401EFEBDC0463C850000A285000080B5102AAE
:201A800006D0082A09D1C0084A078018C90880BD00090A078018090980BD002904D111464F
:201AA00004F07CFF002180BD002305F01DFD80BDF0B58BB0FD4E304602F01AFD2821705433
:201AC000002800D1EFE1FA490978012949D13388F8490A88934200D20B80F74A1488A342B3
:201AE00000D9138073884C88A34200D24B805488A34200D95380B3888C88A34200D28B80AB
:201B00009488A34200D99380F388CC88A34200D2CB80D488A34200D9D38033890C89A34264
:201B200000D20B811489A34200D9138173894C89A34200D24B815489A34200D95381B38959
:201B40008C89A34200D28B819489A34200D99381F389CC89A34200D2CB81D1898B4200D9EA
:201B6000D38107907D200190C0000990D1480188D148028800258A4228460DD933888B42E1
:201B8000099809D99342284606D2581A099C6043511A04F003FF201AC84C308287B2EB4325
:201BA000C74A384629461E4605F06AFB04AA83C2A74201D80A9501E001200A90BD484188AB
:201BC000BD4842888A4228460896B84C0DD963888B42099809D99342284606D2581A099E05
:201BE0007043511A04F0DAFE301A608284B2B54A20462946089B05F043FB0E4604994018A6
:201C0000049005984641AD480594844202D90A98401C0A90A7488188A74882888A4228461A
:201C20000ED9A24883888B42099809D99342284606D2581A099C6043511A04F0AFFE201A5D
:201C40009A49888287B2A04A38462946089B05F017FB0C46049940180390744197480497D4
:201C6000874202D90A98401C0A909248C1889248C2888A4228468D4E0DD9F3888B420998FD
:201C800009D99342284606D2581A099F7843511A04F084FE381AF08287B28D20C243384664
:201CA0002946089B05F0ECFA0E46039940180390664182480897874202D90A98401C0A9010
:201CC0007C4801897C4802898A4228460ED9774803898B42099809D99342284606D2581A1E
:201CE000099C6043511A04F059FE201A0699059A891802916D49088387B28E223846294623
:201D00002B4605F0BDFA0C4603994018059074416A480697874202D90A98401C0A900498EF
:201D200002990E1863484189634842898A4228460ED95E4843898B42099809D993422846D1
:201D400006D2581A099F7843511A04F027FE381A0899711804915549488387B26B20820092
:201D6000384629462B4605F08BFA0E4605994018089066415148874202D90A98401C0A902D
:201D8000069804990C184B4881894B4882898A4228460FD9454883898B4209980AD99342C8
:201DA000284607D2581A099B5843511A04F0F6FD0999081AE4193D49888387B2434A384643
:201DC00029462B4605F05CFA089A80180690714108913A48874202D90A98401C0A90E61900
:201DE0003448C1893448C2898A420ED92F48C089884209D9904208D2401A099C6043511A7E
:201E000004F0CCFD251A00E0099D2848C583ADB270192A498D4202D90A99491C0A91C70811
:201E2000002201214A2F0B46204E00D813460992292433550A9A1346083B5C425C412A23BD
:201E4000F454534253412B243355062A00D809992C22B15405F0B8F9344606461C4903F079
:201E600013FD60624B2F1AD30198C200002128460B4605F005FA069A8018089A514104F09A
:201E80005FFB254604461449304603F06DFC0146204603F0F9FC28620E49086002E00D48EF
:201EA0000068206207980BB0F0BDC04644092020300B2020740A2020640A2020890200002C
:201EC00018FCFFFF36FDFFFF54FEFFFFCA0200000000FA45B80A202000007A44F0B589B0C6
:201EE000BC480078012800D071E1BB48007801285BD0002800D0C8E005F0D8FB044605F0A5
:201F0000E9FA05F05DFB0090BC4B00260625304631462A4605F06EF805F040FB0090B84B2E
:201F2000082130462A4605F065F805F03DFB074605F040FB00970190B24B102130462A465A
:201F400005F058F82088618800900191AE4B182130462A4605F04EF8A088E1880090019183
:201F6000AA4B202130462A4605F044F82089618900900191A64B282130462A4605F03AF818
:201F8000A089E18900900191A24B302130462A4605F030F803F02EFC2921615C0090019105
:201FA0009D4B382130462A46FFE005F063FB054605F064FB074605F07DFB059005F08AFB60
:201FC000049006A805F05AF805F084FA03F012FC0090824B0026062430463146224605F00D
:201FE00009F828683968009001917D4B08213046224604F0FFFF6868796800900191794B35
:2020000010213046224604F0F5FFE86804F0DAFE0546F86804F0D6FE00950190724B18211E
:202020003046224604F0E6FF049F386804F0CAFE0546786804F0C6FE009501906B4B2021EA
:202040003046224604F0D6FF059DA85F0221695E00900191664B28213046224604F0CAFF8F
:202060000420285E295F2A7A00AB07C3614B30213046224604F0BEFF069807990090019129
:202080005D4B3821304622468FE005F0FBFA054605F0FCFA049005F0E5FA044605F0DEFA53
:2020A000039005F00BFB059005F014FA03F0A2FB697D627D00AB07C3584B002706263846BC
:2020C0003946324604F096FF2068554903F04CFB04F078FE05466068514903F045FB04F0E2
:2020E00071FE009501904F4B08213846324604F081FFA0684A4903F037FB04F063FE0546BE
:20210000E068474903F030FB04F05CFE00950190454B10213846324604F06CFF206904F0C2
:2021200051FEE18A00900191404B18213846324604F060FF039C20683D4903F015FB04F012
:2021400041FE054660683A4903F00EFB04F03AFE00950190374B20213846324604F04AFF66
:20216000A068334903F000FB04F02CFE044605F033FA00940190304B28213846324604F090
:2021800039FF049903C9009001912C4B30213846324604F02FFF0598046805F017FA0094F9
:2021A0000190274B38213846324604F023FF254C2578E90000208022082303F027F905F0CB
:2021C0002FFA04490870681C07210140217009B0F0BDC046350B2020380B2020038600009B
:2021E000E3850000D3850000C3850000638200004D860000F38500004D8500006C860000E3
:2022000042860000068500002A86000012860000368600001E8600006F850000A1840000AA
:20222000000020412A850000188500005E8500000000C842F3840000CC8400009185000027
:20224000E0840000370B2020F0B585B006460024214604F020F80028254600D13546A24812
:202260008475A2480078C043A14E317D0143C80715D1A04C2168284602F077FC20609E49BB
:2022800004F01BF800280AD003A89C4981809C49039100218171072101F00CFF307501202E
:2022A0000190002702A804F0E5FC002800D191E002AE307801F06AFE304604F0DBFC002863
:2022C00000D187E002AE307801F060FE304604F0D1FC00287ED002AE307801F057FE30465E
:2022E00004F0C8FC002875D002AE307801F04EFE304604F0BFFC00286CD002AE307801F052
:2023000045FE304604F0B6FC002863D002AE307801F03CFE304604F0ADFC00285AD002AE6B
:20232000307801F033FE304604F0A4FC002851D002AE307801F02AFE304604F09BFC0028E6
:2023400048D002AE307801F021FE304604F092FC00283FD002AE307801F018FE304604F005
:2023600089FC002836D002AE307801F00FFE304604F080FC00282DD002AE307801F006FEFC
:20238000304604F077FC002824D002AE307801F0FDFD304604F06EFC00281BD002AE3078C2
:2023A00001F0F4FD304604F065FC002812D002AE307801F0EBFD304604F05CFC002809D072
:2023C0000F263E4302A8007801F0E0FD10371F2E00D267E74B4908684B4A16884B4B1F882F
:2023E0000C68A0420BD0086816881F880C68A04205D0086816881F880968884203D144497B
:202400000A6890420FD1474C2168284602F0ADFB2060454903F05AFF0024002801D0324883
:202420004475334F5AE0002A07D0821A022A04D32F4CE368D218521EE260086030B204F0E7
:20244000DDFB344D294603F08FF9274CA06038B204F0D4FB294603F087F905462E480178FD
:2024600000290ED02D480088301A00B204F0C6FB284903F079F90146606802F076FB60609F
:2024800001E0019901701A4F24480680787D012818D1234C2168284602F067FB2060124C56
:2024A000F98A4A1C91B2FA828A087D2A0AD30646084604F089FE0146304603F0E5F9E0607B
:2024C00000207875E168284602F04AFB206001206075A075134800210160019C05F058F8B7
:2024E0003861204605B0F0BDDC0920203C0B2020F4092020A00A20200100404001AD000079
:20250000AA060101E80A2020180B20201A0B2020A40A2020CDCCCC3D340B20208E0A202028
:202520009C0A2020040B20200BD7A33CF0B591B00F90012548000D90400D5C00670D59405F
:202540001095EE070E40AB494D1E44198C4200D203E17C198C4200D2FFE0049610990C05EB
:20256000611E00910B400025E9430E91A449019423430C93C01B40180290401C0390D00203
:202580000A90500DD9020B9247189E48C41B3846294622462B4604F073FE4842294622461C
:2025A0002B4604F06DFE4900C00F4418204629463A462B4604F064FE4A42204629462B46E9
:2025C00004F05EFE4900C00F4418204629463A462B4604F055FE4A42204629462B4604F064
:2025E0004FFE4900C00F4018441E3846294622462B4604F045FE06460F460A9829462246A5
:202600002B4604F03DFE70186F411099081A0A902A46BA41204629462B4604F031FEC20FD8
:2026200049008918099146000A98294622462B4604F026FE4A00C00F8018CF0F3418099951
:202640004F41E13C0994AF410F9AD00F0D9909180691520008920E98401E0D902E46AE416A
:2026600008463040034607902046294604F008FE0A910698C043614AD1430143521A0592AB
:202680002C466C4109982946234604F0F9FD0690099138462946089A079B04F0F1FD0890DD
:2026A000079138462946059A234604F0E9FD05900A9A069BD0182B466B41079F3E400D9C07
:2026C000089A224082185E41059838186941099A80186941841969410E98401C47486841C0
:2026E00081424BD2002201988142109800D310460F9B01D3039A029281401F224240670809
:20270000D7400F4384405E05204639460B9A0C9B04F0B6FD40428E4102994A1E3449491E19
:202720008A423EDC012A48DB00990F401205C10F73005B1840001099214040183A430499F4
:202740000A430021651C51410B9E301A0C98984100D3254644D3114642E0002F28D0244926
:202760008F4204D0002823D0884200D0F5E62248064300253146284611B0F0BD6008CA07C0
:2027800084184F080F980605204639460B9A0C9B04F076FD40428E41039A1549491E8A427D
:2027A000C0DD1548049901430025284611B0F0BD00252946284611B0F0BD002A13D10E9918
:2027C0004C400E494F4027430DD1019A56403043294605D1049911430025284611B0F0BD64
:2027E000284611B0F0BD2946284611B0F0BDC046FF07000002F8FFFF0000F07FFFFF1F0022
:20280000FE03000033F30475F0B585B0A34EA44AA44F0120440604900105A34D10681F23BD
:202820001B0698431060032042040020039104F0C7FD9948076042273068204200D083E079
:20284000284604F0F3FE306820427DD1284604F0EDFE3068204277D1284604F0E7FE30686F
:20286000204271D1284604F0E1FE306820426BD1284604F0DBFE3068204265D1284604F070
:20288000D5FE306820425FD1284604F0CFFE3068204259D1284604F0C9FE3068204253D1A1
:2028A000284604F0C3FE306820424DD1284604F0BDFE3068204247D1284604F0B7FE3068FF
:2028C000204241D1284604F0B1FE306820423BD1284604F0ABFE3068204235D1284604F000
:2028E000A5FE306820422FD1284604F09FFE3068204229D1284604F099FE3068204223D161
:20290000284604F093FE306820421DD1284604F08DFE3068204217D1284604F087FE30688E
:20292000204211D1284604F081FE306820420BD1284604F07BFE3068204205D1284604F08F
:2029400075FE163F00D077E75548806902900498020400200190039904F032FD4E48514927
:20296000016042273068204200D083E0284604F05DFE306820427DD1284604F057FE30680C
:20298000204277D1284604F051FE3068204271D1284604F04BFE306820426BD1284604F05D
:2029A00045FE3068204265D1284604F03FFE306820425FD1284604F039FE3068204259D11E
:2029C000284604F033FE3068204253D1284604F02DFE306820424DD1284604F027FE306882
:2029E000204247D1284604F021FE3068204241D1284604F01BFE306820423BD1284604F0ED
:202A000015FE3068204235D1284604F00FFE306820422FD1284604F009FE3068204229D1DD
:202A2000284604F003FE3068204223D1284604F0FDFD306820421DD1284604F0F7FD306813
:202A4000204217D1284604F0F1FD3068204211D1284604F0EBFD306820420BD1284604F07E
:202A6000E5FD3068204205D1284604F0DFFD163F00D077E70A4881691735029845432846CB
:202A800003F08CFF094940180F2801D301980490049805B0F0BDC0462C030B4004020B4007
:202AA00038010B400100000ED103000043F6FFFFF0B593B00F900492002A00D144E1002B10
:202AC00000D141E118980990002800D13CE10E935818129004980B460F9942181846109301
:202AE0001E4604E0761C30B21299814233DD072331461193194001238B40C008C0019349AA
:202B00000D18D8430F9B1F4603E0DB1C1FB2BA42E8DDB1B23F2905D89CB27F2C02D8EC5D36
:202B20000440EC555C1C27B2BA42DBDD3F2905D8A4B27F2C02D8EC5D0440EC559C1C27B28C
:202B4000BA42CFDD3F29E0D8A1B27F29DDD8E95D0140E955D9E70E98401E1290109A500FC9
:202B60001018C51011998843101AD41329190391110B082211400F18D61B0498401E03212F
:202B8000029003F00BFF4B1C0022032B009300D113461298C0080190B8B21190B0B2109022
:202BA0000498C01A0E90E801E10140180F994018664C201812900A93581E0B900398C00148
:202BC000401820180790059210460FE0069B581C0499099A521809921299803112910799F9
:202BE0008031079101998B4200D1ADE00146039806914218551C02980228059958D30021D5
:202C0000099F03E0C91C0E9888424ED00F9840187F2814D8072A06D87C5C119B9C40129B08
:202C20005E5C26435E54072D09D87C5C109BDC40129B5E188027F35D2343F355099F431C3C
:202C40007F2B17D8072A08D87B185B78119CA340129C641866781E436670072D0AD87B18EC
:202C60005B78109CE340129C64188126A75D1F43A755099F801C7F28C4D8072A08D8781857
:202C80008078119B9840129B5B189C7804439C70072DB7D878188078109BD840129B5B1803
:202CA00082241E5D06431E55ACE7009803288DD00F984618099840180D90079840180C9056
:202CC000059C089603E0A41CA74200D17EE737197F2F16D8072A07D80D98035D1198834086
:202CE0000C99085D18430855072D0AD80D98005D1099C8400C990B198026995D01439955B2
:202D0000089E0B98A04200D160E7781C7F280A9FD9D8072A09D80D980019407811998840E1
:202D20000C9909194B7803434B70072DCBD80D98001940781099C8400C9909198123CE5C75
:202D40000643CE54089EBEE713B0F0BD00002020F0B59DB004F034FC05467C480168691AFC
:202D600007D47D2189006918016079480121017004E077480078012800D09DE0754E28247B
:202D8000305D042807D8C0467844007940008744020E080B050004F07DFC0AE004F096FC50
:202DA00007E004F05BFC04E004F08CFC01E004F079FC0746305D04285BD8674A7844007918
:202DC00040008744570206540400664A52E0644A50E004F047FC064604F054FC407D1C9041
:202DE000707D1B90306803F0F9FD1A901991706803F0F4FD18901791B06803F0EFFD1690BD
:202E00001591F06803F0EAFD14901391386803F0E5FD12901191786803F0E0FD3A4607465C
:202E20000C46906803F0DAFD4A4B1A681B6A129E0896119E09960A970B940CAC0FC41A98C9
:202E400000901998019018980290179803901698049015980590149806901398079042488A
:202E60001C991B9A03F068FA002822D124E03B4A00E03E4A1C92386803F0B0FD1B901A9143
:202E8000786803F0ABFD2C4605460E46B86803F0A5FD29222F4B9A5C00952546019602ABF2
:202EA00007C333481C991B9A1A9B03F045FA002802D027480021017026482921415C012902
:202EC00042D12C490A68AA1A3ED464350D602821415C0020042928D87944097949008F448E
:202EE000021E0F180900044604F0E0FB014620460C6A1BE004F0EEFB01464068CC6815E056
:202F000004F0B0FB046804F0ADFB014620464C680CE004F0DFFB014600688C6806E004F072
:202F2000BDFB014640688C6800E0044603F056FD05460E46204603F051FD009001910E48C8
:202F40002A46334603F0F8F91DB0F0BDCC0A2020330B202074092020FB860000988600003A
:202F6000908600000587000071830000A086000008840000D40A202080850000F0B5A5B0EC
:202F8000059308920D46074600260A967A4C3246234603F05BF9002800D12C46354600D1F4
:202FA0003D46284621463246334603F03DF946424641002807D10AAA2846214603F006F915
:202FC0000A98401E0A900898007B0BAF412801D06B4800E069480990089880680190302002
:202FE000049038700022284621460292134603F024F90121002801D0C80744400391781C0B
:203000000790002E0DD024AA2846214603F0DEF8249801210A1A2846214601F033FD05465F
:203020000C462846214603F0FFFA0646079903F0DBF90690304604F04DF802460B4628467E
:20304000214600F037FC04460D460198471C20D3079806994618002220462946134603F07B
:20306000E3F8002848D1002220462946454B04F041FB04460D4603F0D7FA0999095C771C82
:20308000317004F027F804F0D6FA04460D463E46E1E70BA806994618002F16D07F1E00224B
:2030A00020462946374B04F025FB04460D4603F0BBFA0999095C3246761C517004F00AF898
:2030C00004F0B9FA04460D46E6E73178099C204604F01DFA001B08280EDB0196741E089D1E
:2030E000029F099E2178304604F011FA801B0E2805DD2770641EF5E7089D029F04E0099906
:20310000081840782070019E37700A98297B4129059C01D0702100E05021069E079F22464B
:2031200003F0E5F9AA68501C04D1384604F022FA421EAA6038463146234603F043FFA868D0
:203140000028039A02D128680007C20F38463146234602F047FF287B412801D0782000E084
:20316000582021684A1E226008702068411E21600499017025B0F0BD0000F0FF3C85000044
:20318000A285000000003040F0B5A3B01E460F46044603929168002903D0002904D50621EA
:2031A00000E001210398816007910AA83021089101700022204639460992134603F03DF8C9
:2031C00001210028049101D0C8074740634D20463946614A2B4603F04BF800280BD00022DD
:2031E000204639465F4B04F081FA04460F460998401C0990EBE70025204639462A462B46DF
:2032000003F012F8002813D1002220463946544B03F013F800280BD0002220463946514B5B
:2032200004F068FA04460F460998401E0990E3E702960AA8461C2046394603F0F5F905962A
:20324000314603F0D1F807998842019004DD481C0AA90B18085C20E0C9430E180AA90B18B9
:203260000793581C06902046394603F0DDF903F031FF02460B462046394600F01BFB002233
:20328000384B04F037FA04460F4603F0CDF9069B303007994870761CE2D3C0B23528029E1F
:2032A000039F0DD3581E0178491CCAB201703A2A03D330210170401EF5E70AA9884241D087
:2032C000099801990C181D700220C043844202DBB868844207DD601E397B891EC9B23246A4
:2032E00003F005F90124059804F044F9401E0499A0421ADB0028089A01D4059A125C134613
:20330000303B5D1EAB41C9431943C90705D13978090702D40025049905E031684B1E3360FA
:203320000A7001250021401EE2E73868082202402A43501E824105982146334602F052FE3C
:2033400023B0F0BD581E00210170099801990818441C0AA80590B7E70000C0FFFFFFDF4168
:203360000000F03F00002440F0B58DB007920890002201260B9149004F0D5900490D0C91D1
:20338000694C651E09977919A142314600D31146F7070A971F460B9847400C984519A54228
:2033A000344600D314465F4D0A980740214301290AD10C98002800D184E0A8427BD0099891
:2033C00000287FD0A84276D00096069700260125079A500DD90208180590D002039031465D
:2033E000089C2246334603F04BFF049007910195EF0705980743384631462246334603F0A3
:203400003FFF089005910B98C0434949CA4302438A1A02923446744103983146234603F0E1
:203420002FFF05460B913846049F3146029A234603F026FF3F4A17401540079AAA183346B1
:2034400073410B9C20187141059C00197141089C121958417141099B0C9CE318CC0221D497
:20346000354C1B19C40F490009194000D40F0019FC0F520012197D002A4C641EA342069F96
:2034800019DC019C2405002B21DD641E21401B050B43194639436B420A9C2346934126D294
:2034A000401C2AE0244C1B195B1C1E4C3D46641EA342069FE5DD1D48074300263946304606
:2034C0000DB0F0BD0026314630460DB0F0BD1B4D6940C043002A15DB0843002B009916D0E2
:2034E000002817D0009800283146E8D117E06240154303D1019A024080187141064630461F
:203500000DB0F0BD01960843002B0099E8D101990028E7D10091009800283146CFD1274396
:20352000CBE7C046FF07000002F8FFFF0000F07FFFFF0F0000F8FFFF01FCFFFFFFFF1F004B
:20354000F0B589B0049105901178002900D1D3E01D461646002427460393029248B2002891
:2035600012D5E0200840C02824D0F0200840E0282FD0F8220A40601CF02A41D081B2715CD6
:2035800000290446EAD1B7E007A80170002242700598381800B2062D00D19CE0082D00D04E
:2035A000A3E00901574A5118574A891800910822102397E0601C07AA117080B2305C002839
:2035C00000D199E00697A41C07A948700020887030E0601C07AA117080B2305C002800D14F
:2035E0008AE0A11C07AA507088B2305C002800D182E00697E41C07A988700020C87019E07C
:2036000007AA117080B2305C002875D0A11C07AA507088B2305C00286ED0E11C07AA907045
:2036200088B2305C002867D00697241D07A9C87000200871314E307800282BD0002707A9E5
:20364000304602F0DDF8002824D0781C80B2252568432A490E18085C00281BD007A9304620
:2036600002F0CEF8002815D0B81C80B2684323490E18085C00280DD007A9304602F0C0F809
:20368000002807D0FF1CB8B245431C484619405D0028D4D1039D062D0ED0082D069F18D17D
:2036A00005983818711D009100B2102204991346FFF7FEF910370CE00598069F3818104919
:2036C000BA31009100B2062208230499FFF7F0F9BF1D029E0BE006225143094B5918C0390C
:2036E000009108230499FFF7E3F9641C7F19A0B2315C002900D031E709B0F0BD6081000050
:20370000207D00003077000000FEFFFFF0B583B0664801250570019503F0E6FDAE2002F01C
:2037200095FCD52002F092FC8020044602F08EFCA82002F08BFC3F2002F088FCD32002F022
:2037400085FC0026304602F081FC402002F07EFCA12002F07BFCC82002F078FCDA2002F0AD
:2037600075FC122002F072FC812002F06FFCCF2002F06CFCD92002F069FCF12002F066FC4A
:20378000DB2002F063FC302002F060FCA42002F05DFCA62002F05AFC8D2002F057FC1420FC
:2037A00002F054FCAF2002F051FC4148A902054603F045FEB02002F049FC1027384602F056
:2037C00045FC304602F042FC2846214601F00CF8B12002F03BFC384602F038FC304602F032
:2037E00035FC803528462146254600F0FDFFB22002F02CFC384602F029FC304602F026FCAC
:20380000019C20022A490818294600F0EDFFB32002F01CFC384602F019FC304602F016FC2F
:2038200003200290C00122490818294600F0DCFFB42002F00BFC384602F008FC304602F0A4
:2038400005FC60021A4C2018294600F0CDFFB52002F0FCFB384602F0F9FB304602F0F6FBC1
:203860000520C0012018294600F0BEFFB62002F0EDFB384602F0EAFB304602F0E7FB029825
:2038800000022018294600F0AFFFB72002F0DEFB384602F0DBFB304602F0D8FB0720C001D6
:2038A0002018294600F0A0FF03B0F0BD360B202000002020FCB40124E407634002E0FCB4BC
:2038C0000124E40708B41D03ED08D60D354356025F007F0D06D12C00344300D0AEE001B0E0
:2038E000FCBC7047A408254307242402FF34A74205D10020190D090501B0FCBC7047002B63
:2039000003D50024A61BAC4125000B03DB08C20D134342024800400D07D11C00144300D0CE
:203920008CE00EBC1000F0BC704701246407234307242402FF34A04205D10020090D090568
:2039400001B0FCBC7047002903D50024A21A9C412300C11B08D51C002B00250014003200FB
:2039600026000024611A3800362925D502B4393949420C00203C03D22F008F40374301E0A8
:203980003700A740002F01D040210E4302BC20290BD500290ED04C42203420B4A5402C00A2
:2039A00020BC0D41CE40361904E000292E000D4120390E4192196B411C0014433ED0002453
:2039C000002B04D5012400218A1A99410B00401E52005B41FBD50121890215000D400CD00D
:2039E000521800277B4101D3401C0BE00721C90115000D4001D189008A43072109028A43E3
:203A000052005B41801C19DD07210902FF31884209D30EBC0020C90F0902FF31C900C91D71
:203A20000905F0BC7047190B00050143E40721431805120B104301B0FCBC7047002100206B
:203A400001B0FCBC7047F0B589B017460D460446002607931846314602F026FC002810D1BC
:203A60002846394601F07CF83021615C0129089009D1216901F074F8079901F005FF064682
:203A800005E0A76987E02246303201211170E56A67697F20C005294601F062F80146304663
:203AA00001F062FE06462846394601F05DFE314601F05BF805906061E5680898079901F0A1
:203AC00053FE0495294601F050F80646656AA16A069102F0FBFB07463046294602F0DBFBB5
:203AE000002800D13546002F00D10695266860680290069901F038FE054603963046089E09
:203B0000314601F031FE294601F02FF80546A0680190059901F028FE294601F026F8054625
:203B2000276A394602F0C0FB002806D0E1692846079102F0C2FB002819D10021304602F030
:203B4000AAFBE1690791002805D02846394602F0BDFB00280BD10021304602F0B7FB0028E3
:203B60001CD02846079902F096FB002816D00698E0602846394602F0A9FB064628460799FF
:203B800002F089FB002800D10795002E00D1079FA76108982061384609B0F0BD0298049931
:203BA00001F0E2FD05460398314601F0DDFD294600F0DBFF05460198059901F0D5FD294620
:203BC00000F0D3FF0546D4E7F0B583B0029303464A4E70600091F1600192327530681946EC
:203BE00000F0BEFF0546464902F070FB00281FD0444C434F2846214600F0B7FF0546394663
:203C000002F064FB002813D02846214600F0ADFF0546394602F05AFB002809D028462146F0
:203C200000F0A3FF0546394602F050FB0028E1D13549284602F02FFB00281FD0334C324FF2
:203C40002846214600F091FF0546394602F023FB002813D02846214600F087FF0546394615
:203C600002F019FB002809D02846214600F07DFF0546394602F00FFB0028E1D1B5600198AE
:203C8000002824D000270298394602F00DFB00281DD1204C009820401F4902F005FB0028D2
:203CA0001DD02C400126B107204602F0FDFA002815D0124CE08A282803D2411CE182272874
:203CC00011D166752761124803F03CFC13E0104803F038FC002737617775F7820BE0002079
:203CE000064CE08260750A4800222946029BFFF7AAFE07462061384603B0F0BD0C0A20201B
:203D0000000034430000B4C3000034C30000B44340082020FFFFFF7F0000A040F0B585B009
:203D200000280DD0424A8B185B1E934208D3414F414B3A881B88D21A404B9343994206D99E
:203D400043480168491C0160002005B0F0BD03903B4A3C4B1868104018603E8804914C1E7B
:203D60000321204602F01AFE4A1C0021032A104600D10846022C02D2039B304A21E00292D7
:203D800004990190091A04910021039B2B4A5F185D5CB4B218462C4B1D55741C14407D7853
:203DA0001D55B41C1440BD781D550346F61C1640C91C049C8C42EAD1029C032C1D4F019835
:203DC00011D05918204D0B78B4B22B55731C1340012807D04C78EC54B61C1640891C801E6A
:203DE000F1D100E01E463E80134C20883988884210D0154615481449026812060AD422886E
:203E00008A5C82612288521C2A40228022883B889A42F1D122883B880A4C216808480140CD
:203E20000120D21A00D0C2021143216005B0F0BD01FEFFFF280B20202C0B2020FF010000C3
:203E4000FFF7FFFF2810104000042020081110400C0B2020F0B585B01D4616463021029066
:203E6000009101700024104619462246234602F0E4F9002802D00120C00745400B9801902C
:203E80000A9804903E4F304629463C4A3B4602F0EFF9002809D00022304629463A4B03F019
:203EA00025FC06460D46641CEDE70027304629463A463B4602F0B8F9002811D1002230469C
:203EC0002946304B02F0B9F9002809D00022304629462D4B03F00EFC06460D46641EE5E7EA
:203EE0000298401C03900498001904903046294602F09AFB039902F077FA039909180019AF
:203F0000019A10600498441C012C1ADB04913046294602F089FB03F0DDF802460B463046B1
:203F20002946FFF7C7FC0022174B03F0E3FB06460D4602F079FB3030049A511C1070641E92
:203F4000E4D1481E0278352A0DD3891E009C0A78521CD3B20A703A2B02D30C70491EF6E761
:203F6000029A914203D00770039805B0F0BD077001990868401C08600298F6E70000C0FF10
:203F8000FFFFDF410000F03F00002440F0B581B00146424A507A02280FD0012806D00028CD
:203FA00020D100200A2917D001B0F0BD03290BD102205072032050701AE0042904D103208A
:203FC00050720420907013E0354883685B1C836000200A29014602D10A2111700121517248
:203FE00001B0F0BD431C53721154507A092802D2002001B0F0BD002050721178FF23594067
:204000004C0028490C5B5578260A6540AB435B00CB5A5E4094781D0A7440E3B25B00CC5AD1
:204020006540D378260A00935D40ECB264000D5B6E4014792F0A6640F5B26D004E5B774038
:204040005579330A6F40FEB276008F5B7B4096793F0A7340DBB25B00C95A7940D379127A34
:204060001202D2188A4213D10098000200190E490880280280190D4908800D480168491C3C
:20408000016007480168491C0160012001B0F0BD03494A68521C4A6001B0F0BD840A202080
:2040A000F4092020607F0000180B20201A0B2020E80A2020F0B585B002460020002A78D036
:2040C0000B46203B1E24E443A34272D33A4B1E883A4B1B88F31A1F252C469C43A14268D889
:2040E0000392374A374F38681040386004914C1E0321204602F052FC4B1C0021032B1846BF
:2041000000D10846022C039A1FD3029304990190091A049100215718545CB3B210462A4AD9
:20412000D454731C2B407C78D454B31C2B40BC78D4540246F61C2E40C91C049B8B42EAD1D7
:20414000029B032B1F4F019811D051181E4A0B78B4B21355731C2B40012807D04C78D454A4
:20416000B61C2E40891C801EF1D100E01E46124C2680124E3088218888420FD01348124992
:20418000026812060AD432888A5C82613288521C2A403280328823889A42F1D13288238890
:2041A0003968074801400120D21A00D0C2021143396005B0F0BDC046260B20202A0B2020F2
:2041C000FFF7FFFF28901040A009202008911040F0B587B0002B5FD00646007800242D289E
:2041E00001D02B2806D12D38454245410495751C707801E035460494059103920293014645
:204200003039069109291DD80024334F0194303802F0DAFF064620462E4901F0A5FA3146D9
:2042200000F0A3FC0446394602F050F8002836D1691C68780246303A0A2A0D46E7D32E280F
:2042400003D020E029462E281DD148780246303A092A18D88F1C214D2E46303802F0B4FFA9
:20426000314601F081FA214600F07FFC04463046294601F079FA06463878014630397F1CAF
:204280000A29EAD302E00699092905D80026002808D0304607B0F0BD002007B0F0BD019881
:2042A00007B0F0BD01250498002801D0E80744400599204601F0EFFF0028EAD120460399A4
:2042C00002F004F80028304602D102980460284607B0F0BD0000204100401C46CDCCCC3D0A
:2042E000F0B5364908390968CAB2122A64D801210B469340324C23421DD0324832490A6877
:20430000521C0A600168490756D43049304A324B304C05E00F88E5550E8005686D074BD4B2
:20432000C5690E88761CF6B21788BE42F2D11D686D1C1D60F1E70B2A24D00C2A3CD1274ADD
:204340001488274B1D88AC4210D01E4C254D264E27683F060AD41788EF5DA76117887F1CAD
:2043600037401780178818888742F1D110881B88124C2268C9028A43C31A00D119460A4350
:204380002260F0BD0F480168490715D40F49104A114B104C05E00F88E5550E8005686D0766
:2043A0000AD4C5690E88761CF6B21788BE42F2D11D686D1C1D60F1E7F0BDC0462810104021
:2043C0002C00040008111040AC0A20201E0B2020240B202000062020000B20202C0B20206E
:2043E000280B202000042020FF010000F0B5394A8218394BC0183A4D4C790B79002C22D0FA
:20440000466F202B02D00524E70100E0354F2E40002B00D188273E434667846F2C403C4330
:204420008467446B2D4E34404463846B3440846300244465846554688F26F643344054607A
:204440009468344094600C688979202B09D006467036002B15D1641E4460C46E2C408827E8
:2044600015E0641E4460C46E2C401E4E3443C466046F2C40344304671B4D0124670706466E
:2044800007E00527FF0164084460C46E2C403C43C46634682C403C433460C46A0F4D2C40A1
:2044A000C462046B2C4004630024C4640465C46F8F25ED432C40C46714682C401460194379
:2044C00002680A4B1340BD220A40D118891C0160F0BDC04684180000041800008888FDFF3B
:2044E00024493E0001040000FFFFFFCF4000FFCFF0B5002861D005463149324B324A1078EE
:204500000024012820463ED130480078012821D12F48007800281DD00120304E37682F80DD
:2045200077686F80B668AE802D4E3768EF8077682F81B7686F81F768AF813669EE81294D27
:204540002E68761C2E601D6805431D600D6805430D6018E01F4805686D1C0560052D2CD346
:2045600018680125EE433040186008683040086018682843186008682843086016480568C3
:204580006D1C05600020114D2C70114D2C70114D2C60154D2E680124A70237432F60134D00
:2045A0002E68270337432F605D68260235435D604B6833434B601470F0BD0020F0BDC04638
:2045C0000031004000110040310B20202E0B20202F0B2020140B2020EC0A2020806255409E
:2045E00080825540A80A20204810004048300040B0B53A4A80184A6842600A78222A56D811
:20460000930001A4E3589F46A5460000AF460000A5460000AF460000AF460000AF46000098
:20462000AF460000AF460000AF460000AF460000AF460000AF460000AF460000AF460000D2
:20464000AF460000AF46000095460000AF46000095460000AF460000AF460000AF460000E6
:20466000AF460000AF460000AF460000AF460000AF460000AF460000AF460000AF46000092
:20468000AF460000AF46000095460000AF46000095460000036803242407A3430124640752
:2046A0001B1903E0036803242407A34303600B69C360CB68C46A0A4D25400A4C1C402B1933
:2046C000C3620368084C1C400460097A114302683F239A43194051180160B0BD041800000A
:2046E0008888FDFF777702007F00FFFFF0B59FB003930E46054604929168002902D5062162
:204700000498816002910024344F2846314622463B4601F09BFD002800D13746264600D1D8
:204720002E46304639462246234601F07DFD002820D100242A4D02F08BFF01F07EFD002810
:2047400009D0002230463946264B02F0D3FF06460F46641EEFE7234D02F07AFF01F07FFDF3
:20476000002807D002F074FF02F0C0FF06460F46641CF1E7029905A80091019006A832469B
:204780003B46FFF767FB0646059F022F049D08D1641C304602F0EEFE3018401E0021017099
:2047A0000127297B2046039C224601F0A0FEAA6830463946234602F005FC304602F0DAFE8E
:2047C000874203D128680007C20F00E0012230463946234601F006FC1FB0F0BD0000F0FF15
:2047E0000000F03F00002440F0B585B00F4605460124204602F032FD0394204602F01CFDF8
:204800000026304602F02AFD304602F015FD782000F07AFA2B4C217801402170402000F03B
:2048200073FA217801402170002F3ED00497781E032102F0B3F8491C03290F4600D137463D
:20484000049803281FD301910297C01B04900026AF19A85D00F058FA217801402170787875
:2048600000F052FA217801402170B87800F04CFA217801402170F61C0498B042E8D10198CE
:204880000328029F11D0AD19287800F03DFA217801402170012F08D0687800F035FA2178D3
:2048A00001402170AD1CBF1EEED1002002F0D6FC039C204602F0C0FC204602F0CFFC05B052
:2048C000F0BDC046360B202070B52C4984204861012253032A4803600B464C3B85241C6072
:2048E000D407284B1C60284CE51C0E46083E35600E1F35600D46103D82262E600D460C3D16
:204900002C600D46203D2E600D461C3D2C600C46343C812525600C46303C25600D611B4C90
:2049200065630E46583E3560194D4D622560194C0C600D680D604C604C684C60194630390F
:2049400012070A601A46403A03210C031460124A1A600246303A114B1360036010480268D7
:204960000F231B04134303600E48026A09020A43026202680A43026070BDC04664804240FD
:20498000D0320A40D0120A40820004008C8042408100000281000C00003000100310100018
:2049A00090330A4028300A40F0B584B03049314A0125AC0316682B0203939E4316600E6898
:2049C000264205D10E68264202D10E682642F6D06C02467E9769AF432E40BD1995612025A1
:2049E000455DD6690327BE433D407519D561224D2E680727374005262E60466A3368136247
:204A0000736853622F60C3695B065B0CD5697F263602B543EB18D361E8C8009707680197EB
:204A2000476802971B071B0B2D03ADB2ED1833071B0D007A009E35431D43019B1D43029B67
:204A40001D43054390690D4B03400D482840C01890611068039B184310600868204205D10B
:204A60000868204202D108682042F6D004B0F0BD04020B4008010B40001340408D00F0FFE4
:204A800072FF0F00F8B515460C462B4E0A0D771C3A402A4B9A4213D0002A1AD10122D2075A
:204AA0009143014345D00022254B214602F022FE0C4624498D4209DC234A244B214635E0F3
:204AC000214602462346FEF7FAFE31E0220D3A40363A5119B1420ADD02F010FE22210160BF
:204AE0000120C00704401D482418002021E0012904DB174A1440090564181AE03522D2431A
:204B000091420ADC02F0FAFD2221016012488542E6DA0120C0070440E7E70D4A14400905BB
:204B20001B2252058918214300220A4B02F0E2FD0C462146F8BDC046FE070000FF07000015
:204B400000005043AF3CFFFF59F3F8C21F6EA501FFFF0F800000903C51C300000000F07FC4
:204B6000FCB40127FF07794002E0FCB40127FF070C024D002D0E03D1002C52D1FCBC7047B6
:204B80003C43FF2D50D0A408002900D56442020243001B0E04D1002A43D10800FCBC704700
:204BA0003A43FF2B41D09208002800D552425E1B04D5170022003C0076422B00192E06D546
:204BC00027003741D2191C27F71B7F42BC40002A27D002D55242012700E00027013B5200F0
:204BE000FCD51500802635400FD01500202635402C43803208D21500402635402C4304D1D6
:204C000001263602B24300E05B1C5200023308DDFF2B0BD2500ADB051843FF073843FCBCA8
:204C200070470020FCBC70470800C70FFF07FF20C0053843FCBC7047F0B5294801460839DE
:204C40000968CAB2122A09D801210B469340254C234204D024480168491C0160F0BD0B2ADD
:204C600023D00C2AFAD1214A1488214B1D88AC4210D0204C204D266836060BD41688AE5D2F
:204C8000A6611688761C1F273740178016881F88BE42F0D114881B880268C9028A43E31A45
:204CA00000D119460A430260F0BD124801684907D4D41249124A0C4B124C05E00F88E5558B
:204CC0000E8005686D07C9D4C5690E88771C3F263E401788BE42F1D11D686D1C1D60F0E7CB
:204CE000289010402C000400FC0A20202A0B2020260B202008911040A00920201C0B202017
:204D0000220B20200008202070B50646C00902F0A5FA0124204602F08FFA0025284602F088
:204D20008BFA40203040800902F098FA204602F083FA284602F080FA20203040400902F077
:204D40008DFA204602F078FA284602F075FA10203040000902F082FA204602F06DFA2846EF
:204D600002F06AFA08203040C00802F077FA204602F062FA284602F05FFA04203040800891
:204D800002F06CFA204602F057FA284602F054FA02203040400802F061FA204602F04CFA9F
:204DA000284602F049FA2640304602F057FA204602F042FA284602F03FFA204602F04EFA64
:204DC000204602F039FA02F07BFB06466640284602F032FA304670BDF0B581B0234B244E09
:204DE00001277C02234800210160321F10680F210902884300190092106030460838016817
:204E00000322D2430A4002603068B84330603068184030601848FFF7C7FDFDF7F5FC0028E2
:204E20000BD0009A106810210143202081431160002001F0ADFC01B0F0BD104D03E0FDF74F
:204E4000E3FC0028EDD13068084908403060306839020143316028682042F0D1286820427F
:204E6000EDD128682042F6D0E9E7C046FFFEFFFF08010B4008030B405C84000004020B4010
:204E8000F0B583B01B4801901B4800901B4E1C4900241C4B3046224602F05AF97F20C20571
:204EA0001949304601F0AAFF1849304601F0DCFF174E0196174F0097174D3F2001062846AC
:204EC0002246234602F044F928463946324601F095FF28460D4901F0C7FF10480460104859
:204EE000046044608460C46004614461846103B0F0BDC04600009643000096C3A80820202B
:204F0000000082430000C040000080BF9A99593F0000A0420000A0C210092020B40A202027
:204F2000C009202080B582B002F04AFB01F0EEFD01A801F0D7FE002800D142E002F040FB37
:204F4000014601A80078FBF7BBF80028F0D101A8007843383528EBD878440079400087445F
:204F60001E1D271D211D241D1D1D1D1D1D1D1D1A2A1D1D1D1D2D1D1D1D1D1D1D1D1D1D1D61
:204F80001E1D271D211D241D1D1D1D1D1D1D1D1A2A1D1D1D1D2D01F0FBFAC9E7C8E702F02C
:204FA00055FAC5E702F01EFBC2E702F067FABFE702F07CFABCE702F02DF9B9E702F0E4F9B7
:204FC000B6E702B080BD7047F0B58B4200D1824204D90B0002000021002040E0002B00D140
:204FE000002A0CD10B00020000210020002B00D1002A01D0C943C04300F0BFFD2FE01C007F
:2050000015000B0002000CB4002126002F00FF19764102D2491C4029F9D100201E001700A8
:20502000FF19764102D2401C4028F9D10E1A21002800320002F098F90C0005000CBC002020
:205040000021A34200D1AA4201D3521BA341404149416D08E7073D436408761EF1D5059F10
:20506000002F01D03A607B60F0BD704770B51E480068022836D11D4A1046103801680320A2
:20508000000208402ED0136803431360184A1268D30902241C409205D20FA218154B1C7834
:2050A000A4001419E5B2144C64571E78B24208D00126AE40114D354003D0114D2E68761CCA
:2050C0002E60104D2E6834192C601A70C90503D50D490A68521C0A60400A03D00A480168CE
:2050E000491C016070BDC0463011404048300A4080330A403A0B2020B3850000699600007B
:20510000F80A2020F00A2020F40A2020F0B583B0029314460D46064608461146FFF725FDB2
:205120000746306028462146FFF71AFD0546019670603E4600243846214601F0ACF80121BA
:20514000CF070028009600D07E402846214601F0A2F8002801D12F4600E06F40029C3846B3
:20516000314601F0B3F8002800D137463846214601F0ACF8002815D00021384601F0A6F8F1
:2051800000280FD02046394600F07EFB04460098214600F0E9FA019E30602846214600F0AA
:2051A000E3FA706003B0F0BD002A49D084468B071CD1830722D1102A08D370B4103A78C915
:2051C00078C0103AFBD270BC103238D0042A2CD3082A05D30C2A01D308C908C008C908C097
:2051E00008C908C092072AD0920F22E00B780370491C401C521E22D08B07F7D1C30714D1BE
:205200008307D8D0121F12D308C903801B0C4380001D121FF8D20AE008C903701B0A4370EA
:205220001B0A83701B0AC370001D121FF4D2121D05D00B780370491C401C521EF9D160464F
:205240007047FEE770B519480168194A13680124A3431360151F00232B60164D2B80164D14
:205260002B60156825431560144C02222260BFF34F8FBFF36F8F124C2568032636022E4346
:205280002660104C2360104C2360104C2360104B1B68DC0914409B05DB0FE3180D4C237063
:2052A0000D4B1A60890700D5026070BD00E100E0041809409A0A2020C00A202080E100E0D3
:2052C00048300A40F00A2020F40A2020F80A202080330A403A0B202080E200E0F0B5184A87
:2052E00000211170174B197017480170174C2160174D2960174D2960174D2960174D10260C
:205300002E6020272F60164D2E602F60117019702160144A136801218C021C431460124A66
:2053200013680C031C431460104A13680C02234313600F4A1368234313600170F0BDC04683
:205340002E0B20202F0B2020310B2020140B2020A80A2020EC0A2020100B202080E200E0BA
:2053600000E100E04810004048300040041100400431004080B51849002008700872C87171
:20538000887148710871C8708870487048721349086048608860C8600861486110490860F1
:2053A00048608860C860086148610E4908800E4908800E4908600E4908600E4908800E49B1
:2053C00008700E4908600E4908600E49086000F0CFFE0D49087080BD840A2020DC0920205D
:2053E000F4092020180B20201A0B2020E80A2020A40A20208E0A2020340B2020040B2020E2
:20540000A00A20209C0A20203C0B2020F0B583B0002A41D0002B3FD01218C417A043802A56
:2054200000DB8022824237DDCC13072525404D192DB2ED10CB185B1E5E0F9B19DF102E19B2
:20544000002900DB7F1CB74226DD144909180291C1B20909103101910F250540101AC0B233
:205460000090344603E0761C34B2A74214DDB0B20728F8D8B0203043C0B200F0E7FD01986A
:2054800000F0E4FD284600F0E1FDE001029908180099FFF7A9F9E6E703B0F0BD00002020C5
:2054A000174802210160BFF34F8FBFF36F8F1548026803231B0213430360134A0020106019
:2054C000124A1060124A1060124A1268D3090B409205D20F9A18104B1A70104A1160104A03
:2054E000116010490A6801239A430A600A1F10600D4A10800D4A10600868184308607047D4
:2055000080E100E048300A40F00A2020F40A2020F80A202080330A403A0B202080E200E00A
:2055200000E100E0041809409A0A2020C00A202010B51D491D4C204601F0E0FF1C492046C2
:2055400001F098F81B4801680322D203914301600169194A0A404121890051180161416958
:205560001B220A4324218A434261426801210A4043688B439A184260104A13688C021C4347
:20558000146002684B0413430360C26870231343C360C2680223134305229343C3600268C0
:2055A0000A43026010BDC046208700000000104058860000001110400000FFFF28101040AD
:2055C000F0B581B01C491D4C204601F015FF1C492046FEF70BFF1B4801681B4A0A40026015
:2055E00000250095204629462A462B4601F03AFF204629462A4601F0F1FE7D2046012046A2
:2056000031462A4601F096FF01270097204629462A462B4601F026FF204629463A4601F04C
:20562000DDFE204631463A4601F084FF074887600321016001B0F0BD7586000000008740E3
:2056400088860000041887407F00FFFF0011874010B51C491C4C204601F050FF1B49204602
:2056600001F008F81A4801680322D203914301600169184A0A401532026141692D220A4339
:2056800012218A434261426801210A4043688B439A184260104A13688C021C4314600268E4
:2056A0004B0413430360C26870231343C360C2680223134305229343C36002680A430260CE
:2056C00010BDC046228700000080104062860000009110400000FFFF2890104040B5420078
:2056E0004B005E08164301D006004E4000D4D01A04D20120C90F06D1404204E003D9012074
:20570000C90F00D04042FF263606B24200D8B34200D9012040BD40B542004B005E08164305
:2057200001D006004E4000D4D01A04D20120C90F06D1404204E003D90120C90F00D0404213
:20574000FF263606B24200D8B34201D90120404240BD42004B000020FF2109068A4200D82D
:205760008B4200D901207047FCB40127FF0706004E4001D4002600E03E00020243001B0EB0
:2057800030D03A43FF2B30D00C024D002D0E29D03C43FF2D29D05B194240504042404C409B
:2057A00061404C4000B501F047FA20BCAE464240504042404C4061404C4025001400002C53
:2057C00001D46400013B803401D3013364087E3B08DDFF2B09D2BC43200ADB0518433043B2
:2057E000FCBC70470020FCBC7047FF20C0053043FCBC7047014800787047C0463B0B2020E1
:20580000024670B50A4392072AD11E4DEE0104C808C9541B9443344017D0D0B2D9B2401A3B
:205820002106014310D190B299B2401A210401430AD110021902000A090A401A21020143E6
:2058400002D1100E190E401A70BD9A42DFD010BA19BA884201D9012070BD0020C04370BD3F
:2058600002780B7801300131002A09D09A4207D102780B7801300131002A01D09A42EFD01B
:20588000D01A70BD01010101FCB40127FF0706004E40F60FF607020243001B0E2DD03A438F
:2058A000FF2B2DD00C024D002D0E26D03C43FF2D26D05B1B0020202164085208A242404192
:2058C000A24200D3121B013904D0002A01D05200F4D18840384201D14000013B803001D3B0
:2058E000013300E040007F3307DDFF2B08D2400ADB0518433043FCBC70470020FCBC7047C4
:20590000FF20C0053043FCBC70477047F0B583B01B4C204600F0E2FF01F0ACFE054601F0BD
:20592000ADFE064601F0AEFE074601F0AFFE024614480078022808D1396878687B7D012B24
:2059400006D1527D0123534003E001F0A7FA12E0002301221A402346FEF736F9024601A865
:205960000021094BFFF7D2FB02990198F368EA68009400F00DFD00F03DF903B0F0BDC046F4
:205980000AD7A33B3B0B202000005C4310B51749174800F083FF17484168174B0B40012156
:2059A0000A049B1843608368144C1C408B06E3188360134B00241C6002245C6004249C6069
:2059C0000524DC6006241C61036813430360C82242610C4A136A0C0323431362136823436C
:2059E000136002680A43026010BDC046808600000020004000310040FEFFECFFF8FFE0E0D2
:205A00008031004028300040F0B581B01248134A42601348426013484260134C6260134D53
:205A20006A60134E7260134F7A6013494A6013484260134A084B1A60094B1A60094B1A6064
:205A400022602A6032603A600A600260102001F0EDFD01B0F0BDC04600080A40030000B1CD
:205A600000280A400008874000080940004808400088104000081040000800400028004024
:205A800001000026F8B5451C00780023082B32D02F78C2070CD16A780F241440E41C122C0D
:205AA0000BD102242E57F4B2002E08D4EE1C0EE06D1C4A1C0F7011461AE0AE1C08E02E1DFB
:205AC000ED7800957F252C40009DED012C1912343D0112095219094DAA420ED0D243002C81
:205AE00005D08D5C4F1C0D70641E3946F7E7354640085B1CCAE72846C5E7F8BDFF0F000059
:205B0000B0B50D460446401E844101290EDB01210022204600F0A0FF7D20C000854200D31D
:205B200005462046294601F0C1F8B0BD002D09D4012A17D1012120460A4600F08DFF7D2020
:205B4000C1000BE000210122204600F085FF684281B27D20C000814200D30146204601F00D
:205B6000A5F8B0BD00252046294601F09FF8204629462A4600F070FFB0BD704710B501F01B
:205B80001FFD0446FFF7CEF915480168611A03D4611C016001F0B6F912480168611A03D437
:205BA000611D0160FFF7B2FE0F480168611A04D421460A310160FFF706FA0C480168611A1C
:205BC00004D421461431016001F050FD08480168611A03D428340460FCF780F910BDC04698
:205BE000D80A2020C40A2020DC0A2020C80A2020D00A2020F0B581B01A4C207A01282BD128
:205C0000607AC00728D10020215E0422A35ECD1A2721C9438D4200DC0D462822282D00DB71
:205C200015465B19A3800225675F0625665FBF1B8F4200DC0F46282F00DB1746F119E180BF
:205C4000094E327819B2FFF75BFF615F32780120FFF756FF01B0F0BD0348007800F059FAEE
:205C600001B0F0BD900A2020480B202070B50446049D10680E1A11605E43666020688019B0
:205C8000206000F0BBFF1349FFF76EFD20610021284600F01BFB00281AD0304600F0AEFFE2
:205CA0000C49FFF761FD2946FFF7EEFDE5682946FEF756FF0849FFF757FD2946FEF755FF92
:205CC000E0600649FFF750FD0549FFF7DDFDA06070BDC046920A063E3333B33E00007042B8
:205CE0001A344C43F0B583B015480190154D0095154801218E070024144F314622463B460F
:205D000001F026FA00950E480190114D2846314622463B4601F01CFA0B4801F013FC284602
:205D200001F010FC0B48046044608460C460046144612046214600F0CBFE03B0F0BDC0460D
:205D400000806D4400806DC4740820200AD7A33CDC082020240A2020FEB502930F46194D50
:205D60000024E143184E00973740019043422B46BB4101D20C4623E0084602990E405342F0
:205D8000B54101D204461BE0134601990B433E431E43029D009E13D02B46334004D401995C
:205DA0008B1A3346AB4103E00199531A2B46B341044605DB51406E400E43701E8641344601
:205DC0002046FEBD0000F07FFFFFFF7F10B515490124A00700F062FD13484168134A0A40CE
:205DE0002104521842608268114B134062069A188260104A022313600323536007239360F5
:205E000002680A430260C82141610B490A6AA3021A430A620A681A430A6001682143016041
:205E200010BDC0467886000000110040FEFFECFFF8FFE0E080110040281000400F480021E0
:205E400001800F4801800F4801800F4801800F4801600F4801600F4801600F48016801222E
:205E6000D3029943016001680C4B0B43036050030B4908600B4908607047C0461E0B2020AE
:205E8000240B2020280B20202C0B2020000B2020AC0A20200C0B202028101040160402006D
:205EA00080E200E000E100E0B0B501F089FB04460F48002101700F4801800F4804600F48E8
:205EC00001700F4801700F48012101700E4D2C21284601F0B4FA8120400028852046643062
:205EE0000A4908607D208000201809490860B0BDA0072020200B2020BC0A2020390B20208F
:205F0000320B2020330B202074092020D40A2020CC0A2020F0B581B0134E30680124A043BE
:205F2000306020071149086011480460022101607D2149010A46603202602205026070681A
:205F4000002800D001460B4F39600B4D0022284601F0F0FA39682846224601F0EBFA306867
:205F60002043306001B0F0BD04188740A0120A40A0320A40440B202000008740F8B5044688
:205F8000164F174D0E462E400120009464423C46B4411AD31D405442AF4116D31046009CF9
:205FA00020433543054311D00020C0431C460C400ED4009CA41A0C469C4106DB0098504098
:205FC00059400143481E81410846F8BD0020F8BD009C141B1C468C41F0DAF6E70000F07FD4
:205FE000FFFFFF7FF8B51C4617460E46054601F0C1FA0021012E03DB864201DCA919491E72
:20600000002F04D02268531E23602E2313703246824206DD23685F1E276030271F70521E27
:20602000F6E7B04200DB3046012808DBA9420BD308782268531E23601070491EF6E7206821
:20604000411E216030210170F8BD0000F0B581B005460124204601F001F9204601F0ECF817
:206060000026304601F0FAF8304601F0E5F87820FEF74AFE0D4F3978014039703046FEF726
:2060800043FE3978014039702846FEF73DFE397801403970304601F0E1F8204601F0CCF890
:2060A000204601F0DBF801B0F0BDC046360B20208446830706D0002A29D001700130013AA7
:2060C0008307F8D1042A1CD30906090E0B0219430B041943082A10D30B00102A09D370B4FC
:2060E0000F24161B22400C000D003AC0103EFCD870BC082A01D30AC0083A042A01D302C0A3
:20610000043A002A03D0013A8154013AFCD26046704770B5012816D100250124284621467A
:20612000224600F099FC7D20C6002846314600F0BDFD20462146224600F08EFC20463146F4
:2061400000F0B4FD70BD00242046214600F0AEFD20462146224600F07FFC0125284621464A
:2061600000F0A4FD28462146224600F075FC70BD0D48002101800D4801800D4801800D48CB
:2061800001800D4801600D490A680120C3029A430A600A680A4B13430B60C103094A1160C3
:2061A000094A11607047C0461C0B2020220B2020260B20202A0B2020FC0A20202890104056
:2061C0001604020080E200E000E100E070B514460F4D0B462B40002222600E4EB34215D827
:2061E0001E46064312D01E0D07D100220A4B01F081FA0D403522D2432B461B0D9A18074BD4
:20620000D2182260064A0A400649511870BDC046FFFFFF7FFFFFEF7F0000504302FCFFFF16
:20622000FFFF0F800000E03F10B5FFF7A7FE002801D0002010BD012010BD10B5FFF79EFE27
:20624000002801DB002010BD012010BD10B5FFF795FE002801DD002010BD012010BD10B56B
:20626000FFF77AFD002801DA002010BD012010BD10B5FFF771FD002801DC002010BD012097
:2062800010BD000010B5FFF729FA002801D0002010BD012010BD10B5FFF720FA002801DBA6
:2062A000002010BD012010BD10B5FFF717FA002801DD002010BD012010BD10B5FFF72BFA76
:2062C000002801DA002010BD012010BD10B5FFF722FA002801DC002010BD012010BD000029
:2062E000B0B582B00D4801900D4800900D4D0E4900240E4B2846224600F02AFF0C4928465C
:2063000000F0B2FD284601F01DF90A48046044608460C4600461446102B0B0BD0000344367
:20632000000034C340082020000020403333B33E9A99593F0C0A202083B010B5B1B033ACCE
:206340000EC4002818D0044633AB009301A8C021224600F003FB00280ED40146C02804D3B0
:206360000A48416A491C41620AE001A8FDF7D6FC002801D0012004E00448016A491C016242
:20638000002031B010BC02BC03B0084774092020F0B581B01C460D460146069E0F4F21C7F7
:2063A0003A607B600E483346083FFDF74CFB38610C48294622463346FDF745FB0446786183
:2063C000386900F0FFFC0546204600F0FBFC0146284600F07DFB01B0F0BDC046240A2020AA
:2063E00074082020DC082020F0B587B00191064602AD0020E874123537460A243846214601
:2064000000F04AF84443391BCA175140891A3031297009376D1E122F0746EED8002E01D43E
:206420006D1C01E02D20287002A8441B224614320198294601F066F91334204607B0F0BDED
:20644000F0B5FFB086B01C4615460246A868002801D50620A8602368039304AB009001937D
:2064600005A80B46FDF7F6FC0646049FAA683946234600F0A7FD20680399814201D00122E0
:2064800002E028680007C20F304639462346FFF7A9FD7FB006B0F0BD1CB5002922D04C08E6
:2064A000002900D5494242105440002800D5404200230A00904201D95200FBE790425B4173
:2064C000904200D3801A914201D25208F6E71900002C00D54042640000D549420200080036
:2064E00011001CBD01000020FFF70FFA1CBD7CB515460C460646C01731464140081A00920C
:2065000000210A226423FBF781FA30460930122808D8DF202040502804D02868411E29604E
:2065200030210170002E01D42B2000E02D2029684A1E2A6008702868411E296004707CBDFE
:206540000CB5030008001900BE228646002803D407D1002905D10CBD002349428341180081
:2065600006D4013A4000CB0F184349000028F8D5803001D3013200E04000400AD205104308
:206580007346002B02D50122D20710430CBD000010B5104C207805281BD001F02FF8002817
:2065A00017D100F017F900F0B9FB00F021FE01F019F800F073FC01F027F8002001F02AF89C
:2065C000012000F0CFFC00F0FBFF034908600220207010BD3B0B2020B00A202080B50A49BA
:2065E0000A4800F009FF0A480A49C1620022C267094B0360016309490A6003600849416012
:2066000008480121016080BD59840000000009400418094001000200129200108418094043
:20662000FFFF0000081109400CB54A00520D03231B02FF33D21A13D31F239A1A12D98E4694
:20664000C9020123DB071943D1400B2A02D21532D04001437346002B00D5494208000CBD43
:2066600000200CBD0B000120C007002B00D401380CBD000070B511221302C218C4580125B4
:20668000AC43C4500C888D7825438C882C43C558084E2E40084D25407419C4508879CB79F2
:2066A0000343087A184351687E23994318400818506070BDE798FDFF1867000080B5FEF708
:2066C000EFFEFEF7BFFD0B480021016041608160C16001610848016041608160C16001618C
:2066E00000F022FD0549086000F04CFF0449086080BDC0463C0A2020500A2020E00A202058
:20670000E40A202080B5FEF7E9FD0A48302100F096FE0948002101700848016008480160CF
:2067200041608160C16007480749016041608160C16080BD44092020300B2020B80A2020CC
:20674000740A2020640A2020FF0FFF0F10B500F037FF044600F0EEFB601C08490860601DF1
:206760000749086020460A3006490860204614300549086028340548046010BDD80A2020AE
:20678000C40A2020DC0A2020C80A2020D00A202010B50E490E4A01235C05906008682042DE
:2067A00005D10868204202D108682042F6D010681B04034313600868C00605D40868C00631
:2067C00002D40868C006F6D510BDC04604020B4004010B4080B5FEF735FD0B48002101603D
:2067E00041608160C16001610848016041608160C160016100F098FC0549086000F0C2FEF4
:206800000449086080BDC0463C0A2020500A2020E00A2020E40A202010B50F4A0178531806
:206820005B78401CDB06F9D42D2901D02B2901D1027801E0401E0A46431C0020303A092A09
:2068400005D80A24444310191A785B1CF6E72D2900D1404210BDC0467082000080B500F004
:2068600019F9FEF702FC00F05FFDFFF727FFFFF749FFFEF77FFDFEF703FBFFF731FDFFF7EF
:2068800031FA00F09DFE0349086003480021017080BDC046B00A20203B0B2020F0B5112216
:2068A0001302C2180C780B4D46590B4F374003262640BC19A9263606A41944514C68C5580B
:2068C00007263606B54334402C19C45048781061F0BDC04608080000FCFFFF0010B582B0A5
:2068E000044600F021FC014600940848084A0023DB43FFF7BBF900F045FE0146009405487E
:20690000054A0123FFF7B2F902B010BD3C0A2020E00A2020500A2020E40A202070B50246FF
:206920000020002904D170BD521C491CA342FAD113780C78002B0DD0002C0BD01E46413E88
