:20000000008020205F540000AB430000AB4300000000000000000000000000000000000091
:20002000000000000000000000000000AB4300000000000000000000AB430000AB430000F6
:20004000AB430000AB430000AB430000AB430000C94E0000F54E0000AB430000AB430000B2
:2000600000000000AB430000AB430000000000000000000025540000AB4300001D540000CC
:2000800085510000AB430000AB430000AB430000AB430000AB4300000000000000000000E4
:2000A000AB430000AB4300000000000000000000AB43000000000000AB430000AB4300009A
:2000C000F0B5FFB08EB0049306920646929802900025E84305908C913468204605F01FF946
:2000E00021188B9503918C4200D3C2E00020879087A908738890059889902F46049D207872
:20010000002800D1B8E0252805D0641C34600699A8477F1CF3E78B97601C306087AC20464E
:20012000314600F0C1F88CAA2046314600F0DDF8306801787A2925D0682919D06A2908D039
:200140006C290ED0742908D04C2922D1879980221BE087990122D20217E0879901225203EC
:2001600013E0427887996C2A6AD10122120205E042788799682A66D101225202114387913F
:20018000801C05E08799012212030A438792401C0178441C346087A80173732913D06E299E
:2001A0001DD1879836490840411E02464A408A423DD900282DD04142014032484143C80E9B
:2001C00031A1085C26E087A80078400619D4009587A88CAA8BAB069900F046F92BE007AD4C
:2001E00087A98CAA284600F095F9024628460699029B9847411C059D00D0C5198B95039973
:200200001BE0009587A88CAA8BAB069900F0C9F811E02020401F082809D8C0467844007987
:2002200040008744210404151C04150404008C9802C88C900F6003998B9D681C1BD052E753
:20024000401C402201E0401C2022114387919FE7F8178C9904C98C9117605060EBE78C9834
:2002600002C88C900F70E6E78C9802C88C900F80E1E72F4600E0059F38467FB00EB0F0BDDA
:20028000603F000031B57C0700011C021D0E18031E16140F191104081F1B0D1715131007C7
:2002A0001A0C12060B050A0910B50A680124E3071AD01378302B0CD0232B0ED02B2B0AD08F
:2002C0002D2B04D00024202BF1D1042306E0012304E0102302E0022300E0082304681C439C
:2002E0000460521C0A60E1E710BDFEB516460D460446086802782A2A10D13068011D31601B
:2003000000686060002805D54042606020680121014321602868471C2F6017E00021303AFE
:20032000092A08D84218531C2B60435C6F467B545278491CF3E76A460023535412784718C7
:20034000002A03D0684604F079FA606038782E2826D1781C286079782A2908D13068011DDF
:2003600031600068A0602868401C2860FEBD00203039092908D839188A1C2A604A786B46C6
:200380001A548978401CF3E76A46002111541078002804D0684604F051FAA060FEBDA16055
:2003A000FEBDF0B587B01E460C9F13681C1D14601D68002D3AD0049106908468002C04D498
:2003C000284604F09CFF844203D3284604F097FF044606984068A042039000DC20460146FE
:2003E00030680191401805940399A142029630600EDD06980078C0070AD1059801990E1A39
:200400000024B44204DA20200499B847641CF8E70026049C069805998E420ADA2868010A58
:2004200018D12D1D2146B847761CF3E70020B84718E00599039A8A4214DD0078C00711D088
:200440000198451A0024AC420CDA20200499B847641CF8E70020C0430299086004F0EEFF6A
:200460005821016007B0F0BDF0B585B00C4606460A9D1068011D116000680490002844D0E0
:200480000393B768002F04D4049804F048FF874203D3049804F043FF074602967268BA429D
:2004A000114600DC3946039B1868009140180192BA4218600FDD02980078C0070BD1009843
:2004C000C01B039000260398864204DA20202146A847761CF7E70026BE4205DA0498805DC3
:2004E0002146A847761CF7E70198B84210DD02980078C0070CD00098C61B0027B74207DA87
:2005000020202146A8477F1CF8E700202146A84705B0F0BDF0B58BB004920D460446FF21C0
:200520000846FA30271868680590002609960691FE3120222046029204F040FE7F20800087
:2005400021180A9103973E71287B0246613A172A08952BD8012393402546C34C23422C46CF
:2005600009D009A90AAA089D2846049B00F082F900260796B9E0712423422C46089D22D1BF
:20058000022A13D1049B1868021D1A600068C2B2534253410793069AFC32A2180A92087058
:2005A000286802218843286000269EE001464539032908D3252800D180E0412803D058288B
:2005C0000796CED092E00194049A1068C01D07218843014608311160076846682D7B2C46CB
:2005E0007B3C384631463A46334604F025FC002800D021E10120C007314681439B484840B9
:2006000038431FD0F60F002007902846413806283FD9613D062D019C00D922E1A80002A2F1
:200620001058089D8746C046A9060000EB060000EB060000EB060000E1060000D506000096
:20064000C90600000022384631460792134603F05AFE1921CA436921049149216E254E23A3
:2006600066274626944200D33E46039AD670019C00D32B46937000D3049951703F21C90033
:2006800061180A910028089D14D02D20107004262BE0019C089DC04678440079400087440B
:2006A000032424241F1913000AAB38462A4601F08BF81AE02B201070032616E00020607095
:2006C00025202070012086E00AAB38462A4601F081F90AE00AAB38462A4603F0EBFE04E063
:2006E0000AAB38462A4602F0FDFA287B012501466F39092904D801228A405D490A4201D1F7
:2007000058286AD1059B0595E5180A9808990978C907274609D10399091D091A089A5268CB
:200720009142274601DC691A4F1C411C0698430000263846324604F0B5FC0A90079900294C
:2007400003D0411C0A91067000E00146A94206D8481E691A491C202204F030FD2E70089D74
:200760002878C00605D4391B2022204604F026FD2CE0A7422AD0391B30262046324604F0BC
:200780001DFD09984142414105980140012905D12878400702D43846214604E03878611C08
:2007A0002070781C3E702A7B412A0CD0582A05D0612A08D0782A01D0702A07D12B781B0717
:2007C00001D4612A02D142784A704670204604F0A6FD079940180BB0F0BD002E09D0012E29
:2007E000059B90D101200990089801680220084007E0099A0898016802200840002A08D0CC
:20080000059B0A994A1E0A922D220A704542454179E70028059B08D1480700D473E70A989B
:20082000411E0A91029901706DE70A98411E0A912B210170002566E71920C543612241216D
:200840006E234E20AC4200D31846039BD87000D31146039A91700A92507000200790022691
:20086000019C089D41E7C04608C190000000F07F43020000F8B514460F4605468068002844
:2008800004D4286810218843286001E00120A860287B1026582808D0782806D0702804D04F
:2008A0006F2801D1082600E00A262846194600F055F8AA68002A09D102460A4306D1287865
:2008C000000749D52B7B0020024612E02B7B642B03D16423002905D40AE0692B08D10029E1
:2008E00006D5692301223A60002240428A4100E00A4600941146324600F0CEF8A968884241
:2009000006DA401C21684A1E226030220A70F5E7287B582803D0782801D070280FD1297800
:2009200009070CD5702800D1782021684A1E226008702068411E216030210170287B6F2876
:200940000AD12878000707D520684178302903D0411E216030210170F8BDC04610B5037B2C
:20096000702B05D10868021D0A60006800227BE002683E481040421E04465440944216D9E5
:20098000002807D04242024039485043C00E39A2105C00E02020401F082808D878440079A5
:2009A000400087444C04041E38041E04040000221846643814280DD801248440354804426F
:2009C0000AD12120044205D00868021D0A600068C21749E0582B46D10868031D0B60006880
:2009E00042E018466438142807D8012282402948024206D12120024203D10020582B02460B
:200A000032D10868C21D072082431046083008601068526828E0002218466438142807D831
:200A2000012484401B48044204D121200442CBD1582B18D10868031D0B60007814E0002237
:200A400018466438142807D8012484401148044204D121200442B7D1582B04D10868031D2D
:200A60000B60008800E01046114610BD603F000031B57C0700011C021D0E18031E16140F65
:200A8000191104081F1B0D17151310071A0C12060B050A0900081200FEB501920D46064623
:200AA000582B01D0174800E015480090089802903046284305D1029A1068411E1160302198
:200AC0000170019C3046284313D030462946224600F01AF807460D46224604F0D1FA301AE4
:200AE0000099085C029B19684A1E1A6008703E46E8E70298006804F012FC401EFEBDC0460B
:200B0000066100001761000080B5102A06D0082A09D1C0084A078018C90880BD00090A07CC
:200B20008018090980BD002904D1114603F008FF002180BD002304F0B5FB80BDF0B58BB03D
:200B4000FD4E304601F0D0FF28217054002800D1EFE1FA490978012949D13388F8490A88A8
:200B6000934200D20B80F74A1488A34200D9138073884C88A34200D24B805488A34200D92A
:200B80005380B3888C88A34200D28B809488A34200D99380F388CC88A34200D2CB80D48857
:200BA000A34200D9D38033890C89A34200D20B811489A34200D9138173894C89A34200D219
:200BC0004B815489A34200D95381B3898C89A34200D28B819489A34200D99381F389CC8906
:200BE000A34200D2CB81D1898B4200D9D38107907D200190C0000990D1480188D14802883B
:200C000000258A4228460DD933888B42099809D99342284606D2581A099C6043511A03F051
:200C20008FFE201AC84C308287B2EB43C74A384629461E4604F024FA04AA83C2A74201D897
:200C40000A9501E001200A90BD484188BD4842888A4228460896B84C0DD963888B420998A1
:200C600009D99342284606D2581A099E7043511A03F066FE301A608284B2B54A20462946B3
:200C8000089B04F0FDF90E4604994018049005984641AD480594844202D90A98401C0A90FF
:200CA000A7488188A74882888A4228460ED9A24883888B42099809D99342284606D2581A50
:200CC000099C6043511A03F03BFE201A9A49888287B2A04A38462946089B04F0D1F90C464B
:200CE000049940180390744197480497874202D90A98401C0A909248C1889248C2888A42EE
:200D000028468D4E0DD9F3888B42099809D99342284606D2581A099F7843511A03F010FE7D
:200D2000381AF08287B28D20C24338462946089B04F0A6F90E460399401803906641824895
:200D40000897874202D90A98401C0A907C4801897C4802898A4228460ED9774803898B42E2
:200D6000099809D99342284606D2581A099C6043511A03F0E5FD201A0699059A891802912F
:200D80006D49088387B28E22384629462B4604F077F90C4603994018059074416A48069788
:200DA000874202D90A98401C0A90049802990E1863484189634842898A4228460ED95E48E8
:200DC00043898B42099809D99342284606D2581A099F7843511A03F0B3FD381A089971187D
:200DE00004915549488387B26B208200384629462B4604F045F90E46059940180890664196
:200E00005148874202D90A98401C0A90069804990C184B4881894B4882898A4228460FD941
:200E2000454883898B4209980AD99342284607D2581A099B5843511A03F082FD0999081A5A
:200E4000E4193D49888387B2434A384629462B4604F016F9089A80180690714108913A4840
:200E6000874202D90A98401C0A90E6193448C1893448C2898A420ED92F48C089884209D98B
:200E8000904208D2401A099C6043511A03F058FD251A00E0099D2848C583ADB270192A4979
:200EA0008D4202D90A99491C0A91C708002201214A2F0B46204E00D81346099229243355F9
:200EC0000A9A1346083B5C425C412A23F454534253412B243355062A00D809992C22B15405
:200EE00004F072F8344606461C4902F0BDFD60624B2F1AD30198C200002128460B4604F065
:200F0000BFF8069A8018089A514103F053FB254604461449304602F0D7FC0146204602F081
:200F2000A3FD28620E49086002E00D480068206207980BB0F0BDC046DC07202048092020E6
:200F4000AC0820209C0820208902000018FCFFFF36FDFFFF54FEFFFFCA0200000000FA4590
:200F6000F008202000007A44F0B585B006460024214603F0F6F90028254600D13546A2481F
:200F80008475A2480078C043A14E317D0143C80715D1A04C2168284602F073F820609E49B6
:200FA00003F0F1F900280AD003A89C4981809C49039100218171072101F0F8FB3075012063
:200FC0000190002702A803F0ABFD002800D191E002AE307801F056FB304603F0A1FD0028E1
:200FE00000D187E002AE307801F04CFB304603F097FD00287ED002AE307801F043FB3046B9
:2010000003F08EFD002875D002AE307801F03AFB304603F085FD00286CD002AE307801F0CF
:2010200031FB304603F07CFD002863D002AE307801F028FB304603F073FD00285AD002AE00
:20104000307801F01FFB304603F06AFD002851D002AE307801F016FB304603F061FD00287B
:2010600048D002AE307801F00DFB304603F058FD00283FD002AE307801F004FB304603F061
:201080004FFD002836D002AE307801F0FBFA304603F046FD00282DD002AE307801F0F2FA92
:2010A000304603F03DFD002824D002AE307801F0E9FA304603F034FD00281BD002AE307840
:2010C00001F0E0FA304603F02BFD002812D002AE307801F0D7FA304603F022FD002809D007
:2010E0000F263E4302A8007801F0CCFA10371F2E00D267E74B4908684B4A16884B4B1F8839
:201100000C68A0420BD0086816881F880C68A04205D0086816881F880968884203D144496D
:201120000A6890420FD1474C2168284601F0A9FF2060454903F030F90024002801D03248A7
:201140004475334F5AE0002A07D0821A022A04D32F4CE368D218521EE260086030B203F0DB
:2011600087FC344D294602F0AFFB274CA06038B203F07EFC294602F0A7FB05462E48017859
:2011800000290ED02D480088301A00B203F070FC284902F099FB0146606801F072FF6060C8
:2011A00001E0019901701A4F24480680787D012818D1234C2168284601F063FF2060124C4A
:2011C000F98A4A1C91B2FA828A087D2A0AD30646084603F0F9FE0146304602F045FCE0609D
:2011E00000207875E168284601F046FF206001206075A075134800210160019C04F09CF868
:201200003861204605B0F0BD2C0820204F09202044082020D80820200100404001AD000086
:20122000AA06010110092020D208202034092020DC082020CDCCCC3D4A092020C6082020A5
:20124000D4082020200920200BD7A33CF0B591B00F90012548000D90400D5C00670D594002
:201260001095EE070E40AB494D1E44198C4200D203E17C198C4200D2FFE0049610990C05DE
:20128000611E00910B400025E9430E91A449019423430C93C01B40180290401C0390D002F6
:2012A0000A90500DD9020B9247189E48C41B3846294622462B4603F0E3FE484229462246A0
:2012C0002B4603F0DDFE4900C00F4418204629463A462B4603F0D4FE4A42204629462B46FE
:2012E00003F0CEFE4900C00F4418204629463A462B4603F0C5FE4A42204629462B4603F07A
:20130000BFFE4900C00F4018441E3846294622462B4603F0B5FE06460F460A9829462246B8
:201320002B4603F0ADFE70186F411099081A0A902A46BA41204629462B4603F0A1FEC20FED
:2013400049008918099146000A98294622462B4603F096FE4A00C00F8018CF0F34180999D5
:201360004F41E13C0994AF410F9AD00F0D9909180691520008920E98401E0D902E46AE415D
:2013800008463040034607902046294603F078FE0A910698C043614AD1430143521A05922F
:2013A0002C466C4109982946234603F069FE0690099138462946089A079B03F061FE0890F0
:2013C000079138462946059A234603F059FE05900A9A069BD0182B466B41079F3E400D9C8A
:2013E000089A224082185E41059838186941099A80186941841969410E98401C47486841B3
:2014000081424BD2002201988142109800D310460F9B01D3039A029281401F2242406708FB
:20142000D7400F4384405E05204639460B9A0C9B03F026FE40428E4102994A1E3449491E9C
:201440008A423EDC012A48DB00990F401205C10F73005B1840001099214040183A430499E7
:201460000A430021651C51410B9E301A0C98984100D3254644D3114642E0002F28D0244919
:201480008F4204D0002823D0884200D0F5E62248064300253146284611B0F0BD6008CA07B3
:2014A00084184F080F980605204639460B9A0C9B03F0E6FD40428E41039A1549491E8A4201
:2014C000C0DD1548049901430025284611B0F0BD00252946284611B0F0BD002A13D10E990B
:2014E0004C400E494F4027430DD1019A56403043294605D1049911430025284611B0F0BD57
:20150000284611B0F0BD2946284611B0F0BDC046FF07000002F8FFFF0000F07FFFFF1F0014
:20152000FE03000033F30475F0B593B00F900492002A00D144E1002B00D141E11898099067
:20154000002800D13CE10E935818129004980B460F994218184610931E4604E0761C30B216
:201560001299814233DD072331461193194001238B40C008C00193490D18D8430F9B1F46AC
:2015800003E0DB1C1FB2BA42E8DDB1B23F2905D89CB27F2C02D8EC5D0440EC555C1C27B245
:2015A000BA42DBDD3F2905D8A4B27F2C02D8EC5D0440EC559C1C27B2BA42CFDD3F29E0D830
:2015C000A1B27F29DDD8E95D0140E955D9E70E98401E1290109A500F1018C51011998843B5
:2015E000101AD41329190391110B082211400F18D61B0498401E0321029003F0A1F94B1CB1
:201600000022032B009300D113461298C0080190B8B21190B0B210900498C01A0E90E801B0
:20162000E10140180F994018664C201812900A93581E0B900398C00140182018079005921C
:2016400010460FE0069B581C0499099A5218099212998031129107998031079101998B429C
:2016600000D1ADE00146039806914218551C02980228059958D30021099F03E0C91C0E9804
:2016800088424ED00F9840187F2814D8072A06D87C5C119B9C40129B5E5C26435E54072DAB
:2016A00009D87C5C109BDC40129B5E188027F35D2343F355099F431C7F2B17D8072A08D831
:2016C0007B185B78119CA340129C641866781E436670072D0AD87B185B78109CE340129CDC
:2016E00064188126A75D1F43A755099F801C7F28C4D8072A08D878188078119B9840129B14
:201700005B189C7804439C70072DB7D878188078109BD840129B5B1882241E5D06431E55E4
:20172000ACE7009803288DD00F984618099840180D90079840180C90059C089603E0A41CE6
:20174000A74200D17EE737197F2F16D8072A07D80D98035D119883400C99085D184308553B
:20176000072D0AD80D98005D1099C8400C990B198026995D01439955089E0B98A04200D10D
:2017800060E7781C7F280A9FD9D8072A09D80D9800194078119988400C9909194B780343A3
:2017A0004B70072DCBD80D98001940781099C8400C9909198123CE5C0643CE54089EBEE725
:2017C00013B0F0BD00002020F0B5A5B0059308920D46074600260A967A4C3246234602F02E
:2017E0009BFD002800D12C46354600D13D46284621463246334602F07DFD464246410028AE
:2018000007D10AAA2846214602F046FD0A98401E0A900898007B0BAF412801D06B4800E0F6
:20182000694809900898806801903020049038700022284621460292134602F064FD012160
:20184000002801D0C80744400391781C0790002E0DD024AA2846214602F01EFD24980121E4
:201860000A1A2846214601F099FB05460C462846214602F0C7FE0646079902F0EFFD069061
:20188000304603F063FB02460B462846214600F037FC04460D460198471C20D30798069926
:2018A0004618002220462946134602F023FD002848D1002220462946454B03F0BBFD0446AB
:2018C0000D4602F09FFE0999095C771C317003F03DFB03F078FD04460D463E46E1E70BA8BC
:2018E00006994618002F16D07F1E002220462946374B03F09FFD04460D4602F083FE09997F
:20190000095C3246761C517003F020FB03F05BFD04460D46E6E73178099C204603F0D5FC5C
:20192000001B08280EDB0196741E089D029F099E2178304603F0C9FC801B0E2805DD27704C
:20194000641EF5E7089D029F04E00999081840782070019E37700A98297B4129059C01D08D
:20196000702100E05021069E079F224602F0F9FDAA68501C04D1384603F0D1FC421EAA60F0
:2019800038463146234603F06FFAA8680028039A02D128680007C20F38463146234602F02D
:2019A00023FB287B412801D0782000E0582021684A1E226008702068411E216004990170DB
:2019C00025B0F0BD0000F0FF066100001761000000003040F0B5A3B01E460F4604460392B7
:2019E0009168002903D0002904D5062100E001210398816007910AA8302108910170002284
:201A0000204639460992134602F07DFC01210028049101D0C8074740634D20463946614A3C
:201A20002B4602F08BFC00280BD00022204639465F4B03F0FBFC04460F460998401C0990E9
:201A4000EBE70025204639462A462B4602F052FC002813D1002220463946544B02F053FC96
:201A600000280BD0002220463946514B03F0E2FC04460F460998401E0990E3E702960AA8A4
:201A8000461C2046394602F0BDFD0596314602F0E5FC07998842019004DD481C0AA90B1858
:201AA000085C20E0C9430E180AA90B180793581C06902046394602F0A5FD03F047FA024621
:201AC0000B462046394600F01BFB0022384B03F0B1FC04460F4602F095FD069B30300799C1
:201AE0004870761CE2D3C0B23528029E039F0DD3581E0178491CCAB201703A2A03D330212A
:201B00000170401EF5E70AA9884241D0099801990C181D700220C043844202DBB8688442F2
:201B200007DD601E397B891EC9B2324602F019FD0124059803F0F3FB401E0499A0421ADB78
:201B40000028089A01D4059A125C1346303B5D1EAB41C9431943C90705D13978090702D409
:201B60000025049905E031684B1E33600A7001250021401EE2E73868082202402A43501E5A
:201B8000824105982146334602F02EFA23B0F0BD581E00210170099801990818441C0AA8F6
:201BA0000590B7E70000C0FFFFFFDF410000F03F00002440F0B58DB0079208900022012626
:201BC0000B9149004F0D5900490D0C91694C651E09977919A142314600D31146F7070A97EB
:201BE0001F460B9847400C984519A542344600D314465F4D0A980740214301290AD10C9824
:201C0000002800D184E0A8427BD0099800287FD0A84276D00096069700260125079A500D6D
:201C2000D90208180590D00203903146089C2246334603F025FA049007910195EF0705984C
:201C40000743384631462246334603F019FA089005910B98C0434949CA4302438A1A02926E
:201C60003446744103983146234603F009FA05460B913846049F3146029A234603F000FA53
:201C80003F4A17401540079AAA18334673410B9C20187141059C00197141089C121958411A
:201CA0007141099B0C9CE318CC0221D4354C1B19C40F490009194000D40F0019FC0F5200DC
:201CC00012197D002A4C641EA342069F19DC019C2405002B21DD641E21401B050B43194646
:201CE00039436B420A9C2346934126D2401C2AE0244C1B195B1C1E4C3D46641EA342069F66
:201D0000E5DD1D4807430026394630460DB0F0BD0026314630460DB0F0BD1B4D6940C0433C
:201D2000002A15DB0843002B009916D0002817D0009800283146E8D117E06240154303D1D0
:201D4000019A024080187141064630460DB0F0BD01960843002B0099E8D101990028E7D157
:201D60000091009800283146CFD12743CBE7C046FF07000002F8FFFF0000F07FFFFF0F005F
:201D800000F8FFFF01FCFFFFFFFF1F00F0B589B0049105901178002900D1D3E01D46164638
:201DA000002427460393029248B2002812D5E0200840C02824D0F0200840E0282FD0F822C2
:201DC0000A40601CF02A41D081B2715C00290446EAD1B7E007A8017000224270059838186C
:201DE00000B2062D00D19CE0082D00D0A3E00901574A5118574A891800910822102397E06E
:201E0000601C07AA117080B2305C002800D199E00697A41C07A948700020887030E0601C7B
:201E200007AA117080B2305C002800D18AE0A11C07AA507088B2305C002800D182E0069763
:201E4000E41C07A988700020C87019E007AA117080B2305C002875D0A11C07AA507088B2C4
:201E6000305C00286ED0E11C07AA907088B2305C002867D00697241D07A9C870002008713E
:201E8000314E307800282BD0002707A9304601F0A7FD002824D0781C80B2252568432A49CC
:201EA0000E18085C00281BD007A9304601F098FD002815D0B81C80B2684323490E18085C25
:201EC00000280DD007A9304601F08AFD002807D0FF1CB8B245431C484619405D0028D4D126
:201EE000039D062D0ED0082D069F18D105983818711D009100B2102204991346FFF714FB83
:201F000010370CE00598069F38181049BA31009100B2062208230499FFF706FBBF1D029E12
:201F20000BE006225143094B5918C039009108230499FFF7F9FA641C7F19A0B2315C0029DA
:201F400000D031E709B0F0BDA05E0000605A00007054000000FEFFFFF0B583B0664801250F
:201F60000570019503F0C0F8AE2002F0A3F8D52002F0A0F88020044602F09CF8A82002F0A7
:201F800099F83F2002F096F8D32002F093F80026304602F08FF8402002F08CF8A12002F0C3
:201FA00089F8C82002F086F8DA2002F083F8122002F080F8812002F07DF8CF2002F07AF8EA
:201FC000D92002F077F8F12002F074F8DB2002F071F8302002F06EF8A42002F06BF8A6205B
:201FE00002F068F88D2002F065F8142002F062F8AF2002F05FF84148A902054603F0E5F8AC
:20200000B02002F057F81027384602F053F8304602F050F82846214600F0E2FEB12002F0A5
:2020200049F8384602F046F8304602F043F8803528462146254600F0D3FEB22002F03AF862
:20204000384602F037F8304602F034F8019C20022A490818294600F0C3FEB32002F02AF8F4
:20206000384602F027F8304602F024F803200290C00122490818294600F0B2FEB42002F077
:2020800019F8384602F016F8304602F013F860021A4C2018294600F0A3FEB52002F00AF875
:2020A000384602F007F8304602F004F80520C0012018294600F094FEB62001F0FBFF3846FF
:2020C00001F0F8FF304601F0F5FF029800022018294600F085FEB72001F0ECFF384601F0E5
:2020E000E9FF304601F0E6FF0720C0012018294600F076FE03B0F0BD4C0920200000202084
:20210000FCB40124E407634002E0FCB40124E40708B41D03ED08D60D354356025F007F0D4B
:2021200006D12C00344300D0AEE001B0FCBC7047A408254307242402FF34A74205D1002030
:20214000190D090501B0FCBC7047002B03D50024A61BAC4125000B03DB08C20D13434202D7
:202160004800400D07D11C00144300D08CE00EBC1000F0BC704701246407234307242402BF
:20218000FF34A04205D10020090D090501B0FCBC7047002903D50024A21A9C412300C11B33
:2021A00008D51C002B0025001400320026000024611A3800362925D502B4393949420C007B
:2021C000203C03D22F008F40374301E03700A740002F01D040210E4302BC20290BD5002995
:2021E0000ED04C42203420B4A5402C0020BC0D41CE40361904E000292E000D4120390E4182
:2022000092196B411C0014433ED00024002B04D5012400218A1A99410B00401E52005B41A3
:20222000FBD50121890215000D400CD0521800277B4101D3401C0BE00721C90115000D4027
:2022400001D189008A43072109028A4352005B41801C19DD07210902FF31884209D30EBC03
:202260000020C90F0902FF31C900C91D0905F0BC7047190B00050143E40721431805120B15
:20228000104301B0FCBC70470021002001B0FCBC7047F0B589B017460D46044600260793D2
:2022A0001846314602F066F8002810D12846394600F0E2FE3021615C0129089009D12169FF
:2022C00000F0DAFE079901F0CFFB064605E0A76987E02246303201211170E56A67697F2008
:2022E000C005294600F0C8FE0146304601F0ECFA06462846394601F0E7FA314600F0C1FE2F
:2023000005906061E5680898079901F0DDFA0495294600F0B6FE0646656AA16A069102F0B7
:202320003BF807463046294602F01BF8002800D13546002F00D1069526686068029006999D
:2023400001F0C2FA054603963046089E314601F0BBFA294600F095FE0546A068019005993F
:2023600001F0B2FA294600F08CFE0546276A394602F000F8002806D0E1692846079102F052
:2023800002F8002819D10021304601F0EAFFE1690791002805D02846394601F0FDFF0028DF
:2023A0000BD10021304601F0F7FF00281CD02846079901F0D6FF002816D00698E060284681
:2023C000394601F0E9FF06462846079901F0C9FF002800D10795002E00D1079FA7610898B0
:2023E0002061384609B0F0BD0298049901F06CFA05460398314601F067FA294600F041FE9D
:2024000005460198059901F05FFA294600F039FE0546D4E7F0B585B000280DD0424A8B1846
:202420005B1E934208D3414F414B3A881B88D21A404B9343994206D943480168491C016031
:20244000002005B0F0BD03903B4A3C4B1868104018603E8804914C1E0321204602F070FA68
:202460004A1C0021032A104600D10846022C02D2039B304A21E0029204990190091A04919E
:202480000021039B2B4A5F185D5CB4B218462C4B1D55741C14407D781D55B41C1440BD7887
:2024A0001D550346F61C1640C91C049C8C42EAD1029C032C1D4F019811D05918204D0B78D7
:2024C000B4B22B55731C1340012807D04C78EC54B61C1640891C801EF1D100E01E463E8001
:2024E000134C20883988884210D0154615481449026812060AD422888A5C82612288521C6A
:202500002A40228022883B889A42F1D122883B880A4C2168084801400120D21A00D0C20226
:202520001143216005B0F0BD01FEFFFF4009202044092020FF010000FFF7FFFF28101040D5
:20254000000420200811104028092020F0B585B01D46164630210290009101700024104665
:2025600019462246234601F0CEFE002802D00120C00745400B9801900A9804903E4F30469A
:2025800029463C4A3B4601F0D9FE002809D00022304629463A4B02F049FF06460D46641C17
:2025A000EDE70027304629463A463B4601F0A2FE002811D1002230462946304B01F0A3FE8B
:2025C000002809D00022304629462D4B02F032FF06460D46641EE5E70298401C0390049846
:2025E000001904903046294602F00CF8039901F035FF039909180019019A10600498441CB5
:20260000012C1ADB04913046294601F0FBFF02F09DFC02460B4630462946FFF771FD0022A4
:20262000174B02F007FF06460D4601F0EBFF3030049A511C1070641EE4D1481E0278352A65
:202640000DD3891E009C0A78521CD3B20A703A2B02D30C70491EF6E7029A914203D00770B5
:20266000039805B0F0BD077001990868401C08600298F6E70000C0FFFFFFDF410000F03F95
:2026800000002440F0B581B00146424A507A02280FD0012806D0002820D100200A2917D008
:2026A00001B0F0BD03290BD102205072032050701AE0042904D1032050720420907013E0F5
:2026C000354883685B1C836000200A29014602D10A2111700121517201B0F0BD431C5372B8
:2026E0001154507A092802D2002001B0F0BD002050721178FF2359404C0028490C5B557811
:20270000260A6540AB435B00CB5A5E4094781D0A7440E3B25B00CC5A6540D378260A009328
:202720005D40ECB264000D5B6E4014792F0A6640F5B26D004E5B77405579330A6F40FEB29A
:2027400076008F5B7B4096793F0A7340DBB25B00C95A7940D379127A1202D2188A4213D109
:202760000098000200190E490880280280190D4908800D480168491C016007480168491C85
:202780000160012001B0F0BD03494A68521C4A6001B0F0BDBC08202044082020A05C000059
:2027A000D20820203409202010092020F0B585B002460020002A78D00B46203B1E24E44360
:2027C000A34272D33A4B1E883A4B1B88F31A1F252C469C43A14268D80392374A374F38687B
:2027E0001040386004914C1E0321204602F0A8F84B1C0021032B184600D10846022C039AD8
:202800001FD3029304990190091A049100215718545CB3B210462A4AD454731C2B407C78C6
:20282000D454B31C2B40BC78D4540246F61C2E40C91C049B8B42EAD1029B032B1F4F019834
:2028400011D051181E4A0B78B4B21355731C2B40012807D04C78D454B61C2E40891C801E0C
:20286000F1D100E01E46124C2680124E3088218888420FD013481249026812060AD4328814
:202880008A5C82613288521C2A403280328823889A42F1D132882388396807480140012071
:2028A000D21A00D0C2021143396005B0F0BDC0463E09202042092020FFF7FFFF2890104035
:2028C0000C08202008911040F0B583B03848007801286BD102F09AFD054602F0D9FC02F0F9
:2028E00043FD0090334B0024062620462146324602F0D2FA02F026FD00902F4B082102915C
:202900002046324602F0C8FA02F022FD074602F025FD00970190294B10212046324602F016
:20292000BBFA2888698800900191254B18212046324602F0B1FAA888E98800900191214BCC
:2029400020212046324602F0A7FA28896989009001911D4B28212046324602F09DFAA889B7
:20296000E98900900191194B30212046324602F093FA02F0DBFC2921695C00900191144B58
:2029800038212046324602F087FA124D2E781248825DF1002046029B00F07AFE02F008FDFC
:2029A00003490870701C07210140297003B0F0BD4B0920207C6100005D610000F4600000E2
:2029C000396100005161000045610000A35F0000286100004D09202085610000F0B53649DA
:2029E00008390968CAB2122A64D801210B469340324C23421DD0324832490A68521C0A60DC
:202A00000168490756D43049304A324B304C05E00F88E5550E8005686D074BD4C5690E88DF
:202A2000761CF6B21788BE42F2D11D686D1C1D60F1E70B2A24D00C2A3CD1274A1488274BAC
:202A40001D88AC4210D01E4C254D264E27683F060AD41788EF5DA76117887F1C37401780C6
:202A6000178818888742F1D110881B88124C2268C9028A43C31A00D119460A432260F0BD48
:202A80000F480168490715D40F49104A114B104C05E00F88E5550E8005686D070AD4C569A2
:202AA0000E88761CF6B21788BE42F2D11D686D1C1D60F1E7F0BDC046281010402C00040016
:202AC00008111040E4082020380920203C092020000620201C09202044092020400920209A
:202AE00000042020FF010000F0B5002861D005463149324B324A10780024012820463ED18C
:202B000030480078012821D12F48007800281DD00120304E37682F8077686F80B668AE809F
:202B20002D4E3768EF8077682F81B7686F81F768AF813669EE81294D2E68761C2E601D6820
:202B400005431D600D6805430D6018E01F4805686D1C0560052D2CD318680125EE43304054
:202B60001860086830400860186828431860086828430860164805686D1C05600020114DB8
:202B80002C70114D2C70114D2C60154D2E680124A70237432F60134D2E68270337432F60BD
:202BA0005D68260235435D604B6833434B601470F0BD0020F0BDC046003100400011004059
:202BC00049092020460920204709202030092020140920208062554080825540E008202038
:202BE0004810004048300040B0B53A4A80184A6842600A78222A56D8930001A4E3589F465C
:202C00009D2C0000A72C00009D2C0000A72C0000A72C0000A72C0000A72C0000A72C000030
:202C2000A72C0000A72C0000A72C0000A72C0000A72C0000A72C0000A72C0000A72C0000FC
:202C40008D2C0000A72C00008D2C0000A72C0000A72C0000A72C0000A72C0000A72C000010
:202C6000A72C0000A72C0000A72C0000A72C0000A72C0000A72C0000A72C0000A72C0000BC
:202C80008D2C0000A72C00008D2C0000036803242407A343012464071B1903E00368032413
:202CA0002407A34303600B69C360CB68C46A0A4D25400A4C1C402B19C3620368084C1C40B6
:202CC0000460097A114302683F239A43194051180160B0BD041800008888FDFF7777020068
:202CE0007F00FFFFF0B59FB003930E46054604929168002902D50621049881600291002444
:202D0000344F2846314622463B4601F005FB002800D13746264600D12E46304639462246ED
:202D2000234601F0E7FA002820D100242A4D02F057FB01F0E8FA002809D000223046394675
:202D4000264B02F077FB06460F46641EEFE7234D02F046FB01F0E9FA002807D002F040FB02
:202D600002F064FB06460F46641CF1E7029905A80091019006A832463B46FFF7E7FB0646D4
:202D8000059F022F049D08D1641C304602F0C7FA3018401E002101700127297B2046039C32
:202DA000224601F0DEFBAA6830463946234602F05BF8304602F0B3FA874203D128680007E3
:202DC000C20F00E0012230463946234601F00CF91FB0F0BD0000F0FF0000F03F00002440CD
:202DE000F0B585B00F4605460124204602F024F90394204602F00EF90026304602F01CF926
:202E0000304602F007F9782000F00AFA2B4C217801402170402000F003FA21780140217024
:202E2000002F3ED00497781E032101F089FD491C03290F4600D13746049803281FD301910A
:202E40000297C01B04900026AF19A85D00F0E8F9217801402170787800F0E2F921780140A6
:202E60002170B87800F0DCF9217801402170F61C0498B042E8D101980328029F11D0AD19FC
:202E8000287800F0CDF9217801402170012F08D0687800F0C5F9217801402170AD1CBF1ECA
:202EA000EED1002002F0C8F8039C204602F0B2F8204602F0C1F805B0F0BDC0464C092020D2
:202EC000F0B5BDB002F0A2FA074602F08FFA064602F090FA0F9002F09DFA054602F08EFAD5
:202EE000044602F08FFA139002F03EFA149002F01DFA1290386A264900F0E6FC01F09CFE83
:202F00001190F06801F098FE10900F98C06801F093FE0F900420285E0E900620285E0D9010
:202F200029203E5C607D0C9060681A4D294600F0CBFC01F081FE07462068294600F0C4FC7C
:202F400001F07AFE13994968089709900A911298009011980190109802900F9803900E984A
:202F600004900D98059006960C9807900A4A15A8A021149B01F0D8FB012806DB01469F284F
:202F800000D39F2115A8FFF745FA3DB0F0BDC04600007A4400002041B1600000F8B51546D4
:202FA0000C462B4E0A0D771C3A402A4B9A4213D0002A1AD10122D2079143014345D000228E
:202FC000254B214602F036FA0C4624498D4209DC234A244B214635E0214602462346FFF71F
:202FE00094F831E0220D3A40363A5119B1420ADD02F024FA222101600120C00704401D4892
:203000002418002021E0012904DB174A1440090564181AE03522D24391420ADC02F00EFAF2
:203020002221016012488542E6DA0120C0070440E7E70D4A144009051B22520589182143BF
:2030400000220A4B02F0F6F90C462146F8BDC046FE070000FF07000000005043AF3CFFFF1D
:2030600059F3F8C21F6EA501FFFF0F800000903C51C300000000F07FFCB40127FF077940A4
:2030800002E0FCB40127FF070C024D002D0E03D1002C52D1FCBC70473C43FF2D50D0A408D1
:2030A000002900D56442020243001B0E04D1002A43D10800FCBC70473A43FF2B41D0920820
:2030C000002800D552425E1B04D5170022003C0076422B00192E06D527003741D2191C27C6
:2030E000F71B7F42BC40002A27D002D55242012700E00027013B5200FCD5150080263540B7
:203100000FD01500202635402C43803208D21500402635402C4304D101263602B24300E09D
:203120005B1C5200023308DDFF2B0BD2500ADB051843FF073843FCBC70470020FCBC704791
:203140000800C70FFF07FF20C0053843FCBC7047F0B52948014608390968CAB2122A09D815
:2031600001210B469340254C234204D024480168491C0160F0BD0B2A23D00C2AFAD1214A83
:203180001488214B1D88AC4210D0204C204D266836060BD41688AE5DA6611688761C1F270C
:2031A0003740178016881F88BE42F0D114881B880268C9028A43E31A00D119460A430260DE
:2031C000F0BD124801684907D4D41249124A0C4B124C05E00F88E5550E8005686D07C9D459
:2031E000C5690E88771C3F263E401788BE42F1D11D686D1C1D60F0E7289010402C0004009A
:2032000018092020420920203E092020089110400C082020360920203A09202000072020B5
:2032200070B50646C00901F007FF0124204601F0F1FE0025284601F0EDFE4020304080092A
:2032400001F0FAFE204601F0E5FE284601F0E2FE20203040400901F0EFFE204601F0DAFE06
:20326000284601F0D7FE10203040000901F0E4FE204601F0CFFE284601F0CCFE08203040B9
:20328000C00801F0D9FE204601F0C4FE284601F0C1FE04203040800801F0CEFE204601F037
:2032A000B9FE284601F0B6FE02203040400801F0C3FE204601F0AEFE284601F0ABFE264047
:2032C000304601F0B9FE204601F0A4FE284601F0A1FE204601F0B0FE204601F09BFE01F0F3
:2032E000CDFF06466640284601F094FE304670BDF0B58B4200D1824204D90B00020000216A
:20330000002040E0002B00D1002A0CD10B00020000210020002B00D1002A01D0C943C04316
:2033200001F095F92FE01C0015000B0002000CB4002126002F00FF19764102D2491C40291A
:20334000F9D100201E001700FF19764102D2401C4028F9D10E1A21002800320001F0F4FE97
:203360000C0005000CBC00200021A34200D1AA4201D3521BA341404149416D08E7073D437E
:203380006408761EF1D5059F002F01D03A607B60F0BDF0B583B0029314460D4606460846ED
:2033A0001146FFF76EFE0746306028462146FFF763FE0546019670603E460024384621460C
:2033C00000F0CFFF0121CF070028009600D07E402846214600F0C5FF002801D12F4600E013
:2033E0006F40029C3846314600F0D6FF002800D137463846214600F0CFFF002815D000217F
:20340000384600F0C9FF00280FD02046394600F02BFB04460098214600F056FA019E3060BC
:203420002846214600F050FA706003B0F0BD002A49D084468B071CD1830722D1102A08D32F
:2034400070B4103A78C978C0103AFBD270BC103238D0042A2CD3082A05D30C2A01D308C9E6
:2034600008C008C908C008C908C092072AD0920F22E00B780370491C401C521E22D08B0771
:20348000F7D1C30714D18307D8D0121F12D308C903801B0C4380001D121FF8D20AE008C95C
:2034A00003701B0A43701B0A83701B0AC370001D121FF4D2121D05D00B780370491C401C82
:2034C000521EF9D160467047F0B5184A00211170174B197017480170174C2160174D296020
:2034E000174D2960174D2960174D10262E6020272F60164D2E602F60117019702160144A8B
:20350000136801218C021C431460124A13680C031C431460104A13680C02234313600F4ADF
:203520001368234313600170F0BDC04646092020470920204909202030092020E0082020C1
:20354000140920202C09202080E200E000E100E0481000404830004004110040043100407C
:2035600080B51849002008700872C871887148710871C87088704870487213490860486031
:203580008860C860086148611049086048608860C860086148610E4908800E4908800E4969
:2035A00008600E4908600E4908800E4908700E4908600E4908600E49086000F03FFE0D4976
:2035C000087080BDBC0820202C08202044082020D20820203409202010092020DC0820201E
:2035E000C60820204A09202020092020D8082020D40820204F092020F0B581B00446292084
:20360000085C012826D113460A6A1A4802600120C5076A401B4800270E463946FEF739FE75
:203620000090366A3046394600F09BFE002800D06E401549304600F047F91449FFF721FDC1
:2036400007460F4E314600F08CFE002800D13E4600980AE007480068002100F094FE00284E
:2036600001D1064800E00448054E2660606001B0F0BDC046EC08202000005243000052C323
:203680000000C842740720200000F0C200007A43F0B583B0002A41D0002B3FD01218C417A4
:2036A000A043802A00DB8022824237DDCC13072525404D192DB2ED10CB185B1E5E0F9B19F9
:2036C000DF102E19002900DB7F1CB74226DD144909180291C1B20909103101910F25054037
:2036E000101AC0B20090344603E0761C34B2A74214DDB0B20728F8D8B0203043C0B200F0E9
:20370000D9FC019800F0D6FC284600F0D3FCE001029908180099FFF763FBE6E703B0F0BD96
:203720000000202010B51C491C4C204601F0C4FD1B49204600F08CFF1A4801680322D20395
:20374000914301600169184A0A4011320261416917220A4328218A434261426801210A4079
:2037600043688B439A184260104A13688C021C43146002684B0413430360C26870231343C1
:20378000C360C2680223134305229343C36002680A43026010BDC0469D5C0000000010400C
:2037A00068610000001110400000FFFF2810104010B51C491C4C204601F07EFD1B4920462B
:2037C00000F046FF1A4801680322D203914301600169184A0A4011320261416917220A43CE
:2037E00028218A434261426801210A4043688B439A184260104A13688C021C43146002688D
:203800004B0413430360C26870231343C360C2680223134305229343C36002680A4302608C
:2038200010BDC046DE6000000080104072610000009110400000FFFF2890104040B54200B6
:203840004B005E08164301D006004E4000D4D01A04D20120C90F06D1404204E003D9012032
:20386000C90F00D04042FF263606B24200D8B34200D9012040BD40B542004B005E081643C4
:2038800001D006004E4000D4D01A04D20120C90F06D1404204E003D90120C90F00D04042D2
:2038A000FF263606B24200D8B34201D90120404240BD42004B000020FF2109068A4200D8EC
:2038C0008B4200D901207047FCB40127FF0706004E4001D4002600E03E00020243001B0E6F
:2038E00030D03A43FF2B30D00C024D002D0E29D03C43FF2D29D05B194240504042404C405A
:2039000061404C4000B501F0D1F820BCAE464240504042404C4061404C4025001400002C89
:2039200001D46400013B803401D3013364087E3B08DDFF2B09D2BC43200ADB051843304370
:20394000FCBC70470020FCBC7047FF20C0053043FCBC704780B582B001A801F0FDF8002885
:2039600000D13AE001A8007843383528F4D8C04678440079400087441E1D271D211D241D53
:203980001D1D1D1D1D1D1D1A2A1D1D1D1D2D1D1D1D1D1D1D1D1D1D1D1E1D271D211D241D57
:2039A0001D1D1D1D1D1D1D1A2A1D1D1D1D2D00F0DFFED1E7D0E701F01BFCCDE701F0DAFC98
:2039C000CAE701F021FCC7E701F04EFCC4E701F07BFBC1E701F000FCBEE702B080BD70474D
:2039E000024670B50A4392072AD11E4DEE0104C808C9541B9443344017D0D0B2D9B2401A7A
:203A00002106014310D190B299B2401A210401430AD110021902000A090A401A2102014324
:203A200002D1100E190E401A70BD9A42DFD010BA19BA884201D9012070BD0020C04370BD7D
:203A400002780B7801300131002A09D09A4207D102780B7801300131002A01D09A42EFD059
:203A6000D01A70BD01010101FCB40127FF0706004E40F60FF607020243001B0E2DD03A43CD
:203A8000FF2B2DD00C024D002D0E26D03C43FF2D26D05B1B0020202164085208A2424041D0
:203AA000A24200D3121B013904D0002A01D05200F4D18840384201D14000013B803001D3EE
:203AC000013300E040007F3307DDFF2B08D2400ADB0518433043FCBC70470020FCBC704702
:203AE000FF20C0053043FCBC7047704710B51749174800F0C5FE17484168174B0B4001213B
:203B00000A049B1843608368144C1C408B06E3188360134B00241C6002245C6004249C6027
:203B20000524DC6006241C61036813430360A02242610C4A136A0C03234313621368234352
:203B4000136002680A43026010BDC046986100000020004000310040FEFFECFFF8FFE0E09D
:203B60008031004028300040F8B5451C00780023082B32D02F78C2070CD16A780F24144028
:203B8000E41C122C0BD102242E57F4B2002E08D4EE1C0EE06D1C4A1C0F7011461AE0AE1C2F
:203BA00008E02E1DED7800957F252C40009DED012C1912343D0112095219094DAA420ED0CE
:203BC000D243002C05D08D5C4F1C0D70641E3946F7E7354640085B1CCAE72846C5E7F8BD65
:203BE000FF0F0000B0B50D460446401E844101290EDB01210022204600F0BFFA7D20C000CF
:203C0000854200D305462046294600F016FBB0BD002D09D4012A17D1012120460A4600F097
:203C2000ACFA7D20C1000BE000210122204600F0A4FA684281B27D20C000814200D3014646
:203C4000204600F0FAFAB0BD00252046294600F0F4FA204629462A4600F08FFAB0BD7047F3
:203C600010B501F081FB0446FFF774FE15480168611A03D4611C016001F096F81248016828
:203C8000611A03D4611D016000F0E2F90F480168611A04D421460A31016000F025FF0C48AA
:203CA0000168611A04D4214614310160FFF708F908480168611A03D464340460FEF704FE46
:203CC00010BDC04600092020F408202004092020F8082020FC082020F0B581B01A4C207AE5
:203CE00001282BD1607AC00728D10020215E0422A35ECD1A2721C9438D4200DC0D462822BC
:203D0000282D00DB15465B19A3800225675F0625665FBF1B8F4200DC0F46282F00DB174639
:203D2000F119E180094E327819B2FFF75BFF615F32780120FFF756FF01B0F0BD0348007805
:203D400000F04CFA01B0F0BDC808202054092020FEB502930F46194D0024E143184E0097DA
:203D60003740019043422B46BB4101D20C4623E0084602990E405342B54101D204461BE047
:203D8000134601990B433E431E43029D009E13D02B46334004D401998B1A3346AB4103E09D
:203DA0000199531A2B46B341044605DB51406E400E43701E864134462046FEBD0000F07F7E
:203DC000FFFFFF7F70B51D46044610680E1A1160666020688019206000F04AFE1249FFF794
:203DE00073FD20610021284600F0D6FA00281AD0304600F03DFE0C49FFF766FD2946FFF7BD
:203E000033FEE5682946FFF737F90849FFF75CFD2946FFF736F9E0600549FFF755FD054937
:203E2000FFF722FEA06070BD920A063E3333B33E000070421A344C4310B515490124A0078A
:203E400000F01EFD13484168134A0A402104521842608268114B134062069A188260104A8C
:203E600002231360032353600723936002680A430260A02141610B490A6AA3021A430A6202
:203E80000A681A430A6001682143016010BDC0469061000000110040FEFFECFFF8FFE0E007
:203EA00080110040281000400F48002101800F4801800F4801800F4801800F4801600F4829
:203EC00001600F4801600F4801680122D3029943016001680C4B0B43036050030B49086054
:203EE0000B4908607047C046380920203C09202040092020440920201C092020E40820209C
:203F000028092020281010401604020080E200E000E100E0F0B583B0144F0197144D0095C0
:203F200014487F21CE05002431462246234601F023F800950197104F3846314622462346E8
:203F400001F01AF80B4801F0D2F9384601F0CFF90A48046044608460C46004614461204646
:203F6000214600F049FD03B0F0BDC04600806D4400806DC440072020A80720205C08202042
:203F8000F8B50446164F174D0E462E400120009464423C46B4411AD31D405442AF4116D314
:203FA0001046009C20433543054311D00020C0431C460C400ED4009CA41A0C469C4106DBEE
:203FC0000098504059400143481E81410846F8BD0020F8BD009C141B1C468C41F0DAF6E73B
:203FE0000000F07FFFFFFF7FF8B51C4617460E46054601F094F90021012E03DB864201DC7A
:20400000A919491E002F04D02268531E23602E2313703246824206DD23685F1E276030271D
:204020001F70521EF6E7B04200DB3046012808DBA9420BD308782268531E23601070491EA7
:20404000F6E72068411E216030210170F8BD704770B584B0144C204600F09AFD01F0C6F997
:20406000054601F0C7F9064610480078022814D101F0CCF9014602A82246FFF7BDFA039AC0
:20408000029902A80A4BFFF784F903990298F368EA68009400F0B6F901E000F039FEFFF7FF
:2040A0001BFE04B070BDC0460AD7A33B4E09202000001644F0B581B005460124204600F0B4
:2040C000BBFF204600F0A6FF0026304600F0B4FF304600F09FFF7820FFF7A2F80D4F3978B3
:2040E000014039703046FFF79BF83978014039702846FFF795F8397801403970304600F04A
:204100009BFF204600F086FF204600F095FF01B0F0BDC0464C0920208446830706D0002AF3
:2041200029D001700130013A8307F8D1042A1CD30906090E0B0219430B041943082A10D32A
:204140000B00102A09D370B40F24161B22400C000D003AC0103EFCD870BC082A01D30AC023
:20416000083A042A01D302C0043A002A03D0013A8154013AFCD2604670477047F0B581B0FB
:204180000D480E4941600E4A51600E4B59600E4C61600E4D69600E4E71600E4F79600E49BE
:2041A0000160116019602160296031603960102001F004F901B0F0BD00080A40030000B1FE
:2041C00000280A4000480840008810400008104000080040002800400100002670B5012888
:2041E00016D100250124284621462246FFF7C5FF7D20C6002846314600F01FF8204621467B
:204200002246FFF7BAFF2046314600F016F870BD00242046214600F010F820462146224661
:20422000FFF7ABFF01252846214600F006F8284621462246FFF7A1FF70BD70470D480021C8
:2042400001800D4801800D4801800D4801800D4801600D490A680120C3029A430A600A683E
:204260000A4B13430B60C103094A1160094A11607047C046360920203A0920203E09202096
:204280004209202018092020289010401604020080E200E000E100E070B514460F4D0B46DF
:2042A0002B40002222600E4EB34215D81E46064312D01E0D07D100220A4B01F0BBF80D40B7
:2042C0003522D2432B461B0D9A18074BD2182260064A0A400649511870BDC046FFFFFF7F68
:2042E000FFFFEF7F0000504302FCFFFFFFFF0F800000E03F10B5FFF743FE002801D0002002
:2043000010BD012010BD10B5FFF73AFE002801DB002010BD012010BD10B5FFF731FE0028FE
:2043200001DD002010BD012010BD10B5FFF710FD002801DA002010BD012010BD10B5FFF763
:2043400007FD002801DC002010BD012010BD704710B5FFF773FA002801D0002010BD012093
:2043600010BD10B5FFF76AFA002801DB002010BD012010BD10B5FFF761FA002801DD002036
:2043800010BD012010BD10B5FFF775FA002801DA002010BD012010BD10B5FFF76CFA002811
:2043A00001DC002010BD012010BDFEE7B0B582B00C4801900C4800900C4D0D4900240D4BD5
:2043C0002846224600F0D8FD7F20C2050A49284600F04EFC0949284600F080FC0848046001
:2043E00002B0B0BD00009643000096C374072020000082430000C040000080BF9A99593FE2
:20440000EC082020F0B581B01C460D460146069E0F4F21C73A607B600E483346083FFDF72D
:2044200038FF38610C48294622463346FDF731FF04467861386900F0FFFB0546204600F095
:20444000FBFB0146284600F0D7FA01B0F0BDC0465C08202040072020A8072020F0B587B096
:204460000191064602AD0020E874123537460A243846214600F04AF84443391BCA175140DD
:20448000891A3031297009376D1E122F0746EED8002E01D46D1C01E02D20287002A8441B05
:2044A000224614320198294600F0CCFF1334204607B0F0BDF0B5FFB086B01C4615460246EB
:2044C000A868002801D50620A8602368039304AB0090019305A80B46FEF738F80646049F9A
:2044E000AA683946234600F0BFFC20680399814201D0012202E028680007C20F30463946FD
:204500002346FFF771FD7FB006B0F0BD1CB5002922D04C08002900D5494242105440002865
:2045200000D5404200230A00904201D95200FBE790425B41904200D3801A914201D252086A
:20454000F6E71900002C00D54042640000D549420200080011001CBD0100002000F051F8D0
:204560001CBD7CB515460C460646C01731464140081A009200210A226423FCF78DFA3046F1
:204580000930122808D8DF202040502804D02868411E296030210170002E01D42B2000E0B5
:2045A0002D2029684A1E2A6008702868411E296004707CBD0CB5030008001900BE228646FD
:2045C000002803D407D1002905D10CBD002349428341180006D4013A4000CB0F18434900DF
:2045E0000028F8D5803001D3013200E04000400AD20510437346002B02D50122D207104371
:204600000CBD70470CB54A00520D03231B02FF33D21A13D31F239A1A12D98E46C9020123C5
:20462000DB071943D1400B2A02D21532D04001437346002B00D5494208000CBD00200CBD89
:204640000B000120C007002B00D401380CBD704770B511221302C218C4580125AC43C45023
:204660000C888D7825438C882C43C558084E2E40084D25407419C4508879CB790343087A6D
:20468000184351687E23994318400818506070BDE798FDFF1867000080B5FFF726FAFFF7F9
:2046A000DEFA0B480021016041608160C16001610848016041608160C160016100F0C9FEDB
:2046C0000549086000F0C7FE0449086080BDC0467408202088082020080920200C09202045
:2046E00080B5FEF7F1FE0A48302100F06EFD094800210170084801600848016041608160DC
:20470000C16007480749016041608160C16080BDDC07202048092020F0082020AC082020B8
:204720009C082020FF0FFF0F81B0B0B587B00C460B930592491E22468A41A11A0391002517
:20474000049502900BA9069107480090074B05A802AAFBF7B5FC002C01D002990D7007B0EA
:20476000B0BC02BC01B00847454D00003952000010B50E4C2078052817D000F007FE00280A
:2047800013D100F039F800F04BFD00F0C1FA00F003FE002000F006FE012000F01DFB00F013
:2047A000E3FD034908600220207010BD4E092020E808202010B500F0D7FD044600F018FC48
:2047C000601C08490860601D0749086020460A3006490860204614300549086064340548D3
:2047E000046010BD00092020F408202004092020F8082020FC08202080B5FFF730FA0B488A
:204800000021016041608160C16001610848016041608160C160016100F01BFE054908609C
:2048200000F019FE0449086080BDC0467408202088082020080920200C09202010B50F4A29
:20484000017853185B78401CDB06F9D42D2901D02B2901D1027801E0401E0A46431C0020C2
:20486000303A092A05D80A24444310191A785B1CF6E72D2900D1404210BDC046B05F00006F
:20488000F0B511221302C2180C780B4D46590B4F374003262640BC19A9263606A419445144
:2048A0004C68C55807263606B54334402C19C45048781061F0BDC04608080000FCFFFF000B
:2048C0000D48002101600D48011F0A680323DB4313400B604168012291434160416812021A
:2048E00091434160016830229143016001680F22914301607047C04608030B4004010B4021
:2049000070B586B01D460C460592491E22468A41A11A039100260496029007480090074B84
:2049200005A802AA2946FBF7CBFB002C01D002990E7006B070BDC046774D00005152000091
:204940001CB50A0017D000230124E407A04200D20400944201D95200FBE790425B41904286
:2049600000D3801A914201D25208F6E719000200080011001CBD01000020FFF742FE1CBDB0
:2049800080B500F01BF8FFF72AF800F0CDFBFFF783FEFFF7A5FEFEF7E3FDFFF707FDFFF73A
:2049A000B9FA00F0E1FC0349086003480021017080BDC046E80820204E092020094800216A
:2049C00001600948016801229143016007490A601104074B1960074B1960016811430160E1
:2049E0007047C04624092020045808404850084080E200E000E100E010B50B4A904200DC3E
:204A000010460A4B984200DB1846094C2080914203DD994204DA618010BD11469942FADBC2
:204A20001946618010BDC0464AFCFFFFB6030000C808202070B50A480A4C84420CD00A4D90
:204A40000A4EB54208D02A686968501C12789200A25890470835F4E700BF00BF70BDC046AA
:204A6000AC610000A0610000BC610000CC61000006B49E22002802D404D106BC7047414295
:204A800004D400E00100013A4900FCD5803101D3013200E04900490AD2051143002802D5AA
:204AA0000122D2071143080006BC7047FCB4020C0B0CFF242402FF34204021400C00444380
:204AC00015005D4306005E430F005743320C3B0CA818C01832043B040025A1186841C918D7
:204AE0006841FCBC7047000010B50B4C2078022811D100F039FC09490968401A80087D286F
:204B000009D3012000F04EFC002000F065F900F0FFF80320207010BD4E092020E8082020C2
:204B200010B50146002000290FD0084A1388084C2488A34209D01088064B185C0870108829
:204B4000401C3F2101401180012010BD3A092020360920200007202010B50146002000293B
:204B60000ED0084A1388084C2488A34208D01088064B185C08701088401CC0B210800120C1
:204B800010BDC0463C092020380920200006202010B5044600F05DFC01460748074A23464E
:204BA000FFF710F900F057FC01460548054A2346FFF708F910BDC046740820200809202090
:204BC000880820200C09202010B50849084C204600F0CAFA07492046FEF706F806480168CC
:204BE0000122114301600548026010BD9A5C000000400840E0600000285008400851084042
:204C000070B5002815D10024064620462146FFF714FB204621462246FFF7AFFA01252846B7
:204C20002146FFF70AFB284621462246FFF7A5FA3046FFF78CFB70BD06B54100090E7F3955
:204C40000DD41F22511A0CD9864600020122D2071043C8407246002A00D5404206BD0020A1
:204C600006BD02000120C007002A00D4401E06BDF0B581B014460E46054641628262C768E3
:204C800038461146FFF788FB009038463146FFF768FB002800D13E460098002800D1344660
:204CA000EC6001B0F0BDB0B5FFF7D1F9002420462146FFF7C2FA012528462146FFF7BDFADA
:204CC000204621462246FFF758FA284621462246FFF753FA2046FFF73AFBB0BDF0B581B003
:204CE0000E4600907F20C50508462946FFF754FB0446002730463946FFF733FB002800D1E2
:204D00003746002C00D13D460098C56201B0F0BD80B5094800F0EBFA084800F0E8FA0849AB
:204D20000020086048608860C860086148610146FFF762FE80BDC04640072020A8072020CB
:204D40005C08202070B514460D4601466A68A86882420CD9101A8442264600D30646286800
:204D6000324600F06FFB286880192860A8680019A860204670BD70B514460D4601466A6801
:204D8000A86882420CD9101A8442264600D306462868324600F056FB286880192860A868D5
:204DA0000019A860204670BD80B50948FCF7DCF8FBF7C4FE002809D000F028FB2921405C44
:204DC000012803D100F0D0FA0249086080BDC0466F12833AE8082020B0B5094D697A0124F5
:204DE0004C40044006D100202860686005480078FFF7F4F92C722046FFF702FFB0BDC04686
:204E0000C808202054092020074882210161074A426101604260064941648164032000039B
:204E2000044908600864704744804240820004008100000290120A4070B5094C2140234021
:204E4000002501244042074E30468841204600D3284651429E4100D32C46204370BDC046FE
:204E6000FFFFFF7F0000F07FF8B51C4615460646571800F054FA711E012D0CDB3022012FBE
:204E800002DB874200DCCA5D23685E1E26601A707F1E6D1EF0E7F8BDF0B5C3B01F4601928E
:204EA0000D46064648AB02930120010203AC20463A46FFF725FD304629462246019BFCF71E
:204EC00065FF43B0F0BD000007480068C0B2002809D00B2803D105480121017070470448BA
:204EE0000168491C0160704720100040460920202C09202007480068C0B2002809D00D28F9
:204F000003D1054801210170704704480168491C0160704720300040470920202C0920205F
:204F200007480021CA43026042608260C2600548016041608160C160034801210170704706
:204F4000AC0820209C0820204809202004B40422002802D1002104BC704701D508324042E5
:204F600012021F320100521E4900FCD30805090B1205114304BC704770B5059C049D074E84
:204F8000046245628462C6623024002606554EC0066046608660C56070BDC046CDCC4C3FA5
:204FA000084880F3088800BF00BF00F05AFA002801D0FFF73FFD002000F0F2F8012000F0A6
:204FC00045FAC0460080202002B49E21002805D401D102BC704701394000FCD5803001D340
:204FE000013100E04000400AC905084302BC704780B5FEF759FF054800210170FCF7ACFF88
:2050000000F0D6F90249087080BDC0464D0920204B09202080B5074901221203002801D0EB
:20502000403101E00A6030310A60282000F0C6F980BDC046A0120A4080B5074901225203B6
:20504000002801D0403101E00A6030310A60282000F0B4F980BDC046A0120A4080B5FFF781
:205060008DF8FFF7D1FEFFF72BFCFFF7ADFDFEF79FFBFEF757FBFEF7DFFEFEF737FD80BD1B
:2050800030B514004C4325001C0044436419050010002900FFF70AFD001904000D002100BD
:2050A000280030BDB0B504460020002B08D0D2B20D782570954204D0641C491C5B1EF7D19A
:2050C000B0BD601CB0BD000080B5012000F06AF90020FFF781FEFFF71BFE0248042101704D
:2050E00080BDC0464E09202080B501200103054A11644003106411601060282000F05EF991
:2051000080BDC046A0120A4010B5064900240C604C60012002020A81FFF760F82046FFF7A6
:205120006FFD10BDC808202080B50548002101810160416003480170FFF7B5FD80BDC04658
:20514000C80820205409202018B520239B1A04D8010000205B42994004E004009140DC4095
:205160002143904018BD000010B50122120383180C789C604B7883508978014A815010BD8E
:205180000C11000004480068C0B2012803D103480168491C01607047205008402409202079
:2051A000FFF75CFFFFF7ECFBFFF704FBFEF758FDFEF756FDFEF754FDF8E700000B4611466D
:2051C0001A4680B5FEF7A8FF80BD0A46002180B5FEF7A2FF80BD000080B5FFF795FFFFF733
:2051E00097FD02480521017080BDC0464E09202080B50020FFF7F0FDFFF792FE0148012137
:20520000017080BD4E0920200348002101600348C182012141757047D408202044082020B7
:2052200080B5034800F063F802480021016080BD74072020EC0820204B688A689A4204D254
:205240000A68531C0B6010708A68521C8A6070474B688A689A4204D20A68531C0B6010705E
:205260008A68521C8A60704780B500F089F802480021017080BDC0464E092020034800681E
:20528000012149030140480B7047C04680130A4080B5034801218902FFF797FF80BDC04676
:2052A0000000202040B584B002AE0096FEF720F8029A039B04B040BD10B5012212038318AF
:2052C0000C789C604978815010BD0278914204D0002A01D0401CF8E70020704780B50B463B
:2052E00003214258C11D184600F0ACF880BD302100224254C26002614261826170470021F7
:205300004258091D002AFBD1081F8010704780B50A46032141581046FFF757FF80BD002127
:20532000425C491C002AFBD1481E7047014800787047C0464E092020014800687047C046D4
:2053400018092020014800687047C046E0082020014800687047C0461409202001480068DA
:205360007047C0462C092020014800687047C0462409202001480021416070472C082020EA
:20538000014800210170704748092020014800787047C04648092020014800214172704707
:2053A000C8082020014908707047C04654092020014800787047C0464C092020811E091FE7
:2053C00000BFFCD2704702460B4620462946FFE782B00094014C019410BD00BF01210000DF
:2053E0000022304639462B46704700000048704774082020004870478808202000487047E5
:205400002C082020004870474408202000487047DC07202000487047C808202080B5FDF733
:2054200097FE80BD80B5FDF7D9FA80BD80B5FBF70DFF80BD80B5FCF7BDFB80BD00487047D5
:205440005009202080B5FDF7F2FF80BD00F005F8FEE7002070470020704700BF70479FE5E2
:1054600070470120704700000000000000000000AD
:2054700000000000000000000000000000000000000000F8000000000000003330000000C1
:2054900000160E00160E0000000000000000000040C07840C0784000043F04043F040400F2
:2054B000007088FC08300000001820FF211E0000F008F000E018000000211C031E211E00BD
:2054D00000F00888700000001E21232419272110000000160E0000000000000000000000B1
:2054F000000000E018040200000000071820400000020418E00000000040201807000000A2
:20551000404080F0804040000202010F01020200000000F0000000000101011F010101005D
:20553000000000000000000000B07000000000000000000000000000000101010101010134
:20555000000000000000000000303000000000000000000080601804006018060100000060
:2055700000E010080810E000000F102020100F00001010F8000000000020203F20200000D6
:205590000070080808887000003028242221300000300888884830000018202020110E0035
:2055B0000000C02010F8000000070424243F240000F80888880808000019212020110E0084
:2055D00000E0108888180000000F112020110E0000380808C83808000000003F0000000095
:2055F0000070880808887000001C222121221C0000E010080810E0000000312222110F0058
:20561000000000C0C00000000000003030000000000000C0C0000000000080B0700000007A
:20563000000080402010080000010204081020004040404040404000040404040404040047
:2056500000081020408000000020100804020100007048080808F0000000003036010000DC
:20567000C030C828E810E0000718272423140B000000C038E0000000203C230202273820DC
:2056900008F8888888700000203F202020110E00C030080808083800071820202010080035
:2056B00008F808080810E000203F202020100F0008F88888E8081000203F202023201800EA
:2056D00008F88888E8081000203F200003000000C03008080838000007182020221E020047
:2056F00008F808000008F808203F210101213F20000808F8080800000020203F20200000B1
:2057100000000808F8080800C08080807F00000008F888C028180800203F20012638200014
:2057300008F8080000000000203F20202020300008F8F800F8F80800203F003F003F200055
:2057500008F830C00008F808203F200007183F00E01008080810E0000F10202020100F00CE
:2057700008F808080808F000203F210101010000E01008080810E0000F18242438504F0048
:2057900008F8888888887000203F2000030C302000708808080838000038202121221C006B
:2057B000180808F8080818000000203F2000000008F808000008F808001F202020201F0044
:2057D0000878880000C83808000007380E010000F80800F80008F800033C0700073C0300D7
:2057F000081868808068180820302C03032C30200838C800C83808000000203F20000000FC
:2058100010080808C83808002038262120201800000000FE020202000000007F404040000E
:20583000000C30C000000000000000010638C00000020202FE000000004040407F0000001A
:205850000020100804081020000000000000000000000000000000008080808080808080C4
:205870000002040800000000000000000000000000008080808000000019242222223F2008
:2058900008F8008080000000003F112020110E000000008080800000000E11202020110039
:2058B000000000808088F800000E112020103F200000808080800000001F222222221300D0
:2058D000008080F0888888180020203F202000000000808080808000006B949494936000BF
:2058F00008F8008080800000203F210000203F2000809898000000000020203F20200000AA
:20591000000000809898000000C08080807F000008F8000080808000203F24022D30200086
:20593000000808F8000000000020203F202000008080808080808000203F20003F20003FF3
:20595000008080008080000000203F2100203F200000808080800000001F202020201F007A
:20597000808000808000000080FFA12020110E000000008080808000000E112020A0FF801A
:20599000808080008080800020203F212000010000008080808080000033242424241900DA
:2059B000008080E0808000000000001F202000008080000000808000001F202020103F20AA
:2059D000808080000080808000010E300806010080800080008080800F300C030C300F00D0
:2059F00000808000808080000020312E0E312000808080000080808080818E70180601001B
:205A100000808080808080000021302C2221300000000000807C020200000000003F4040C7
:205A300000000000FF00000000000000FF0000000002027C800000000040403F0000000099
:205A5000008040408000008000000000000101000000000000000000002F000000000700FE
:205A7000070000147F147F1400242A7F2A120023130864620036495522500000000700007B
:205A900000001C224100000041221C000014083E08140008083E0808000000A0600000081C
:205AB00008080808000060600000002010080402003E5149453E0000427F40000042615168
:205AD0004946002141454B31001814127F10002745454539003C4A4949300001710905033D
:205AF00000364949493600064949291E0000363600000000563600000008142241000014E5
:205B100014141414000041221408000201510906003E4955592E007C1211127C007F4949A2
:205B30004936003E41414122007F4141221C007F49494941007F09090901003E4149497AB3
:205B5000007F0808087F0000417F4100002040413F01007F08142241007F40404040007F41
:205B7000020C027F007F0408107F003E4141413E007F09090906003E4151215E007F09199D
:205B900029460046494949310001017F0101003F4040403F001F2040201F003F4038403F7F
:205BB00000631408146300070870080700615149454300007F41410000020408102000008F
:205BD00041417F00000402010204004040404040000001020400002054545478007F4844C1
:205BF000443800384444442000384444487F00385454541800087E0901020018A4A4A47C10
:205C1000007F080404780000447D4000004080847D00007F102844000000417F4000007C34
:205C300004180478007C0804047800384444443800FC242424180018242418FC007C080400
:205C5000040800485454542000043F444020003C4040207C001C2040201C003C4030403CA5
:205C7000004428102844001CA0A0A07C004464544C440000087F41000000007F00000000E1
:205C9000417F08000008040810080800000800000000C1C081C1400101C3C003800241C2E0
:205CB00001C6C006800741C70005C1C581C4400401CCC00C800D41CD000FC1CF81CE400E34
:205CD000000AC1CA81CB400B01C9C009800841C801D8C018801941D9001BC1DB81DA401A94
:205CF000001EC1DE81DF401F01DDC01D801C41DC0014C1D481D5401501D7C017801641D6F4
:205D100001D2C012801341D30011C1D181D0401001F0C030803141F10033C1F381F2403253
:205D30000036C1F681F7403701F5C035803441F4003CC1FC81FD403D01FFC03F803E41FEB3
:205D500001FAC03A803B41FB0039C1F981F840380028C1E881E9402901EBC02B802A41EA13
:205D700001EEC02E802F41EF002DC1ED81EC402C01E4C024802541E50027C1E781E6402673
:205D90000022C1E281E3402301E1C021802041E001A0C060806141A10063C1A381A24062D3
:205DB0000066C1A681A7406701A5C065806441A4006CC1AC81AD406D01AFC06F806E41AE33
:205DD00001AAC06A806B41AB0069C1A981A840680078C1B881B9407901BBC07B807A41BA93
:205DF00001BEC07E807F41BF007DC1BD81BC407C01B4C074807541B50077C1B781B64076F3
:205E10000072C1B281B3407301B1C071807041B00050C190819140510193C0538052419252
:205E30000196C056805741970055C19581944054019CC05C805D419D005FC19F819E405EB2
:205E5000005AC19A819B405B0199C059805841980188C04880494189004BC18B818A404A12
:205E7000004EC18E818F404F018DC04D804C418C0044C184818540450187C0478046418672
:205E90000182C042804341830041C18181804040EFBC8C00000000000000000000000000AB
:205EB000000000000000005838000000000000000000000000E3808200000000000000005D
:205ED0000000000000000000000000001824241800000000000000000000E4BDA0000000F9
:205EF0008060F8074020180F08C80808281800010000FF00100C0340807F0001061800E5AA
:205F1000A5BD00001010F01F10F000808282E2928A868000402215081661000040807F0023
:205F300000000000E4B8960000202020FE2020FF202020FF20202020000000007F4040475D
:205F5000444444474040400000E7958C0000000000FE929292FE929292FE000000000808E0
:205F70000484621E010001FE0204040808000000000000FF0101013109090909897101019C
:205F90000101FFFF8080808080809681808080808080FF363A25347520373A25347500003E
:205FB000008080808080808080809090909090808080808080808080808080808080808001
:205FD0008018040404040404040404040404040404020202020202020202020404040404B5
:205FF0000404434343434343414141414141414141414141414141414141414104040404D3
:206010000404232323232323212121212121212121212121212121212121212104040404F2
:206030008000000000000000000000000000000000000000000000000000000000000000D0
:20605000000000000000000000000000000000000000000000000000000000000000000030
:20607000000000000000000000000000000000000000000000000000000000000000000010
:206090000000000000000000000000000000000000000000000000000000000000000000F0
:2060B00000256C752C25752C256C642C256C642C256C642C25642C25642C25752C25752C7F
:2060D000256C642C256C642C256C750D0A00080002000000FF7C00000000000000000000CC
:2060F000000000005253543A25356C75204952513A25356C75003031323334353637383994
:2061100041424344454600303132333435363738396162636465660053544154453A257523
:20613000204C494E453A257500303A25347520313A25347500343A25347520353A25347509
:2061500000323A25347520333A253475004652414D453A25386C750000001800000000306F
:206170000000000018000000003000004D533A2531306C7500545A785454545460000000B0
:1061900000050000000000030005000000000003EF
:2061A000693B0000DD5200000F53000002000000500900000001000001FFF000AC61000051
:1061C00000002020B46100005009202000000000E1
:00000001FF
