:2000000000802020A7710000B74B0000B74B00000000000000000000000000000000000004
:20002000000000000000000000000000B74B00000000000000000000B74B0000B74B0000BA
:20004000B74B0000B94B0000B74B0000B74B00002D6B0000596B0000B74B0000B74B000036
:2000600000000000B74B0000B74B0000000000000000000075710000B74B00006D710000B6
:20008000B16E0000B74B0000B74B0000B74B0000B74B0000B74B0000000000000000000037
:2000A000B74B0000B74B00000000000000000000B74B000000000000B74B0000B74B000036
:2000C000F0B585B00246F34C2078002811D00120FD4B19605D2A1CD05B2A24D1FB49CA68D9
:2000E000521CCA60FA4900220A70FA490A8005B0F0BD5B2A0AD101202070F54A0023137064
:20010000F44A1380F04A116005B0F0BD002005B0F0BDEF4D2978012913D1EC490A69521C7E
:200120000A6100F0E9FBEA490B78002B20D1E94C23885E2B1BD8591C2180F149CA5405B02F
:20014000F0BDE4490A88EE4900258D540A78002A16D02C2A11D04A78002A11D02C2A09D031
:200160008A78002A0CD02C2A06D0C91CEEE7087005B0F0BD491C00E0891C00220A704D1CC8
:20018000DF4F00E07F1C39780929FBD02029F9D00029039001D13B462EE07C1C204606F0E5
:2001A000DEFD421C2118824202D20B46039823E03A18039803E0C91ED21EBC4215D9137828
:2001C000202B01D0092B10D1BA4210D9531E1C78202C01D0092C0ED1BB420AD9941E2678A3
:2001E000202EE8D0092EE6D006E0531C04E0134602E08B1E00E04B1E00241C70002D26465D
:2002000000D1B1E0294600260A78002A13D02C2A0ED04A78002A0ED02C2A06D08A78002A02
:2002200009D02C2A03D0C91CEEE7491C00E0891C00220A704E1C2C4600E0641C2178092975
:20024000FBD02029F9D00029049401D1234630E0651C284606F083FD421C2918824202D219
:200260000B46039825E02218039804E0C91ED21E049CA54216D91378202B01D0092B11D1CA
:20028000A24211D9531E1D78202D01D0092D0FD1A3420BD9951E2C78202CE7D0092CE5D049
:2002A000049C06E0531C04E0134602E08B1E00E04B1E00211970002E11D031460A78002A5C
:2002C00016D02C2A10D04A78002A11D02C2A08D08A78002A0CD02C2A05D0C91CEEE70E46C6
:2002E00042E0491C00E0891C00220A7000E0761C31780929FBD02029F9D0002901D13346B8
:2003000030E0751C284606F02AFD421C2918824202D20B46039825E03218039804E0C91ED9
:20032000D21EB542049C15D91378202B01D0092B10D1B24210D9531E1C78202C01D0092C58
:200340000ED1B3420AD9951E2C78202CE7D0092CE5D006E0531C05E0134603E08B1E00E0A3
:200360004B1E049C00211970584B1968491C19603978002900D1BAE20A46413A20251A2A2D
:2003800000D229436B29049554D073297ED17A785C49002A6DD019461346413B1A2B01D299
:2003A000049B1A430B466C2A70D1BB78564A002B66D025461C46413C1A2C01D2049C23437C
:2003C0002C46692B0B4600D072E1FB78002B00D1D8E01C46413C1A2C01D2049C23432C460C
:2003E000642B0B4600D063E13B79002B00D156E11C46413C1A2C01D2049C23432C46652B22
:200400000B4600D054E17B79002B00D14BE1184641381A2801D204980343722B03982C46F2
:200420000B4600D044E1BB79002B0B4600D03FE1921D39E17A78F549002A1FD01D46134608
:20044000413B1A2B01D2049B1A432B46652A1DD1BA78002A16D01346413B1A2B01D2049B50
:200460001A432B46792A11D1FA78002A0ED1C91C09E0491C0978002908D148E1491C02E088
:20048000921C11E1891C0978002905D09969491C99612FE2ED0A2020002C00D127E2002EBB
:2004A00000D124E2317800296AD00A46413A1A2A01D2049A11436339122900D917E206A234
:2004C0004900515A49008F44700A202040092020E60A2020D40A20202100A1001202120291
:2004E0001202120212021202120212021202120212025F001202120212021202D300C046C0
:20050000A0072020DA790000748000007278C149002A00D1C1E01D461346413B1A2B01D2CD
:20052000049B1A432B466C2A00D0E0E1B078002800D1B6E00246413A1A2A01D2049A1043A5
:20054000692803982B4600D0D1E1F078002800D1C7E10246413A1A2A01D2049A104363281D
:2005600003982B4600D0C2E13079002800D16FE30246413A1A2A01D2049A10436B283BE08F
:20058000EE49B1E1D21C8FE07278EC49002A00D183E01D461346413B1A2B01D2049B1A436C
:2005A0002B46722A00D0A2E1B078002879D00246413A1A2A01D2049A1043652803982B46DE
:2005C00000D094E1F078002800D18AE10246413A1A2A01D2049A1043732803982B4600D0C8
:2005E00085E13079002800D132E30246413A1A2A01D2049A1043732803982B4600D076E145
:200600007279002A00D072E1491D6DE17278CC49002A42D01D461346413B1A2B01D2049BC4
:200620001A432B466F2A00D061E1B078002838D00246413A1A2A01D2049A104377280398E4
:200640002B4600D053E1F078002800D149E10246413A1A2A01D2049A10436E2803982B462D
:2006600000D044E13279002A00D040E1091D3BE17278B449002A10D01D461346413B1A2B0F
:2006800001D2049B1A432B46702A00D02FE1B278002A00D02BE1891C26E1491C24E1121D2B
:2006A00002E0891C1EE1521D1278002A0B462ED0BA78002A3CD01346413B1A2B01D2049B4E
:2006C0001A430B46692A00D0E0E6FA78002A7ED01346413B1A2B01D2049B1A430B46642A91
:2006E00000D0D3E63A79002A00D198E01346413B1A2B01D2049B1A430B46652A00D0C5E607
:200700007A79002A00D0C1E6B449491DB2E6002C57D0002E55D0307800252D2801D02B285E
:2007200009D12D38414241410191771C707804E0AA49891C9EE63746019501463039029112
:20074000092919D80025303806F0AEFA06462846A34904F0ADFD314603F0ADFF0546A149BC
:2007600005F056FB00282CD1791C78780246303A0A2A0F46E7D300E039462E281CD1487832
:200780000246303A092A17D88E1C974F303806F08BFA394604F08CFD294603F08CFF0546DE
:2007A0003846914904F084FD0746307801463039761C0A29EAD302E00299092901D8002895
:2007C00008D08A49C869401CC861039892E08349C91C4FE60198002802D00120C0074540C5
:2007E0000021284605F0F9FA0028EAD17D49284605F00EFB0028E4D128207C49085C0328F4
:200800000AD803A1085C40008744C046B780000006120C0F8E80000006F088FC0AE06F4949
:20082000091D27E606F096FC04E006F097FC01E006F084FC06462078002813D00146413989
:200840001A2901D2049908436B2836D032280CD031280DD1607800280AD17268B36830464E
:2008600029461AE06248007800E06078002810D06049204605F0A4FD002805D15E4920467D
:2008800005F09EFD002812D006CE083E30462B4603E0B368316830462A4606F082FC534930
:2008A0008868401C886055490398087022E04F498869401C886103981CE061784C48002956
:2008C00000D1B0E10A46413A1A2A01D2049A1143692900D1B6E17029CAD1A0780028C7D1DC
:2008E000BBE7C91C03982B46097800290BD0D968491CD960424C434D002121702970424A0C
:20090000118005B0F0BD5868401C586020782646002800D17FE0014641391A2901D2049940
:200920000843374C374D1F463138482800D979E005A14000085A40008744C046828000009A
:200940009A800000C88000006800A30098000E0110019C007400740074007400740074001E
:20096000740074007400740074007400740074007400740074007400740074007400740037
:20098000740074007400740074007400740074007400740074007400740074007400740017
:2009A000740074007400740074007400740074007400740074007400740074007400A700C4
:2009C00074007400740074007400D5003201740074007400740074001201C046DA7900001B
:2009E0000000204100401C46CDCCCC3D40092020C5800000D1800000C2800000E70A2020C0
:200A0000ED0A2020E60A2020D40A20207078002808D100205DE1B9481F4600780028B44C04
:200A2000B44D05D0BB49304605F0CAFC002807D029217A5C039842407A54AF4908705BE7EF
:200A4000B549304605F0BCFC002805D1B349304605F0B6FC002804D005F08AFF06F0CCFA28
:200A600041E1B869401CB861039845E770780028D8D1DFE070780028D4D1A048401C3B4605
:200A8000CAE770780028CDD109E171789F48002900D1CAE00A46413A1A2A01D2049A1143C5
:200AA000652900D1D6E06929BCD1B1789848002900D1F8E00A46413A1A2A01D2049A114353
:200AC0006E29AFD1F178002900D1F4E00A46413A1A2A01D2049A11436529A3D1317900291F
:200AE000A0D1001DE8E071788648002900D1A3E00A46413A1A2A01D2049A1143692991D1A4
:200B0000B178002900D1C3E00A46413A1A2A01D2049A1143672985D1F178002900D1C6E04C
:200B20000A46413A1A2A01D2049A1143682900D078E73179002900D1C5E00A46413A1A2AC9
:200B400001D2049A1143742900D06BE77179002900D067E7401DB7E07078B6E07078BFE0E7
:200B600071786948002969D00A46413A1A2A01D2049A1143612900D054E7B178002900D1ED
:200B800088E00A46413A1A2A01D2049A1143772900D047E7F178002900D043E7C01C7AE0B9
:200BA0007178574800294BD00A46413A1A2A01D2049A1143742900D034E7B178002970D07B
:200BC0000A46413A1A2A01D2049A1143612900D028E7F17800296CD00A46413A1A2A01D228
:200BE000049A1143742900D01CE73179002973D00A46413A1A2A01D2049A1143752900D03B
:200C000010E77179002969D00A46413A1A2A01D2049A1143732900D004E7B179002900D043
:200C200000E7801D5BE0401C1DE6401C0078002800D0F7E602204CE0401C45E0401C2AE0B8
:200C4000401C4CE0A178002900D011E6801C0AE6091D47E6B178002927D00A46413A1A2ACC
:200C600001D2049A1143662900D0DBE6F178002927D00A46413A1A2A01D2049A1143742995
:200C800000D0CFE63179002900D0CBE6001DCDE7801C19E0801C0078002800D0C2E6012040
:200CA00017E0801C1BE0801C06E0801CBEE7C01C0AE0C01C13E0C01C0078002800D0B1E66B
:200CC000A7E6C01CB2E7001D0078002800D0A9E603202821785406E0001D00E0401D007806
:200CE000002800D09EE604490398087004E6C046ED0A2020E60A2020E70A2020CD80000043
:200D00007B80000094800000BB8000009F800000AE800000A4800000CF80000088800000C1
:200D2000F0B5FFB08EB0049306920646929802900025E84305908C913468204606F074F983
:200D400021188B9503918C4200D3C2E00020879087A908738890059889902F46049D207805
:200D6000002800D1B8E0252805D0641C34600699A8477F1CF3E78B97601C306087AC2046E2
:200D8000314600F0C1F88CAA2046314600F0DDF8306801787A2925D0682919D06A2908D0CD
:200DA0006C290ED0742908D04C2922D1879980221BE087990122D20217E087990122520380
:200DC00013E0427887996C2A6AD10122120205E042788799682A66D10122520211438791D3
:200DE000801C05E08799012212030A438792401C0178441C346087A80173732913D06E2932
:200E00001DD1879836490840411E02464A408A423DD900282DD04142014032484143C80E2E
:200E200031A1085C26E087A80078400619D4009587A88CAA8BAB069900F046F92BE007ADDF
:200E400087A98CAA284600F095F9024628460699029B9847411C059D00D0C5198B95039906
:200E60001BE0009587A88CAA8BAB069900F0C9F811E02020401F082809D8C046784400791B
:200E800040008744210404151C04150404008C9802C88C900F6003998B9D681C1BD052E7E7
:200EA000401C402201E0401C2022114387919FE7F8178C9904C98C9117605060EBE78C98C8
:200EC00002C88C900F70E6E78C9802C88C900F80E1E72F4600E0059F38467FB00EB0F0BD6E
:200EE000603F000031B57C0700011C021D0E18031E16140F191104081F1B0D17151310075B
:200F00001A0C12060B050A0910B50A680124E3071AD01378302B0CD0232B0ED02B2B0AD022
:200F20002D2B04D00024202BF1D1042306E0012304E0102302E0022300E0082304681C432F
:200F40000460521C0A60E1E710BDFEB516460D460446086802782A2A10D13068011D3160AE
:200F600000686060002805D54042606020680121014321602868471C2F6017E00021303A92
:200F8000092A08D84218531C2B60435C6F467B545278491CF3E76A4600235354127847185B
:200FA000002A03D0684605F0A9F9606038782E2826D1781C286079782A2908D13068011D43
:200FC00031600068A0602868401C2860FEBD00203039092908D839188A1C2A604A786B465A
:200FE0001A548978401CF3E76A46002111541078002804D0684605F081F9A060FEBDA160B9
:20100000FEBDF0B587B01E460C9F13681C1D14601D68002D3AD0049106908468002C04D42B
:20102000284605F0F1FF844203D3284605F0ECFF044606984068A042039000DC20460146E5
:2010400030680191401805940399A142029630600EDD06980078C0070AD1059801990E1ACC
:201060000024B44204DA20200499B847641CF8E70026049C069805998E420ADA2868010AEC
:2010800018D12D1D2146B847761CF3E70020B84718E00599039A8A4214DD0078C00711D01C
:2010A0000198451A0024AC420CDA20200499B847641CF8E70020C0430299086006F066F88B
:2010C0005821016007B0F0BDF0B585B00C4606460A9D1068011D116000680490002844D074
:2010E0000393B768002F04D4049805F09DFF874203D3049805F098FF074602967268BA4285
:20110000114600DC3946039B1868009140180192BA4218600FDD02980078C0070BD10098D6
:20112000C01B039000260398864204DA20202146A847761CF7E70026BE4205DA0498805D56
:201140002146A847761CF7E70198B84210DD02980078C0070CD00098C61B0027B74207DA1A
:2011600020202146A8477F1CF8E700202146A84705B0F0BDF0B58BB004920D460446FF2154
:201180000846FA30271868680590002609960691FE3120222046029205F098FE7F208000C2
:2011A00021180A9103973E71287B0246613A172A08952BD8012393402546C34C23422C4663
:2011C00009D009A90AAA089D2846049B00F082F900260796B9E0712423422C46089D22D153
:2011E000022A13D1049B1868021D1A600068C2B2534253410793069AFC32A2180A920870EC
:20120000286802218843286000269EE001464539032908D3252800D180E0412803D058281E
:201220000796CED092E00194049A1068C01D07218843014608311160076846682D7B2C465E
:201240007B3C384631463A46334605F027FC002800D021E10120C007314681439B48484049
:2012600038431FD0F60F002007902846413806283FD9613D062D019C00D922E1A80002A285
:201280001058089D8746C046091300004B1300004B1300004B13000041130000351300009C
:2012A000291300000022384631460792134604F066FD1921CA436921049149216E254E23BE
:2012C00066274626944200D33E46039AD670019C00D32B46937000D3049951703F21C900C7
:2012E00061180A910028089D14D02D20107004262BE0019C089DC04678440079400087449F
:20130000032424241F1913000AAB38462A4601F099FB1AE02B201070032616E00020607017
:2013200025202070012086E00AAB38462A4601F08FFC0AE00AAB38462A4604F0F7FD04E0D9
:201340000AAB38462A4602F077FF287B012501466F39092904D801228A405D490A4201D10B
:2013600058286AD1059B0595E5180A9808990978C907274609D10399091D091A089A52685F
:201380009142274601DC691A4F1C411C0698430000263846324605F0D1FC0A9007990029C3
:2013A00003D0411C0A91067000E00146A94206D8481E691A491C202205F088FD2E70089DAF
:2013C0002878C00605D4391B2022204605F07EFD2CE0A7422AD0391B30262046324605F0F6
:2013E00075FD09984142414105980140012905D12878400702D43846214604E03878611C44
:201400002070781C3E702A7B412A0CD0582A05D0612A08D0782A01D0702A07D12B781B07AA
:2014200001D4612A02D142784A704670204605F0FBFD079940180BB0F0BD002E09D0012E66
:20144000059B90D101200990089801680220084007E0099A0898016802200840002A08D05F
:20146000059B0A994A1E0A922D220A704542454179E70028059B08D1480700D473E70A982F
:20148000411E0A91029901706DE70A98411E0A912B210170002566E71920C5436122412101
:2014A0006E234E20AC4200D31846039BD87000D31146039A91700A92507000200790022625
:2014C000019C089D41E7C04608C190000000F07F43020000F8B514460F46054680680028D8
:2014E00004D4286810218843286001E00120A860287B1026582808D0782806D0702804D0E3
:201500006F2801D1082600E00A262846194600F055F8AA68002A09D102460A4306D12878F8
:20152000000749D52B7B0020024612E02B7B642B03D16423002905D40AE0692B08D1002974
:2015400006D5692301223A60002240428A4100E00A4600941146324600F0CEF8A9688842D4
:2015600006DA401C21684A1E226030220A70F5E7287B582803D0782801D070280FD1297894
:2015800009070CD5702800D1782021684A1E226008702068411E216030210170287B6F280A
:2015A0000AD12878000707D520684178302903D0411E216030210170F8BDC04610B5037BC0
:2015C000702B05D10868021D0A60006800227BE002683E481040421E04465440944216D979
:2015E000002807D04242024039485043C00E39A2105C00E02020401F082808D87844007939
:20160000400087444C04041E38041E04040000221846643814280DD8012484403548044202
:201620000AD12120044205D00868021D0A600068C21749E0582B46D10868031D0B60006813
:2016400042E018466438142807D8012282402948024206D12120024203D10020582B02469E
:2016600032D10868C21D072082431046083008601068526828E0002218466438142807D8C5
:20168000012484401B48044204D121200442CBD1582B18D10868031D0B60007814E00022CB
:2016A00018466438142807D8012484401148044204D121200442B7D1582B04D10868031DC1
:2016C0000B60008800E01046114610BD603F000031B57C0700011C021D0E18031E16140FF9
:2016E000191104081F1B0D17151310071A0C12060B050A0900081200FEB501920D460646B7
:20170000582B01D0174800E015480090089802903046284305D1029A1068411E116030212B
:201720000170019C3046284313D030462946224600F01AF807460D46224605F0EDFA301A5A
:201740000099085C029B19684A1E1A6008703E46E8E70298006805F067FC401EFEBDC04648
:20176000B97E00000E7F000080B5102A06D0082A09D1C0084A078018C90880BD00090A077B
:201780008018090980BD002904D1114604F058FE002180BD002305F001FC80BDF0B58BB033
:2017A000FD4E304602F04AFC28217054002800D1EFE1FA490978012949D13388F8490A88C4
:2017C000934200D20B80F74A1488A34200D9138073884C88A34200D24B805488A34200D9BE
:2017E0005380B3888C88A34200D28B809488A34200D99380F388CC88A34200D2CB80D488EB
:20180000A34200D9D38033890C89A34200D20B811489A34200D9138173894C89A34200D2AC
:201820004B815489A34200D95381B3898C89A34200D28B819489A34200D99381F389CC8999
:20184000A34200D2CB81D1898B4200D9D38107907D200190C0000990D1480188D1480288CE
:2018600000258A4228460DD933888B42099809D99342284606D2581A099C6043511A04F0E4
:20188000DFFD201AC84C308287B2EB43C74A384629461E4605F040FA04AA83C2A74201D8BF
:2018A0000A9501E001200A90BD484188BD4842888A4228460896B84C0DD963888B42099835
:2018C00009D99342284606D2581A099E7043511A04F0B6FD301A608284B2B54A20462946F7
:2018E000089B05F019FA0E4604994018049005984641AD480594844202D90A98401C0A9075
:20190000A7488188A74882888A4228460ED9A24883888B42099809D99342284606D2581AE3
:20192000099C6043511A04F08BFD201A9A49888287B2A04A38462946089B05F0EDF90C4671
:20194000049940180390744197480497874202D90A98401C0A909248C1889248C2888A4281
:2019600028468D4E0DD9F3888B42099809D99342284606D2581A099F7843511A04F060FDC1
:20198000381AF08287B28D20C24338462946089B05F0C2F90E46039940180390664182480C
:2019A0000897874202D90A98401C0A907C4801897C4802898A4228460ED9774803898B4276
:2019C000099809D99342284606D2581A099C6043511A04F035FD201A0699059A8918029172
:2019E0006D49088387B28E22384629462B4605F093F90C4603994018059074416A480697FF
:201A0000874202D90A98401C0A90049802990E1863484189634842898A4228460ED95E487B
:201A200043898B42099809D99342284606D2581A099F7843511A04F003FD381A08997118BF
:201A400004915549488387B26B208200384629462B4605F061F90E4605994018089066410C
:201A60005148874202D90A98401C0A90069804990C184B4881894B4882898A4228460FD9D5
:201A8000454883898B4209980AD99342284607D2581A099B5843511A04F0D2FC0999081A9E
:201AA000E4193D49888387B2434A384629462B4605F032F9089A80180690714108913A48B7
:201AC000874202D90A98401C0A90E6193448C1893448C2898A420ED92F48C089884209D91F
:201AE000904208D2401A099C6043511A04F0A8FC251A00E0099D2848C583ADB270192A49BD
:201B00008D4202D90A99491C0A91C708002201214A2F0B46204E00D813460992292433558C
:201B20000A9A1346083B5C425C412A23F454534253412B243355062A00D809992C22B15498
:201B400005F0B2F8344606461C4903F07FFC60624B2F1AD30198C200002128460B4605F0F4
:201B6000DBF8069A8018089A514104F05FFA254604461449304603F09BFB0146204603F028
:201B800065FC28620E49086002E00D480068206207980BB0F0BDC04610092020E40A2020E6
:201BA000280A2020180A20208902000018FCFFFF36FDFFFF54FEFFFFCA0200000000FA4528
:201BC0006C0A202000007A44F0B58BB0BE480078012800D075E1BD48007801285BD00028EB
:201BE00000D0C8E005F0AEFA044605F0CDF905F047FA0090BE4B00260625304631462A464E
:201C000004F07CFF05F02AFA0090BA4B082130462A4604F073FF05F027FA074605F02AFAB6
:201C200000970190B44B102130462A4604F066FF2088618800900191B04B182130462A4640
:201C400004F05CFFA088E18800900191AC4B202130462A4604F052FF20896189009001916A
:201C6000A84B282130462A4604F048FFA089E18900900191A44B302130462A4604F03EFFFB
:201C800005F0DAF92921615C009001919F4B382130462A46F5E005F039FA054605F03AFAB9
:201CA000074605F053FA079005F05CFA069008A804F068FF05F068F905F0BEF90090844BB1
:201CC0000026062430463146224604F017FF28683968009001917F4B08213046224604F03D
:201CE0000DFF68687968009001917B4B10213046224604F003FFE86804F0B4FD0546F8689A
:201D000004F0B0FD00950190744B18213046224604F0F4FE069F386804F0A4FD054678683B
:201D200004F0A0FD009501906D4B20213046224604F0E4FE079DA85F0221695E0090019188
:201D4000684B28213046224604F0D8FE0420285E295F2A7A00AB07C3634B302130462246B7
:201D600004F0CCFE08980999009001915F4B38213046224685E005F0D1F9044605F0D2F932
:201D80000646079005F0D6F90546059005F0FCF805F052F900905E4B0027062204923846F7
:201DA000394604F0ABFE607D297E727D00AB07C3584B08213846049E324604F09FFE606862
:201DC00025460694544903F073FA04F04BFD04462868514903F06CFA04F044FD009401909E
:201DE0004E4B10213846324604F088FE059D6868494903F05DFA04F035FD0446E86804F0A7
:201E000031FD00940190464B18213846324604F075FE286804F026FD0446286904F022FDB3
:201E2000009401903F4B20213846324604F066FE0698C068384903F03BFA04F013FD0446A7
:201E40006869394903F034FA04F0C6FD00940190364B28213846324604F050FE079C03CCBE
:201E600000900191324B302138463246083C04F045FEE0682169009001912E4B38213846BD
:201E8000324604F03BFE2C4C2678F543F10000208022082303F060F805F016F90A49087057
:201EA000701C07210140217068070AD1074B1878401CC1B2AB224A43510A03224A43801AA0
:201EC00018700BB0F0BDC046E90A2020EC0A2020B47F0000947F0000847F0000647F000077
:201EE000E37C000019800000A47F0000CA7E0000388000000E800000A77E0000F67F00009F
:201F0000DE7F000002800000EA7F0000DB7E0000D17F0000307F000000002041C37F00007E
:201F2000747F00001F7F00000000C842807E0000FD7E0000947E0000EB0A2020F0B585B06C
:201F400006460024214603F048FF0028254600D13546A2488475A2480078C043A14E317DAC
:201F60000143C80715D1A04C2168284602F0A3FB20609E4903F043FF00280AD003A89C49C7
:201F800081809C49039100218171072101F0C0FE307501200190002702A804F0BBFB0028E3
:201FA00000D191E002AE307801F01EFE304604F0B1FB002800D187E002AE307801F014FEA9
:201FC000304604F0A7FB00287ED002AE307801F00BFE304604F09EFB002875D002AE307865
:201FE00001F002FE304604F095FB00286CD002AE307801F0F9FD304604F08CFB002863D007
:2020000002AE307801F0F0FD304604F083FB00285AD002AE307801F0E7FD304604F07AFB44
:20202000002851D002AE307801F0DEFD304604F071FB002848D002AE307801F0D5FD30468C
:2020400004F068FB00283FD002AE307801F0CCFD304604F05FFB002836D002AE307801F0A5
:20206000C3FD304604F056FB00282DD002AE307801F0BAFD304604F04DFB002824D002AE42
:20208000307801F0B1FD304604F044FB00281BD002AE307801F0A8FD304604F03BFB002887
:2020A00012D002AE307801F09FFD304604F032FB002809D00F263E4302A8007801F094FD67
:2020C00010371F2E00D267E74B4908684B4A16884B4B1F880C68A0420BD0086816881F88F2
:2020E0000C68A04205D0086816881F880968884203D144490A6890420FD1474C21682846B6
:2021000002F0D9FA2060454903F082FE0024002801D032484475334F5AE0002A07D0821AD0
:20212000022A04D32F4CE368D218521EE260086030B204F097FA344D294603F0B9F8274C64
:20214000A06038B204F08EFA294603F0B1F805462E48017800290ED02D480088301A00B2D4
:2021600004F080FA284903F0A3F80146606802F0A2FA606001E0019901701A4F244806804E
:20218000787D012818D1234C2168284602F093FA2060124CF98A4A1C91B2FA828A087D2A94
:2021A0000AD30646084604F07FFD0146304603F04DF9E06000207875E168284602F076FADC
:2021C000206001206075A075134800210160019C04F03EFF3861204605B0F0BDA809202077
:2021E000F00A2020C0092020540A20200100404001AD0000AA0601019C0A2020CC0A202021
:20220000CE0A2020580A2020CDCCCC3DE80A2020420A2020440A2020B80A20200BD7A33C53
:20222000F0B591B00F90012548000D90400D5C00670D59401095EE070E40AB494D1E4419B4
:202240008C4200D203E17C198C4200D2FFE0049610990C05611E00910B400025E9430E9147
:20226000A449019423430C93C01B40180290401C0390D0020A90500DD9020B9247189E489D
:20228000C41B3846294622462B4604F045FD4842294622462B4604F03FFD4900C00F4418ED
:2022A000204629463A462B4604F036FD4A42204629462B4604F030FD4900C00F4418204664
:2022C00029463A462B4604F027FD4A42204629462B4604F021FD4900C00F4018441E384652
:2022E000294622462B4604F017FD06460F460A98294622462B4604F00FFD70186F41109922
:20230000081A0A902A46BA41204629462B4604F003FDC20F49008918099146000A982946B0
:2023200022462B4604F0F8FC4A00C00F8018CF0F341809994F41E13C0994AF410F9AD00F9D
:202340000D9909180691520008920E98401E0D902E46AE41084630400346079020462946BC
:2023600004F0DAFC0A910698C043614AD1430143521A05922C466C4109982946234604F0C5
:20238000CBFC0690099138462946089A079B04F0C3FC0890079138462946059A234604F049
:2023A000BBFC05900A9A069BD0182B466B41079F3E400D9C089A224082185E410598381890
:2023C0006941099A80186941841969410E98401C4748684181424BD20022019881421098E7
:2023E00000D310460F9B01D3039A029281401F2242406708D7400F4384405E05204639469D
:202400000B9A0C9B04F088FC40428E4102994A1E3449491E8A423EDC012A48DB00990F40A4
:202420001205C10F73005B1840001099214040183A4304990A430021651C51410B9E301A9F
:202440000C98984100D3254644D3114642E0002F28D024498F4204D0002823D0884200D043
:20246000F5E62248064300253146284611B0F0BD6008CA0784184F080F9806052046394693
:202480000B9A0C9B04F048FC40428E41039A1549491E8A42C0DD15480499014300252846CB
:2024A00011B0F0BD00252946284611B0F0BD002A13D10E994C400E494F4027430DD1019A34
:2024C00056403043294605D1049911430025284611B0F0BD284611B0F0BD2946284611B042
:2024E000F0BDC046FF07000002F8FFFF0000F07FFFFF1F00FE03000033F30475F0B585B025
:20250000A34EA44AA44F0120440604900105A34D10681F231B069843106003204204002045
:20252000039104F09BFC9948076042273068204200D083E0284604F0CDFD306820427DD12A
:20254000284604F0C7FD3068204277D1284604F0C1FD3068204271D1284604F0BBFD306805
:2025600020426BD1284604F0B5FD3068204265D1284604F0AFFD306820425FD1284604F0DF
:20258000A9FD3068204259D1284604F0A3FD3068204253D1284604F09DFD306820424DD13D
:2025A000284604F097FD3068204247D1284604F091FD3068204241D1284604F08BFD306895
:2025C00020423BD1284604F085FD3068204235D1284604F07FFD306820422FD1284604F06F
:2025E00079FD3068204229D1284604F073FD3068204223D1284604F06DFD306820421DD1FD
:20260000284604F067FD3068204217D1284604F061FD3068204211D1284604F05BFD306824
:2026200020420BD1284604F055FD3068204205D1284604F04FFD163F00D077E75548806921
:2026400002900498020400200190039904F006FC4E485149016042273068204200D083E0DC
:20266000284604F037FD306820427DD1284604F031FD3068204277D1284604F02BFD306888
:20268000204271D1284604F025FD306820426BD1284604F01FFD3068204265D1284604F0CC
:2026A00019FD306820425FD1284604F013FD3068204259D1284604F00DFD3068204253D1BA
:2026C000284604F007FD306820424DD1284604F001FD3068204247D1284604F0FBFC306819
:2026E000204241D1284604F0F5FC306820423BD1284604F0EFFC3068204235D1284604F05E
:20270000E9FC306820422FD1284604F0E3FC3068204229D1284604F0DDFC3068204223D17C
:20272000284604F0D7FC306820421DD1284604F0D1FC3068204217D1284604F0CBFC3068AA
:20274000204211D1284604F0C5FC306820420BD1284604F0BFFC3068204205D1284604F0ED
:20276000B9FC163F00D077E70A488169173502984543284603F064FE094940180F2801D3FF
:2027800001980490049805B0F0BDC0462C030B4004020B4038010B400100000ED1030000D6
:2027A00043F6FFFFF0B593B00F900492002A00D144E1002B00D141E118980990002800D145
:2027C0003CE10E935818129004980B460F994218184610931E4604E0761C30B2129981420F
:2027E00033DD072331461193194001238B40C008C00193490D18D8430F9B1F4603E0DB1CAE
:202800001FB2BA42E8DDB1B23F2905D89CB27F2C02D8EC5D0440EC555C1C27B2BA42DBDDD8
:202820003F2905D8A4B27F2C02D8EC5D0440EC559C1C27B2BA42CFDD3F29E0D8A1B27F2956
:20284000DDD8E95D0140E955D9E70E98401E1290109A500F1018C51011998843101AD4130C
:2028600029190391110B082211400F18D61B0498401E0321029003F0E3FD4B1C0022032B99
:20288000009300D113461298C0080190B8B21190B0B210900498C01A0E90E801E101401834
:2028A0000F994018664C201812900A93581E0B900398C001401820180790059210460FE07F
:2028C000069B581C0499099A5218099212998031129107998031079101998B4200D1ADE0F1
:2028E0000146039806914218551C02980228059958D30021099F03E0C91C0E9888424ED0E8
:202900000F9840187F2814D8072A06D87C5C119B9C40129B5E5C26435E54072D09D87C5C47
:20292000109BDC40129B5E188027F35D2343F355099F431C7F2B17D8072A08D87B185B78F1
:20294000119CA340129C641866781E436670072D0AD87B185B78109CE340129C641881268C
:20296000A75D1F43A755099F801C7F28C4D8072A08D878188078119B9840129B5B189C781D
:2029800004439C70072DB7D878188078109BD840129B5B1882241E5D06431E55ACE70098AE
:2029A00003288DD00F984618099840180D90079840180C90059C089603E0A41CA74200D1C5
:2029C0007EE737197F2F16D8072A07D80D98035D119883400C99085D18430855072D0AD84D
:2029E0000D98005D1099C8400C990B198026995D01439955089E0B98A04200D160E7781CB6
:202A00007F280A9FD9D8072A09D80D9800194078119988400C9909194B7803434B70072DFC
:202A2000CBD80D98001940781099C8400C9909198123CE5C0643CE54089EBEE713B0F0BD11
:202A400000002020F0B5A5B0059308920D46074600260A967A4C3246234603F099F9002850
:202A600000D12C46354600D13D46284621463246334603F07BF946424641002807D10AAA54
:202A80002846214603F044F90A98401E0A900898007B0BAF412801D06B4800E069480990AB
:202AA0000898806801903020049038700022284621460292134603F062F90121002801D024
:202AC000C80744400391781C0790002E0DD024AA2846214603F01CF9249801210A1A2846BE
:202AE000214601F075FD05460C462846214603F0EBFA0646079903F0EDF90690304604F0FD
:202B00006DF802460B462846214600F005FD04460D460198471C20D30798069946180022A6
:202B200020462946134603F021F9002848D1002220462946454B04F025FB04460D4603F0EE
:202B4000C3FA0999095C771C317004F047F804F0C6FA04460D463E46E1E70BA806994618FD
:202B6000002F16D07F1E002220462946374B04F009FB04460D4603F0A7FA0999095C324682
:202B8000761C517004F02AF804F0A9FA04460D46E6E73178099C204604F013FA001B0828CB
:202BA0000EDB0196741E089D029F099E2178304604F007FA801B0E2805DD2770641EF5E76A
:202BC000089D029F04E00999081840782070019E37700A98297B4129059C01D0702100E0E8
:202BE0005021069E079F224603F0F7F9AA68501C04D1384604F018FA421EAA603846314699
:202C0000234603F063FFA8680028039A02D128680007C20F38463146234602F085FF287B6F
:202C2000412801D0782000E0582021684A1E226008702068411E21600499017025B0F0BD87
:202C40000000F0FFB97E00000E7F000000003040F0B5A3B01E460F4604460392916800299F
:202C600003D0002904D5062100E001210398816007910AA83021089101700022204639462E
:202C80000992134603F07BF801210028049101D0C8074740634D20463946614A2B4603F030
:202CA00089F800280BD00022204639465F4B04F065FA04460F460998401C0990EBE7002560
:202CC000204639462A462B4603F050F8002813D1002220463946544B03F051F800280BD002
:202CE000002220463946514B04F04CFA04460F460998401E0990E3E702960AA8461C2046E4
:202D0000394603F0E1F90596314603F0E3F807998842019004DD481C0AA90B18085C20E00D
:202D2000C9430E180AA90B180793581C06902046394603F0C9F903F051FF02460B4620460B
:202D4000394600F0E9FB0022384B04F01BFA04460F4603F0B9F9069B303007994870761C43
:202D6000E2D3C0B23528029E039F0DD3581E0178491CCAB201703A2A03D330210170401E12
:202D8000F5E70AA9884241D0099801990C181D700220C043844202DBB868844207DD601ECD
:202DA000397B891EC9B2324603F017F90124059804F03AF9401E0499A0421ADB0028089A3D
:202DC00001D4059A125C1346303B5D1EAB41C9431943C90705D13978090702D4002504997F
:202DE00005E031684B1E33600A7001250021401EE2E73868082202402A43501E824105982A
:202E00002146334602F090FE23B0F0BD581E00210170099801990818441C0AA80590B7E72A
:202E20000000C0FFFFFFDF410000F03F00002440F0B58DB007920890002201260B914900E1
:202E40004F0D5900490D0C91694C651E09977919A142314600D31146F7070A971F460B9835
:202E600047400C984519A542344600D314465F4D0A980740214301290AD10C98002800D1A0
:202E800084E0A8427BD0099800287FD0A84276D00096069700260125079A500DD9020818D9
:202EA0000590D00203903146089C2246334603F033FF049007910195EF07059807433846DA
:202EC00031462246334603F027FF089005910B98C0434949CA4302438A1A02923446744162
:202EE00003983146234603F017FF05460B913846049F3146029A234603F00EFF3F4A1740EA
:202F00001540079AAA18334673410B9C20187141059C00197141089C121958417141099B11
:202F20000C9CE318CC0221D4354C1B19C40F490009194000D40F0019FC0F520012197D00F7
:202F40002A4C641EA342069F19DC019C2405002B21DD641E21401B050B43194639436B4232
:202F60000A9C2346934126D2401C2AE0244C1B195B1C1E4C3D46641EA342069FE5DD1D48D5
:202F800007430026394630460DB0F0BD0026314630460DB0F0BD1B4D6940C043002A15DBB7
:202FA0000843002B009916D0002817D0009800283146E8D117E06240154303D1019A02407B
:202FC00080187141064630460DB0F0BD01960843002B0099E8D101990028E7D10091009879
:202FE00000283146CFD12743CBE7C046FF07000002F8FFFF0000F07FFFFF0F0000F8FFFF00
:2030000001FCFFFFFFFF1F00F0B589B0049105901178002900D1D3E01D461646002427460A
:203020000393029248B2002812D5E0200840C02824D0F0200840E0282FD0F8220A40601CFA
:20304000F02A41D081B2715C00290446EAD1B7E007A80170002242700598381800B2062DBA
:2030600000D19CE0082D00D0A3E00901574A5118574A891800910822102397E0601C07AA93
:20308000117080B2305C002800D199E00697A41C07A948700020887030E0601C07AA1170E4
:2030A00080B2305C002800D18AE0A11C07AA507088B2305C002800D182E00697E41C07A953
:2030C00088700020C87019E007AA117080B2305C002875D0A11C07AA507088B2305C00282E
:2030E0006ED0E11C07AA907088B2305C002867D00697241D07A9C87000200871314E307839
:2031000000282BD0002707A9304602F019F9002824D0781C80B2252568432A490E18085C67
:2031200000281BD007A9304602F00AF9002815D0B81C80B2684323490E18085C00280DD0A8
:2031400007A9304602F0FCF8002807D0FF1CB8B245431C484619405D0028D4D1039D062D57
:203160000ED0082D069F18D105983818711D009100B2102204991346FFF714FB10370CE090
:203180000598069F38181049BA31009100B2062208230499FFF706FBBF1D029E0BE00622A0
:2031A0005143094B5918C039009108230499FFF7F9FA641C7F19A0B2315C002900D031E773
:2031C00009B0F0BDE07B0000A0770000B071000000FEFFFFF0B583B0664801250570019543
:2031E00003F0DEFDAE2002F0D3FCD52002F0D0FC8020044602F0CCFCA82002F0C9FC3F203D
:2032000002F0C6FCD32002F0C3FC0026304602F0BFFC402002F0BCFCA12002F0B9FCC820B3
:2032200002F0B6FCDA2002F0B3FC122002F0B0FC812002F0ADFCCF2002F0AAFCD92002F0D1
:20324000A7FCF12002F0A4FCDB2002F0A1FC302002F09EFCA42002F09BFCA62002F098FC29
:203260008D2002F095FC142002F092FCAF2002F08FFC4148A902054603F02FFEB02002F0BD
:2032800087FC1027384602F083FC304602F080FC2846214601F04EF8B12002F079FC3846DF
:2032A00002F076FC304602F073FC803528462146254601F03FF8B22002F06AFC384602F01C
:2032C00067FC304602F064FC019C20022A490818294601F02FF8B32002F05AFC384602F05F
:2032E00057FC304602F054FC03200290C00122490818294601F01EF8B42002F049FC3846C3
:2033000002F046FC304602F043FC60021A4C2018294601F00FF8B52002F03AFC384602F0FE
:2033200037FC304602F034FC0520C0012018294601F000F8B62002F02BFC384602F028FCC9
:20334000304602F025FC029800022018294600F0F1FFB72002F01CFC384602F019FC3046E5
:2033600002F016FC0720C0012018294600F0E2FF03B0F0BDEA0A202000002020F0B587B039
:203380000193049207460C9C2920085C0128029427D10A6A524802600120C60772405448FE
:2033A000002523460C46294600F07FF90690246A2046294602F011FD002800D074404D491B
:2033C000204601F075FF4C4901F075F90546474C214602F002FD002800D12C46069870403F
:2033E0000AE03F480068002102F009FD002801D13D4800E03B483D4C03973C603F4906901C
:2034000001F056FF05463E49059102F001FD0746384E2846314602F0E0FC002800D12E461B
:20342000002F029C00D10596019800282ED000262046314602F0ECFC002827D03148059981
:20344000049A234600F031F901902F49204601F0FDFF2E49496901F02EF905467F20C705F8
:203460002846394602F0D4FC04462846314602F0B4FC002800D12E46002C00D1374601984C
:20348000394601F015FF0146012005E01D4803F0B3FD0027394638461C4C6761E160207628
:2034A000069801F008F90646194D294602F0B0FC0290184F3046394602F08FFC002800D159
:2034C00037460298002800D13D460398456006982060059860600498A060256107B0F0BD18
:2034E000680A2020000052C3000052430000C842740820200000F0C200007A43CDCCCC3E98
:203500000000F042DC082020CDCCCC3D8C09202000009643000096C3FCB40124E407634049
:2035200002E0FCB40124E40708B41D03ED08D60D354356025F007F0D06D12C00344300D030
:20354000AEE001B0FCBC7047A408254307242402FF34A74205D10020190D090501B0FCBCA9
:203560007047002B03D50024A61BAC4125000B03DB08C20D134342024800400D07D11C00B7
:20358000144300D08CE00EBC1000F0BC704701246407234307242402FF34A04205D1002009
:2035A000090D090501B0FCBC7047002903D50024A21A9C412300C11B08D51C002B002500C1
:2035C0001400320026000024611A3800362925D502B4393949420C00203C03D22F008F4061
:2035E000374301E03700A740002F01D040210E4302BC20290BD500290ED04C42203420B4FC
:20360000A5402C0020BC0D41CE40361904E000292E000D4120390E4192196B411C00144317
:203620003ED00024002B04D5012400218A1A99410B00401E52005B41FBD5012189021500A7
:203640000D400CD0521800277B4101D3401C0BE00721C90115000D4001D189008A43072135
:2036600009028A4352005B41801C19DD07210902FF31884209D30EBC0020C90F0902FF31EC
:20368000C900C91D0905F0BC7047190B00050143E40721431805120B104301B0FCBC7047A1
:2036A0000021002001B0FCBC7047F0B589B017460D460446002607931846314602F096FBB9
:2036C000002810D12846394600F0F0FF3021615C0129089009D1216900F0E8FF079901F079
:2036E000B5FE064605E0A76987E02246303201211170E56A67697F20C005294600F0D6FF4B
:203700000146304601F0D4FD06462846394601F0CFFD314600F0CFFF05906061E5680898BC
:20372000079901F0C5FD0495294600F0C4FF0646656AA16A069102F06BFB07463046294634
:2037400002F04BFB002800D13546002F00D10695266860680290069901F0AAFD054603961F
:203760003046089E314601F0A3FD294600F0A3FF0546A0680190059901F09AFD294600F0BB
:203780009AFF0546276A394602F030FB002806D0E1692846079102F032FB002819D1002178
:2037A000304602F01AFBE1690791002805D02846394602F02DFB00280BD10021304602F019
:2037C00027FB00281CD02846079902F006FB002816D00698E0602846394602F019FB064687
:2037E0002846079902F0F9FA002800D10795002E00D1079FA76108982061384609B0F0BD8F
:203800000298049901F054FD05460398314601F04FFD294600F04FFF05460198059901F075
:2038200047FD294600F047FF0546D4E7F0B589B003F026FC484A1168411A07D47D21C900FE
:2038400041181160454A0121117003E043490978012940D1424E2824315D0329089005D836
:203860007944097949008F44010A040703F05EFC07E003F06FFC04E003F070FC01E003F02E
:203880005DFC0546305D032803D880003649085800E034480790286802F0F2FD074606914A
:2038A000686802F0EDFD06460C46A86802F0E8FD29222B4B9A5C0096019402AB07C32B480B
:2038C00007993A46069B02F0ADFA0028089802D0224A00211170224B2921595C012939D146
:2038E00023490A68821A35D4283008602821595C002003291FD8C0467944097949008F44E3
:203900000114080E044603F01DFC014620460C6A12E003F027FC014600688C680CE003F079
:2039200021FC01464068CC6806E003F003FC014640688C6800E0044602F0A2FD05460E4632
:20394000204602F09DFD009001910A482A46334602F068FA09B0F0BD800A2020E70A202063
:20396000400920206C800000447F0000F17D0000880A2020EC7E0000F0B585B000280DD086
:20398000424A8B185B1E934208D3414F414B3A881B88D21A404B9343994206D94348016853
:2039A000491C0160002005B0F0BD03903B4A3C4B1868104018603E8804914C1E0321204689
:2039C00002F03EFD4A1C0021032A104600D10846022C02D2039B304A21E0029204990190B4
:2039E000091A04910021039B2B4A5F185D5CB4B218462C4B1D55741C14407D781D55B41CE3
:203A00001440BD781D550346F61C1640C91C049C8C42EAD1029C032C1D4F019811D05918C8
:203A2000204D0B78B4B22B55731C1340012807D04C78EC54B61C1640891C801EF1D100E0BD
:203A40001E463E80134C20883988884210D0154615481449026812060AD422888A5C8261EA
:203A60002288521C2A40228022883B889A42F1D122883B880A4C2168084801400120D21A2D
:203A800000D0C2021143216005B0F0BD01FEFFFFDC0A2020E00A2020FF010000FFF7FFFF1A
:203AA000281010400004202008111040C00A2020F0B585B01D461646302102900091017049
:203AC0000024104619462246234602F058F9002802D00120C00745400B9801900A98049028
:203AE0003E4F304629463C4A3B4602F063F9002809D00022304629463A4B03F03FFB0646F9
:203B00000D46641CEDE70027304629463A463B4602F02CF9002811D1002230462946304B4E
:203B200002F02DF9002809D00022304629462D4B03F028FB06460D46641EE5E70298401CF4
:203B400003900498001904903046294602F0BCFA039902F0BFF9039909180019019A1060D5
:203B60000498441C012C1ADB04913046294602F0ABFA03F033F802460B4630462946FFF784
:203B8000CBFC0022174B03F0FDFA06460D4602F09BFA3030049A511C1070641EE4D1481E42
:203BA0000278352A0DD3891E009C0A78521CD3B20A703A2B02D30C70491EF6E7029A9142B1
:203BC00003D00770039805B0F0BD077001990868401C08600298F6E70000C0FFFFFFDF4105
:203BE0000000F03F00002440F0B581B00146424A507A02280FD0012806D0002820D100207E
:203C00000A2917D001B0F0BD03290BD102205072032050701AE0042904D103205072042058
:203C2000907013E0354883685B1C836000200A29014602D10A2111700121517201B0F0BD73
:203C4000431C53721154507A092802D2002001B0F0BD002050721178FF2359404C002849AB
:203C60000C5B5578260A6540AB435B00CB5A5E4094781D0A7440E3B25B00CC5A6540D37842
:203C8000260A00935D40ECB264000D5B6E4014792F0A6640F5B26D004E5B77405579330AC1
:203CA0006F40FEB276008F5B7B4096793F0A7340DBB25B00C95A7940D379127A1202D218E5
:203CC0008A4213D10098000200190E490880280280190D4908800D480168491C016007482E
:203CE0000168491C0160012001B0F0BD03494A68521C4A6001B0F0BD380A2020C009202017
:203D0000E0790000CC0A2020CE0A20209C0A2020F0B585B002460020002A78D00B46203BD6
:203D20001E24E443A34272D33A4B1E883A4B1B88F31A1F252C469C43A14268D80392374AC2
:203D4000374F38681040386004914C1E0321204602F076FB4B1C0021032B184600D1084636
:203D6000022C039A1FD3029304990190091A049100215718545CB3B210462A4AD454731CE5
:203D80002B407C78D454B31C2B40BC78D4540246F61C2E40C91C049B8B42EAD1029B032B67
:203DA0001F4F019811D051181E4A0B78B4B21355731C2B40012807D04C78D454B61C2E40D3
:203DC000891C801EF1D100E01E46124C2680124E3088218888420FD01348124902681206F4
:203DE0000AD432888A5C82613288521C2A403280328823889A42F1D13288238839680748C6
:203E000001400120D21A00D0C2021143396005B0F0BDC046DA0A2020DE0A2020FFF7FFFF2B
:203E2000289010406C09202008911040F0B5364908390968CAB2122A64D801210B469340CC
:203E4000324C23421DD0324832490A68521C0A600168490756D43049304A324B304C05E09F
:203E60000F88E5550E8005686D074BD4C5690E88761CF6B21788BE42F2D11D686D1C1D60F8
:203E8000F1E70B2A24D00C2A3CD1274A1488274B1D88AC4210D01E4C254D264E27683F06C8
:203EA0000AD41788EF5DA76117887F1C37401780178818888742F1D110881B88124C2268FC
:203EC000C9028A43C31A00D119460A432260F0BD0F480168490715D40F49104A114B104C5E
:203EE00005E00F88E5550E8005686D070AD4C5690E88761CF6B21788BE42F2D11D686D1C51
:203F00001D60F1E7F0BDC046281010402C00040008111040600A2020D20A2020D80A202090
:203F200000062020B40A2020E00A2020DC0A202000042020FF010000F0B5394A8218394B63
:203F4000C0183A4D4C790B79002C22D0466F202B02D00524E70100E0354F2E40002B00D1EA
:203F600088273E434667846F2C403C438467446B2D4E34404463846B34408463002444653F
:203F8000846554688F26F643344054609468344094600C688979202B09D006467036002B4B
:203FA00015D1641E4460C46E2C40882715E0641E4460C46E2C401E4E3443C466046F2C4003
:203FC000344304671B4D01246707064607E00527FF0164084460C46E2C403C43C4663468B2
:203FE0002C403C433460C46A0F4D2C40C462046B2C4004630024C4640465C46F8F25ED4318
:204000002C40C46714682C401460194302680A4B1340BD220A40D118891C0160F0BDC04674
:2040200084180000041800008888FDFF24493E0001040000FFFFFFCF4000FFCFF0B5002865
:2040400061D005463149324B324A10780024012820463ED130480078012821D12F4800782D
:2040600000281DD00120304E37682F8077686F80B668AE802D4E3768EF8077682F81B768ED
:204080006F81F768AF813669EE81294D2E68761C2E601D6805431D600D6805430D6018E0FB
:2040A0001F4805686D1C0560052D2CD318680125EE4330401860086830400860186828431B
:2040C0001860086828430860164805686D1C05600020114D2C70114D2C70114D2C60154D0C
:2040E0002E680124A70237432F60134D2E68270337432F605D68260235435D604B683343DF
:204100004B601470F0BD0020F0BDC0460031004000110040E50A2020E20A2020E30A2020A6
:20412000C80A2020A00A202080625540808255405C0A20204810004048300040B0B53A4A96
:2041400080184A6842600A78222A56D8930001A4E3589F46F1410000FB410000F14100007F
:20416000FB410000FB410000FB410000FB410000FB410000FB410000FB410000FB4100005F
:20418000FB410000FB410000FB410000FB410000FB410000E1410000FB410000E141000073
:2041A000FB410000FB410000FB410000FB410000FB410000FB410000FB410000FB4100001F
:2041C000FB410000FB410000FB410000FB410000FB410000E1410000FB410000E141000033
:2041E000036803242407A343012464071B1903E0036803242407A34303600B69C360CB68A5
:20420000C46A0A4D25400A4C1C402B19C3620368084C1C400460097A114302683F239A439A
:20422000194051180160B0BD041800008888FDFF777702007F00FFFFF0B59FB003930E467B
:20424000054604929168002902D506210498816002910024344F2846314622463B4601F0E7
:2042600097FD002800D13746264600D12E46304639462246234601F079FD002820D1002419
:204280002A4D02F039FF01F07AFD002809D0002230463946264B02F075FF06460F46641E03
:2042A000EFE7234D02F028FF01F07BFD002807D002F022FF02F062FF06460F46641CF1E7D8
:2042C000029905A80091019006A832463B46FFF7EFFB0646059F022F049D08D1641C30465C
:2042E00002F0A2FE3018401E002101700127297B2046039C224601F070FEAA683046394655
:20430000234602F0E3FB304602F08EFE874203D128680007C20F00E001223046394623460A
:2043200001F002FC1FB0F0BD0000F0FF0000F03F00002440F0B585B00F460546012420468B
:2043400002F0D8FC0394204602F0C2FC0026304602F0D0FC304602F0BBFC782000F07AFA75
:204360002B4C217801402170402000F073FA217801402170002F3ED00497781E032102F0AF
:204380005FF8491C03290F4600D13746049803281FD301910297C01B04900026AF19A85D4C
:2043A00000F058FA217801402170787800F052FA217801402170B87800F04CFA2178014079
:2043C0002170F61C0498B042E8D101980328029F11D0AD19287800F03DFA217801402170B5
:2043E000012F08D0687800F035FA217801402170AD1CBF1EEED1002002F07CFC039C204657
:2044000002F066FC204602F075FC05B0F0BDC046EA0A202070B52C49842048610122530383
:204420002A4803600B464C3B85241C60D407284B1C60284CE51C0E46083E35600E1F35607A
:204440000D46103D82262E600D460C3D2C600D46203D2E600D461C3D2C600C46343C812580
:2044600025600C46303C25600D611B4C65630E46583E3560194D4D622560194C0C600D6878
:204480000D604C604C684C601946303912070A601A46403A03210C031460124A1A600246B9
:2044A000303A114B13600360104802680F231B04134303600E48026A09020A4302620268AC
:2044C0000A43026070BDC04664804240D0320A40D0120A40820004008C8042408100000285
:2044E00081000C00003000100310100090330A4028300A40F0B584B03049314A0125AC037B
:2045000016682B0203939E4316600E68264205D10E68264202D10E682642F6D06C02467EC8
:204520009769AF432E40BD1995612025455DD6690327BE433D407519D561224D2E6807278A
:20454000374005262E60466A33681362736853622F60C3695B065B0CD5697F263602B54345
:20456000EB18D361E8C8009707680197476802971B071B0B2D03ADB2ED1833071B0D007AB6
:20458000009E35431D43019B1D43029B1D43054390690D4B03400D482840C01890611068D2
:2045A000039B184310600868204205D10868204202D108682042F6D004B0F0BD04020B40FB
:2045C00008010B40001340408D00F0FF72FF0F00F8B515460C462B4E0A0D771C3A402A4B8C
:2045E0009A4213D0002A1AD10122D2079143014345D00022254B214602F0C4FD0C46244953
:204600008D4209DC234A244B214635E0214602462346FEF786FF31E0220D3A40363A511968
:20462000B1420ADD02F0B2FD222101600120C00704401D482418002021E0012904DB174A03
:204640001440090564181AE03522D24391420ADC02F09CFD2221016012488542E6DA01202C
:20466000C0070440E7E70D4A144009051B2252058918214300220A4B02F084FD0C4621466C
:20468000F8BDC046FE070000FF07000000005043AF3CFFFF59F3F8C21F6EA501FFFF0F8012
:2046A0000000903C51C300000000F07FFCB40127FF07794002E0FCB40127FF070C024D00F9
:2046C0002D0E03D1002C52D1FCBC70473C43FF2D50D0A408002900D56442020243001B0E82
:2046E00004D1002A43D10800FCBC70473A43FF2B41D09208002800D552425E1B04D51700E4
:2047000022003C0076422B00192E06D527003741D2191C27F71B7F42BC40002A27D002D5A2
:204720005242012700E00027013B5200FCD51500802635400FD01500202635402C43803257
:2047400008D21500402635402C4304D101263602B24300E05B1C5200023308DDFF2B0BD22D
:20476000500ADB051843FF073843FCBC70470020FCBC70470800C70FFF07FF20C0053843E2
:20478000FCBC7047F0B52948014608390968CAB2122A09D801210B469340254C234204D012
:2047A00024480168491C0160F0BD0B2A23D00C2AFAD1214A1488214B1D88AC4210D0204C36
:2047C000204D266836060BD41688AE5DA6611688761C1F273740178016881F88BE42F0D189
:2047E00014881B880268C9028A43E31A00D119460A430260F0BD124801684907D4D41249D9
:20480000124A0C4B124C05E00F88E5550E8005686D07C9D4C5690E88771C3F263E401788EC
:20482000BE42F1D11D686D1C1D60F0E7289010402C000400B00A2020DE0A2020DA0A2020D6
:20484000089110406C092020D00A2020D60A20200008202070B50646C00902F04BFA0124A2
:20486000204602F035FA0025284602F031FA40203040800902F03EFA204602F029FA284695
:2048800002F026FA20203040400902F033FA204602F01EFA284602F01BFA10203040000960
:2048A00002F028FA204602F013FA284602F010FA08203040C00802F01DFA204602F008FA52
:2048C000284602F005FA04203040800802F012FA204602F0FDF9284602F0FAF9022030402C
:2048E000400802F007FA204602F0F2F9284602F0EFF92640304602F0FDF9204602F0E8F9F5
:20490000284602F0E5F9204602F0F4F9204602F0DFF902F02FFB06466640284602F0D8F9A5
:20492000304670BDF0B581B0234B244E01277C02234800210160321F10680F2109028843BC
:204940000019009210603046083801680322D2430A4002603068B843306030681840306094
:204960001848FFF7C7FDFDF7C9FD00280BD0009A106810210143202081431160002001F053
:2049800079FC01B0F0BD104D03E0FDF7B7FD0028EDD130680849084030603068390201439E
:2049A000316028682042F0D128682042EDD128682042F6D0E9E7C046FFFEFFFF08010B4026
:2049C00008030B40447E000004020B40F0B583B01B4801901B4800901B4E1C4900241C4B56
:2049E0003046224602F024F97F20C2051949304601F054FF1849304601F086FF174E0196FF
:204A0000174F0097174D3F20010628462246234602F00EF928463946324601F03FFF284695
:204A20000D4901F071FF104804601048046044608460C46004614461846103B0F0BDC04646
:204A400000009643000096C374082020000082430000C040000080BF9A99593F0000A042B7
:204A60000000A0C2DC082020680A20208C09202080B582B002F004FB01F09AFD01A801F0AF
:204A800081FE002800D142E002F0FAFA014601A80078FBF715FB0028F0D101A800784338A7
:204AA0003528EBD878440079400087441E1D271D211D241D1D1D1D1D1D1D1D1A2A1D1D1D32
:204AC0001D2D1D1D1D1D1D1D1D1D1D1D1E1D271D211D241D1D1D1D1D1D1D1D1A2A1D1D1D06
:204AE0001D2D01F083FBC9E7C8E702F009FAC5E702F0CCFAC2E702F01BFABFE702F030FAD3
:204B0000BCE702F03DF9B9E702F0EEF9B6E702B080BD7047F0B58B4200D1824204D90B001F
:204B200002000021002040E0002B00D1002A0CD10B00020000210020002B00D1002A01D0CA
:204B4000C943C04300F0C3FC2FE01C0015000B0002000CB4002126002F00FF19764102D271
:204B6000491C4029F9D100201E001700FF19764102D2401C4028F9D10E1A21002800320074
:204B800002F04EF90C0005000CBC00200021A34200D1AA4201D3521BA341404149416D087B
:204BA000E7073D436408761EF1D5059F002F01D03A607B60F0BDFEE770B51E4800680228F9
:204BC00036D11D4A1046103801680320000208402ED0136803431360184A1268D3090224E3
:204BE0001C409205D20FA218154B1C78A4001419E5B2144C64571E78B24208D00126AE4039
:204C0000114D354003D0114D2E68761C2E60104D2E6834192C601A70C90503D50D490A6816
:204C2000521C0A60400A03D00A480168491C016070BDC0463011404048300A4080330A404B
:204C4000EE0A2020547F000069960000AC0A2020A40A2020A80A2020F0B583B002931446AD
:204C60000D46064608461146FFF725FD0746306028462146FFF71AFD0546019670603E46E3
:204C800000243846214601F0A8F80121CF070028009600D07E402846214601F09EF80028B2
:204CA00001D12F4600E06F40029C3846314601F0AFF8002800D137463846214601F0A8F807
:204CC000002815D00021384601F0A2F800280FD02046394600F0BAFB04460098214600F0D3
:204CE000E7FA019E30602846214600F0E1FA706003B0F0BD002A49D084468B071CD18307BE
:204D000022D1102A08D370B4103A78C978C0103AFBD270BC103238D0042A2CD3082A05D3E0
:204D20000C2A01D308C908C008C908C008C908C092072AD0920F22E00B780370491C401CB1
:204D4000521E22D08B07F7D1C30714D18307D8D0121F12D308C903801B0C4380001D121F14
:204D6000F8D20AE008C903701B0A43701B0A83701B0AC370001D121FF4D2121D05D00B7858
:204D80000370491C401C521EF9D160467047704770B519480168194A13680124A343136046
:204DA000151F00232B60164D2B80164D2B60156825431560144C02222260BFF34F8FBFF373
:204DC0006F8F124C2568032636022E432660104C2360104C2360104C2360104B1B68DC0932
:204DE00014409B05DB0FE3180D4C23700D4B1A60890700D5026070BD00E100E00418094002
:204E0000520A2020740A202080E100E048300A40A40A2020A80A2020AC0A202080330A4062
:204E2000EE0A202080E200E0F0B5184A00211170174B197017480170174C2160174D2960C3
:204E4000174D2960174D2960174D10262E6020272F60164D2E602F60117019702160144A11
:204E6000136801218C021C431460124A13680C031C431460104A13680C02234313600F4A66
:204E80001368234313600170F0BDC046E20A2020E30A2020E50A2020C80A20205C0A20205A
:204EA000A00A2020C40A202080E200E000E100E048100040483000400411004004310040DD
:204EC00080B51849002008700872C871887148710871C870887048704872134908604860B8
:204EE0008860C860086148611049086048608860C860086148610E4908800E4908800E49F0
:204F000008600E4908600E4908800E4908700E4908600E4908600E49086000F0CBFE0D4970
:204F2000087080BD380A2020A8092020C0092020CC0A2020CE0A20209C0A2020580A20208A
:204F4000420A2020E80A2020B80A2020540A2020440A2020F00A2020F0B583B0002A41D018
:204F6000002B3FD01218C417A043802A00DB8022824237DDCC13072525404D192DB2ED105E
:204F8000CB185B1E5E0F9B19DF102E19002900DB7F1CB74226DD144909180291C1B209092D
:204FA000103101910F250540101AC0B20090344603E0761C34B2A74214DDB0B20728F8D869
:204FC000B0203043C0B200F0E3FD019800F0E0FD284600F0DDFDE001029908180099FFF783
:204FE000A9F9E6E703B0F0BD00002020174802210160BFF34F8FBFF36F8F15480268032392
:205000001B0213430360134A00201060124A1060124A1060124A1268D3090B409205D20FC0
:205020009A18104B1A70104A1160104A116010490A6801239A430A600A1F10600D4A10808D
:205040000D4A1060086818430860704780E100E048300A40A40A2020A80A2020AC0A2020C6
:2050600080330A40EE0A202080E200E000E100E004180940520A2020740A2020F0B581B063
:205080001C491D4C204601F005FF1C492046FEF753FF1B4801681B4A0A400260002500953E
:2050A000204629462A462B4601F036FF204629462A4601F0E1FE7D204601204631462A46CE
:2050C00001F092FF01270097204629462A462B4601F022FF204629463A4601F0CDFE204650
:2050E00031463A4601F080FF074887600321016001B0F0BD418000000000874054800000D4
:20510000041887407F00FFFF0011874010B51C491C4C204601F04CFF1B49204600F0FAFF70
:205120001A4801680322D203914301600169184A0A401532026141692D220A4312218A436F
:205140004261426801210A4043688B439A184260104A13688C021C43146002684B04134384
:205160000360C26870231343C360C2680223134305229343C36002680A43026010BDC046E5
:20518000427E00000000104024800000001110400000FFFF2810104010B51C491C4C20467C
:2051A00001F006FF1B49204600F0B4FF1A4801680322D203914301600169184A0A40153235
:2051C000026141692D220A4312218A434261426801210A4043688B439A184260104A1368CB
:2051E0008C021C43146002684B0413430360C26870231343C360C268022313430522934304
:20520000C36002680A43026010BDC046CB800000008010402E800000009110400000FFFFD7
:205220002890104040B542004B005E08164301D006004E4000D4D01A04D20120C90F06D15C
:20524000404204E003D90120C90F00D04042FF263606B24200D8B34200D9012040BD40B5B3
:2052600042004B005E08164301D006004E4000D4D01A04D20120C90F06D1404204E003D9D7
:205280000120C90F00D04042FF263606B24200D8B34201D90120404240BD42004B0000207A
:2052A000FF2109068A4200D88B4200D901207047FCB40127FF0706004E4001D4002600E050
:2052C0003E00020243001B0E30D03A43FF2B30D00C024D002D0E29D03C43FF2D29D05B19D2
:2052E0004240504042404C4061404C4000B501F0D7F920BCAE464240504042404C4061405A
:205300004C4025001400002C01D46400013B803401D3013364087E3B08DDFF2B09D2BC435D
:20532000200ADB0518433043FCBC70470020FCBC7047FF20C0053043FCBC704700BF70475B
:20534000024670B50A4392072AD11E4DEE0104C808C9541B9443344017D0D0B2D9B2401A00
:205360002106014310D190B299B2401A210401430AD110021902000A090A401A21020143AB
:2053800002D1100E190E401A70BD9A42DFD010BA19BA884201D9012070BD0020C04370BD04
:2053A00002780B7801300131002A09D09A4207D102780B7801300131002A01D09A42EFD0E0
:2053C000D01A70BD01010101F0B583B01C4800F0D7FF01F09BFE054601F09CFE064601F013
:2053E0009DFE044601F09EFE07461648007802280AD101F0A7FE01462268607D012806D1CF
:205400007B7D0120584003E001F098FA14E000200B4C00940123034001A8FDF7AFFF029A28
:20542000019901A8084BFFF717FC02990198F368EA68009400F022FD00F07EF903B0F0BD82
:205440000AD7A33BEF0A202000001644FCB40127FF0706004E40F60FF607020243001B0E16
:205460002DD03A43FF2B2DD00C024D002D0E26D03C43FF2D26D05B1B0020202164085208C1
:20548000A2424041A24200D3121B013904D0002A01D05200F4D18840384201D14000013B13
:2054A000803001D3013300E040007F3307DDFF2B08D2400ADB0518433043FCBC70470020F3
:2054C000FCBC7047FF20C0053043FCBC7047704710B51749174800F033FF17484168174BD0
:2054E0000B4001210A049B1843608368144C1C408B06E3188360134B00241C6002245C60E5
:2055000004249C600524DC6006241C61036813430360C82242610C4A136A0C0323431362ED
:2055200013682343136002680A43026010BDC0464C8000000020004000310040FEFFECFFA6
:20554000F8FFE0E08031004028300040F0B581B01248134A42601348426013484260134C83
:205560006260134D6A60134E7260134F7A6013494A6013484260134A084B1A60094B1A60D5
:20558000094B1A6022602A6032603A600A600260102001F09FFD01B0F0BDC04600080A40C6
:2055A000030000B100280A400008874000080940004808400088104000081040000800409D
:2055C0000028004001000026F8B5451C00780023082B32D02F78C2070CD16A780F241440A8
:2055E000E41C122C0BD102242E57F4B2002E08D4EE1C0EE06D1C4A1C0F7011461AE0AE1CB5
:2056000008E02E1DED7800957F252C40009DED012C1912343D0112095219094DAA420ED053
:20562000D243002C05D08D5C4F1C0D70641E3946F7E7354640085B1CCAE72846C5E7F8BDEA
:20564000FF0F0000B0B50D460446401E844101290EDB01210022204600F050FF7D20C000BE
:20566000854200D305462046294601F06FF8B0BD002D09D4012A17D1012120460A4600F0C6
:205680003DFF7D20C1000BE000210122204600F035FF684281B27D20C000814200D30146A0
:2056A000204601F053F8B0BD00252046294601F04DF8204629462A4600F020FFB0BD0000EA
:2056C00010B501F0DDFC0446FFF7D2F915480168611A03D4611C016001F098F912480168F5
:2056E000611A03D4611D0160FFF76EFE0F480168611A04D421460A31016000F0EFFF0C48CF
:205700000168611A04D421461431016001F0F9FC08480168611A03D464340460FCF754FA92
:2057200010BDC0468C0A2020780A2020900A20207C0A2020840A2020F0B581B01A4C207ABA
:2057400001282BD1607AC00728D10020215E0422A35ECD1A2721C9438D4200DC0D46282241
:20576000282D00DB15465B19A3800225675F0625665FBF1B8F4200DC0F46282F00DB1746BF
:20578000F119E180094E327819B2FFF75BFF615F32780120FFF756FF01B0F0BD034800788B
:2057A00000F059FA01B0F0BD480A2020FC0A202070B50446049D10680E1A11605E436660E8
:2057C00020688019206000F04DFF1349FFF770FD20610021284600F01BFB00281AD030468F
:2057E00000F040FF0C49FFF763FD2946FFF72EFEE5682946FEF75AFF0849FFF759FD294628
:20580000FEF759FFE0600649FFF752FD0549FFF71DFEA06070BDC046920A063E3333B33E9E
:20582000000070421A344C43F0B583B015480190154D0095154801218E070024144F31460A
:2058400022463B4601F0F4F900950E480190114D2846314622463B4601F0EAF90B4801F0C1
:20586000CBFB284601F0C8FB0B48046044608460C460046144612046214600F07BFE03B0EA
:20588000F0BDC04600806D4400806DC4400820200AD7A33CA8082020D8092020FEB50293D2
:2058A0000F46194D0024E143184E00973740019043422B46BB4101D20C4623E008460299DD
:2058C0000E405342B54101D204461BE0134601990B433E431E43029D009E13D02B463340B0
:2058E00004D401998B1A3346AB4103E00199531A2B46B341044605DB51406E400E43701E95
:20590000864134462046FEBD0000F07FFFFFFF7F10B515490124A00700F012FD1348416848
:20592000134A0A402104521842608268114B134062069A188260104A02231360032353602F
:205940000723936002680A430260C82141610B490A6AA3021A430A620A681A430A600168AE
:205960002143016010BDC0464480000000110040FEFFECFFF8FFE0E0801100402810004092
:205980000F48002101800F4801800F4801800F4801800F4801600F4801600F4801600F4807
:2059A00001680122D3029943016001680C4B0B43036050030B4908600B4908607047C04650
:2059C000D20A2020D80A2020DC0A2020E00A2020B40A2020600A2020C00A202028101040FF
:2059E0001604020080E200E000E100E070B501F047FB04460F48002101700F4801800F48CE
:205A000004600F4801700F4801700F48012606700E4D2C21284601F060FA29202E5420460C
:205A200028300B4908607D20C00020180949086070BDC046A0072020D40A2020700A202011
:205A4000ED0A2020E60A2020E70A202040092020880A2020800A2020F0B581B0134E3068BA
:205A60000124A043306020071149086011480460022101607D2149010A4660320260220511
:205A800002607068002800D001460B4F39600B4D0022284601F0A8FA39682846224601F0B7
:205AA000A3FA30682043306001B0F0BD04188740A0120A40A0320A40F80A2020000087405C
:205AC000F8B50446164F174D0E462E400120009464423C46B4411AD31D405442AF4116D3B9
:205AE0001046009C20433543054311D00020C0431C460C400ED4009CA41A0C469C4106DB93
:205B00000098504059400143481E81410846F8BD0020F8BD009C141B1C468C41F0DAF6E7DF
:205B20000000F07FFFFFFF7FF8B51C4617460E46054601F079FA0021012E03DB864201DC38
:205B4000A919491E002F04D02268531E23602E2313703246824206DD23685F1E27603027C2
:205B60001F70521EF6E7B04200DB3046012808DBA9420BD308782268531E23601070491E4C
:205B8000F6E72068411E216030210170F8BD0000F0B581B005460124204601F0ABF82046A3
:205BA00001F096F80026304601F0A4F8304601F08FF87820FEF74EFE0D4F3978014039707F
:205BC0003046FEF747FE3978014039702846FEF741FE397801403970304601F08BF82046ED
:205BE00001F076F8204601F085F801B0F0BDC046EA0A20208446830706D0002A29D001701C
:205C00000130013A8307F8D1042A1CD30906090E0B0219430B041943082A10D30B00102A54
:205C200009D370B40F24161B22400C000D003AC0103EFCD870BC082A01D30AC0083A042AFD
:205C400001D302C0043A002A03D0013A8154013AFCD26046704770B5012816D1002501247E
:205C600028462146224600F049FC7D20C6002846314600F06BFD20462146224600F03EFCB3
:205C80002046314600F062FD70BD00242046214600F05CFD20462146224600F02FFC0125FB
:205CA0002846214600F052FD28462146224600F025FC70BD0D48002101800D4801800D4833
:205CC00001800D4801800D4801600D490A680120C3029A430A600A680A4B13430B60C10376
:205CE000094A1160094A11607047C046D00A2020D60A2020DA0A2020DE0A2020B00A2020DF
:205D0000289010401604020080E200E000E100E070B514460F4D0B462B40002222600E4EC5
:205D2000B34215D81E46064312D01E0D07D100220A4B01F027FA0D403522D2432B461B0D14
:205D40009A18074BD2182260064A0A400649511870BDC046FFFFFF7FFFFFEF7F00005043D3
:205D600002FCFFFFFFFF0F800000E03F10B5FFF7A7FE002801D0002010BD012010BD10B582
:205D8000FFF79EFE002801DB002010BD012010BD10B5FFF795FE002801DD002010BD012030
:205DA00010BD10B5FFF77AFD002801DA002010BD012010BD10B5FFF771FD002801DC0020B8
:205DC00010BD012010BD000010B5FFF72BFA002801D0002010BD012010BD10B5FFF722FA7D
:205DE000002801DB002010BD012010BD10B5FFF719FA002801DD002010BD012010BD10B550
:205E0000FFF72DFA002801DA002010BD012010BD10B5FFF724FA002801DC002010BD01209B
:205E200010BD000083B010B5B1B033AC0EC4002818D0044633AB009301A8C021224600F0DE
:205E4000DFFA00280ED40146C02804D30A48416A491C41620AE001A8FDF78EFD002801D049
:205E6000012004E00448016A491C0162002031B010BC02BC03B0084740092020F0B581B0B2
:205E80001C460D460146069E0F4F21C73A607B600E483346083FFDF708FC38610C4829463D
:205EA00022463346FDF701FC04467861386900F0D9FC0546204600F0D5FC0146284600F070
:205EC00059FB01B0F0BDC046D809202040082020A8082020F0B587B00191064602AD0020E8
:205EE000E874123537460A243846214600F04AF84443391BCA175140891A30312970093713
:205F00006D1E122F0746EED8002E01D46D1C01E02D20287002A8441B224614320198294691
:205F200001F038F91334204607B0F0BDF0B5FFB086B01C4615460246A868002801D506206B
:205F4000A8602368039304AB0090019305A80B46FDF7AEFD0646049FAA683946234600F0CF
:205F6000B5FD20680399814201D0012202E028680007C20F304639462346FFF7D5FD7FB0F5
:205F800006B0F0BD1CB5002922D04C08002900D5494242105440002800D5404200230A0043
:205FA000904201D95200FBE790425B41904200D3801A914201D25208F6E71900002C00D55D
:205FC0004042640000D549420200080011001CBD01000020FEF7DBFE1CBD7CB515460C46E1
:205FE0000646C01731464140081A009200210A226423FBF781FB30460930122808D8DF20C8
:206000002040502804D02868411E296030210170002E01D42B2000E02D2029684A1E2A609C
:2060200008702868411E296004707CBD0CB5030008001900BE228646002803D407D1002932
:2060400005D10CBD002349428341180006D4013A4000CB0F184349000028F8D5803001D3CB
:20606000013200E04000400AD20510437346002B02D50122D20710430CBD000080B50A49FE
:206080000A4800F007FF0A480A49C1620022C267094B0360016309490A6003600849416079
:2060A00008480121016080BD417F00000000094004180940010002001292001084180940C6
:2060C000FFFF0000081109400CB54A00520D03231B02FF33D21A13D31F239A1A12D98E46FA
:2060E000C9020123DB071943D1400B2A02D21532D04001437346002B00D5494208000CBDA9
:2061000000200CBD0B000120C007002B00D401380CBD000070B511221302C218C458012519
:20612000AC43C4500C888D7825438C882C43C558084E2E40084D25407419C4508879CB7957
:206140000343087A184351687E23994318400818506070BDE798FDFF1867000080B5FEF76D
:2061600045FFFEF715FE0B480021016041608160C16001610848016041608160C160016143
:2061800000F042FD0549086000F05CFF0449086080BDC046F0092020040A2020940A202072
:2061A000980A202080B5FEF73FFE0A48302100F094FE09480021017008480160084801602C
:2061C00041608160C16007480749016041608160C16080BD10092020E40A20206C0A2020FF
:2061E000280A2020180A2020FF0FFF0F10B50E4C2078052817D000F055FF002813D100F0A4
:206200005BF800F0DBFA00F099FB00F051FF002000F054FF012000F029FC00F031FF03499D
:2062200008600220207010BDEF0A2020640A202010B500F025FF044600F000FC601C0849B4
:206240000860601D0749086020460A3006490860204614300549086064340548046010BDD4
:206260008C0A2020780A2020900A20207C0A2020840A202010B50E490E4A01235C0590602F
:206280000868204205D10868204202D108682042F6D010681B04034313600868C00605D4BA
:2062A0000868C00602D40868C006F6D510BDC04604020B4004010B4080B5FEF769FD0B487A
:2062C0000021016041608160C16001610848016041608160C160016100F096FC0549086049
:2062E00000F0B0FE0449086080BDC046F0092020040A2020940A2020980A202010B50F4AA3
:20630000017853185B78401CDB06F9D42D2901D02B2901D1027801E0401E0A46431C0020E7
:20632000303A092A05D80A24444310191A785B1CF6E72D2900D1404210BDC046F07C000037
:20634000F0B511221302C2180C780B4D46590B4F374003262640BC19A9263606A419445169
:206360004C68C55807263606B54334402C19C45048781061F0BDC04608080000FCFFFF0030
:2063800010B582B0044600F03FFC014600940848084A0023DB43FFF70BFA00F053FE014650
:2063A00000940548054A0123FFF702FA02B010BDF0092020940A2020040A2020980A2020D1
:2063C00070B502460020002904D170BD521C491CA342FAD113780C78002B0DD0002C0BD064
:2063E0001E46413E20251A2E00D22B432646413E1A2EEBD22C43E9E723435842584170BDF8
:2064000070B586B01D460C460592491E22468A41A11A039100260496029007480090074B69
:2064200005A802AA2946FAF77BFC002C01D002990E7006B070BDC046A5690000496F000067
:206440001CB50A0017D000230124E407A04200D20400944201D95200FBE790425B4190426B
:2064600000D3801A914201D25208F6E719000200080011001CBD01000020FEF788FC1CBD52
:2064800008B443001B0E0FD0FF2B11D00721C9015B18C10FC9020B43010048074902090BED
:2064A0001B05194308BC70470021002008BC704701004002C90DC900C91D090508BC7047D8
:2064C00080B500F039F8FEF724FB00F089FCFFF745FEFFF767FEFEF7F3FCFEF777FAFFF709
:2064E000A3F900F0CDFD0349086003480021017080BDC046640A2020EF0A202070B500283E
:2065000005D0012812D1012318051B0301E002200123074C254610350029264600D12E4637
:2065200004497350002A00D12C46605070BDC0469012000000200A400948002101600948CB
:20654000016801229143016007490A601104074B1960074B19600168114301607047C0463A
:20656000BC0A2020045808404850084080E200E000E100E010B50B4A904200DC10460A4B1B
:20658000984200DB1846094C2080914203DD994204DA618010BD11469942FADB1946618092
:2065A00010BDC0464AFCFFFFB6030000480A202009490A78012A0ED1084A1268801AFB2812
:2065C00009D300200870064908700649088006484169491C41617047ED0A2020700A202002
:2065E000E60A2020D40A20204009202080B5FEF7ADFFFDF70FFFFEF795F9FEF73FFDFFF742
:206600003DFD00F0F7F8FEF7C7FDFEF77FFDFFF77FF9FEF75DFF00F01FFB02489C21002245
:20662000425480BD0007202070B50A480A4C84420CD00A4D0A4EB54208D02A686968501C84
:2066400012789200A25890470835F4E700BF00BF70BDC046EC800000E08000000081000037
:206660001081000006B49E22002802D404D106BC7047414204D400E00100013A4900FCD532
:20668000803101D3013200E04900490AD2051143002802D50122D2071143080006BC7047CB
:2066A000FCB4020C0B0CFF242402FF34204021400C00444315005D4306005E430F00574330
:2066C000320C3B0CA818C01832043B040025A1186841C9186841FCBC7047000010B50B4C8C
:2066E0002078022811D100F0CBFC09490968401A80087D2809D3012000F0E0FC002000F01C
:20670000B5F900F01BF90320207010BDEF0A2020640A202010B50146002000290FD0084ADA
:206720001388084C2488A34209D01088064B185C08701088401C3F2101401180012010BD17
:20674000D60A2020D00A202000082020B0B5012812D80446094805687D20C200914200D332
:2067600011466943800008181146FFF769FE291A0348224600F038FCB0BDC046F80A2020F3
:206780000000874010B50146002000290ED0084A1388084C2488A34208D01088064B185CF8
:2067A00008701088401CC0B21080012010BDC046D80A2020D20A20200006202080B509486D
:2067C00000F01AFC084800F017FC0848002101600748016041608160C16001614161816155
:2067E00080BDC04674082020DC082020680A20208C09202010B50849084C204600F04AFBEA
:2068000007492046FDF79AFC064801680122114301600548026010BDBF8000000040084066
:206820006C7E0000285008400851084070B5002815D10024064620462146FFF787FF2046BB
:2068400021462246FFF75AFE012528462146FFF77DFF284621462246FFF750FE304600F0C7
:20686000EFFA70BD06B54100090E7F390DD41F22511A0CD9864600020122D2071043C840A0
:206880007246002A00D5404206BD002006BD02000120C007002A00D4401E06BDF0B581B03A
:2068A00014460E46054641628262C76838461146FFF7AEFA009038463146FFF78EFA00288B
:2068C00000D13E460098002800D13446EC6001B0F0BDB0B5FFF7C0F8002420462146FFF7B4
:2068E00035FF012528462146FFF730FF204621462246FFF703FE284621462246FFF7FEFDEA
:20690000204600F09DFAB0BDF0B581B00E4600907F20C50508462946FFF77AFA0446002762
:2069200030463946FFF759FA002800D13746002C00D13D460098C56201B0F0BD80B5094880
